{
  "contractName": "AccessControl",
  "abi": [
    {
      "inputs": [],
      "stateMutability": "nonpayable",
      "type": "constructor"
    },
    {
      "anonymous": false,
      "inputs": [
        {
          "indexed": true,
          "internalType": "bytes32",
          "name": "role",
          "type": "bytes32"
        },
        {
          "indexed": true,
          "internalType": "address",
          "name": "account",
          "type": "address"
        }
      ],
      "name": "GRANTROLE",
      "type": "event"
    },
    {
      "anonymous": false,
      "inputs": [
        {
          "indexed": true,
          "internalType": "bytes32",
          "name": "role",
          "type": "bytes32"
        },
        {
          "indexed": false,
          "internalType": "uint256",
          "name": "number",
          "type": "uint256"
        }
      ],
      "name": "GROUPGRANTROLE",
      "type": "event"
    },
    {
      "anonymous": false,
      "inputs": [
        {
          "indexed": true,
          "internalType": "bytes32",
          "name": "role",
          "type": "bytes32"
        },
        {
          "indexed": true,
          "internalType": "address",
          "name": "account",
          "type": "address"
        }
      ],
      "name": "REVOKEROLE",
      "type": "event"
    },
    {
      "inputs": [
        {
          "internalType": "bytes32",
          "name": "",
          "type": "bytes32"
        },
        {
          "internalType": "address",
          "name": "",
          "type": "address"
        }
      ],
      "name": "roles",
      "outputs": [
        {
          "internalType": "bool",
          "name": "",
          "type": "bool"
        }
      ],
      "stateMutability": "view",
      "type": "function",
      "constant": true
    },
    {
      "inputs": [
        {
          "internalType": "address[]",
          "name": "_account",
          "type": "address[]"
        }
      ],
      "name": "_grantStuRoleArr",
      "outputs": [],
      "stateMutability": "nonpayable",
      "type": "function"
    },
    {
      "inputs": [],
      "name": "grantAdminRole",
      "outputs": [],
      "stateMutability": "nonpayable",
      "type": "function"
    },
    {
      "inputs": [
        {
          "internalType": "address",
          "name": "_account",
          "type": "address"
        }
      ],
      "name": "grantStudRole",
      "outputs": [],
      "stateMutability": "nonpayable",
      "type": "function"
    },
    {
      "inputs": [
        {
          "internalType": "address",
          "name": "_account",
          "type": "address"
        }
      ],
      "name": "revokeStudRole",
      "outputs": [],
      "stateMutability": "nonpayable",
      "type": "function"
    },
    {
      "inputs": [
        {
          "internalType": "address",
          "name": "_account",
          "type": "address"
        }
      ],
      "name": "grantInstrRole",
      "outputs": [],
      "stateMutability": "nonpayable",
      "type": "function"
    },
    {
      "inputs": [
        {
          "internalType": "address",
          "name": "_account",
          "type": "address"
        }
      ],
      "name": "revokeInstrRole",
      "outputs": [],
      "stateMutability": "nonpayable",
      "type": "function"
    },
    {
      "inputs": [],
      "name": "hasStudRole",
      "outputs": [],
      "stateMutability": "view",
      "type": "function",
      "constant": true
    },
    {
      "inputs": [],
      "name": "hasInstrRole",
      "outputs": [],
      "stateMutability": "view",
      "type": "function",
      "constant": true
    }
  ],
  "bytecode": "0x60806040523480156200001157600080fd5b506200004a6040516020016200002790620001f9565b60405160208183030381529060405280519060200120336200006c60201b60201c565b62000066606460016200011c60201b62000d391790919060201c565b6200036e565b600160008084815260200190815260200160002060008373ffffffffffffffffffffffffffffffffffffffff1673ffffffffffffffffffffffffffffffffffffffff16815260200190815260200160002060006101000a81548160ff0219169083151502179055508073ffffffffffffffffffffffffffffffffffffffff16827f678badbbbff61bc7f5b9691125356328c588775ab20d5e46cc2b86b13228a49b60405160405180910390a35050565b6200012d816200014d60201b60201c565b8260010160006101000a81548160ff021916908360ff1602179055505050565b600080600160648462000161919062000249565b619000620001709190620002d9565b6200017c919062000311565b905061010081101562000193578091505062000199565b60ff9150505b919050565b600081905092915050565b7f41444d494e000000000000000000000000000000000000000000000000000000600082015250565b6000620001e16005836200019e565b9150620001ee82620001a9565b600582019050919050565b60006200020682620001d2565b9150819050919050565b6000819050919050565b7f4e487b7100000000000000000000000000000000000000000000000000000000600052601160045260246000fd5b6000620002568262000210565b9150620002638362000210565b9250817fffffffffffffffffffffffffffffffffffffffffffffffffffffffffffffffff04831182151516156200029f576200029e6200021a565b5b828202905092915050565b7f4e487b7100000000000000000000000000000000000000000000000000000000600052601260045260246000fd5b6000620002e68262000210565b9150620002f38362000210565b925082620003065762000305620002aa565b5b828204905092915050565b60006200031e8262000210565b91506200032b8362000210565b9250827fffffffffffffffffffffffffffffffffffffffffffffffffffffffffffffffff038211156200036357620003626200021a565b5b828201905092915050565b611b71806200037e6000396000f3fe608060405234801561001057600080fd5b50600436106100935760003560e01c80636a1af181116100665780636a1af181146100e4578063af8ade0c14610100578063c3a6ebf21461011c578063d19b4f3614610138578063f8fc08b91461014257610093565b80630bf8af0e146100985780631eb45e29146100b45780635367dcbd146100d0578063690aa020146100da575b600080fd5b6100b260048036038101906100ad919061113e565b610172565b005b6100ce60048036038101906100c991906112c4565b61032b565b005b6100d8610697565b005b6100e26106c7565b005b6100fe60048036038101906100f9919061113e565b610789565b005b61011a6004803603810190610115919061113e565b61099c565b005b6101366004803603810190610131919061113e565b610a8f565b005b610140610c48565b005b61015c60048036038101906101579190611343565b610d0a565b604051610169919061139e565b60405180910390f35b60405160200161018190611410565b6040516020818303038152906040528051906020012060008082815260200190815260200160002060003373ffffffffffffffffffffffffffffffffffffffff1673ffffffffffffffffffffffffffffffffffffffff16815260200190815260200160002060009054906101000a900460ff16610233576040517f08c379a000000000000000000000000000000000000000000000000000000000815260040161022a90611482565b60405180910390fd5b6000806000604051602001610247906114ee565b60405160208183030381529060405280519060200120815260200190815260200160002060008473ffffffffffffffffffffffffffffffffffffffff1673ffffffffffffffffffffffffffffffffffffffff16815260200190815260200160002060006101000a81548160ff0219169083151502179055508173ffffffffffffffffffffffffffffffffffffffff166040516020016102e5906114ee565b604051602081830303815290604052805190602001207fae0d646af6cfefc37fc38ae47cc5b3a2b7fe4f0ed944b49ef4c6b21a907fda7c60405160405180910390a35050565b60405160200161033a90611410565b6040516020818303038152906040528051906020012060008082815260200190815260200160002060003373ffffffffffffffffffffffffffffffffffffffff1673ffffffffffffffffffffffffffffffffffffffff16815260200190815260200160002060009054906101000a900460ff166103ec576040517f08c379a00000000000000000000000000000000000000000000000000000000081526004016103e390611482565b60405180910390fd5b600080835190505b808210156106355760008460405160200161040f91906115bb565b60405160208183030381529060405280519060200120905061043b816001610d6290919063ffffffff16565b6000610451826001610d8e90919063ffffffff16565b9050600015156000806040516020016104699061161e565b60405160208183030381529060405280519060200120815260200190815260200160002060008887815181106104a2576104a1611633565b5b602002602001015173ffffffffffffffffffffffffffffffffffffffff1673ffffffffffffffffffffffffffffffffffffffff16815260200190815260200160002060009054906101000a900460ff1615150361062257600160008060405160200161050d9061161e565b604051602081830303815290604052805190602001208152602001908152602001600020600088878151811061054657610545611633565b5b602002602001015173ffffffffffffffffffffffffffffffffffffffff1673ffffffffffffffffffffffffffffffffffffffff16815260200190815260200160002060006101000a81548160ff0219169083151502179055508584815181106105b2576105b1611633565b5b602002602001015173ffffffffffffffffffffffffffffffffffffffff166040516020016105df9061161e565b604051602081830303815290604052805190602001207f678badbbbff61bc7f5b9691125356328c588775ab20d5e46cc2b86b13228a49b60405160405180910390a35b8361062c9061169b565b935050506103f4565b6040516020016106449061161e565b604051602081830303815290604052805190602001207f1a3f4dae870fa6cedaa64f14ca3e48d04100048110095462f8c21dad3a7800128260405161068991906116f2565b60405180910390a250505050565b6106c56040516020016106a990611410565b6040516020818303038152906040528051906020012033610db8565b565b6000806040516020016106d99061161e565b60405160208183030381529060405280519060200120815260200190815260200160002060003373ffffffffffffffffffffffffffffffffffffffff1673ffffffffffffffffffffffffffffffffffffffff16815260200190815260200160002060009054906101000a900460ff16610787576040517f08c379a000000000000000000000000000000000000000000000000000000000815260040161077e90611759565b60405180910390fd5b565b60405160200161079890611410565b6040516020818303038152906040528051906020012060008082815260200190815260200160002060003373ffffffffffffffffffffffffffffffffffffffff1673ffffffffffffffffffffffffffffffffffffffff16815260200190815260200160002060009054906101000a900460ff1661084a576040517f08c379a000000000000000000000000000000000000000000000000000000000815260040161084190611482565b60405180910390fd5b60008260405160200161085d91906117c1565b604051602081830303815290604052805190602001209050610889816001610d6290919063ffffffff16565b600061089f826001610d8e90919063ffffffff16565b9050600015156000806040516020016108b79061161e565b60405160208183030381529060405280519060200120815260200190815260200160002060008673ffffffffffffffffffffffffffffffffffffffff1673ffffffffffffffffffffffffffffffffffffffff16815260200190815260200160002060009054906101000a900460ff16151514610968576040517f08c379a000000000000000000000000000000000000000000000000000000000815260040161095f90611828565b60405180910390fd5b61099660405160200161097a9061161e565b6040516020818303038152906040528051906020012085610db8565b50505050565b6040516020016109ab90611410565b6040516020818303038152906040528051906020012060008082815260200190815260200160002060003373ffffffffffffffffffffffffffffffffffffffff1673ffffffffffffffffffffffffffffffffffffffff16815260200190815260200160002060009054906101000a900460ff16610a5d576040517f08c379a0000000000000000000000000000000000000000000000000000000008152600401610a5490611482565b60405180910390fd5b610a8b604051602001610a6f906114ee565b6040516020818303038152906040528051906020012083610db8565b5050565b604051602001610a9e90611410565b6040516020818303038152906040528051906020012060008082815260200190815260200160002060003373ffffffffffffffffffffffffffffffffffffffff1673ffffffffffffffffffffffffffffffffffffffff16815260200190815260200160002060009054906101000a900460ff16610b50576040517f08c379a0000000000000000000000000000000000000000000000000000000008152600401610b4790611482565b60405180910390fd5b6000806000604051602001610b649061161e565b60405160208183030381529060405280519060200120815260200190815260200160002060008473ffffffffffffffffffffffffffffffffffffffff1673ffffffffffffffffffffffffffffffffffffffff16815260200190815260200160002060006101000a81548160ff0219169083151502179055508173ffffffffffffffffffffffffffffffffffffffff16604051602001610c029061161e565b604051602081830303815290604052805190602001207fae0d646af6cfefc37fc38ae47cc5b3a2b7fe4f0ed944b49ef4c6b21a907fda7c60405160405180910390a35050565b600080604051602001610c5a906114ee565b60405160208183030381529060405280519060200120815260200190815260200160002060003373ffffffffffffffffffffffffffffffffffffffff1673ffffffffffffffffffffffffffffffffffffffff16815260200190815260200160002060009054906101000a900460ff16610d08576040517f08c379a0000000000000000000000000000000000000000000000000000000008152600401610cff90611894565b60405180910390fd5b565b60006020528160005260406000206020528060005260406000206000915091509054906101000a900460ff1681565b610d4281610e68565b8260010160006101000a81548160ff021916908360ff1602179055505050565b610d8282600001548360010160009054906101000a900460ff1683610eb1565b82600001819055505050565b6000610db083600001548460010160009054906101000a900460ff1684610fb6565b905092915050565b600160008084815260200190815260200160002060008373ffffffffffffffffffffffffffffffffffffffff1673ffffffffffffffffffffffffffffffffffffffff16815260200190815260200160002060006101000a81548160ff0219169083151502179055508073ffffffffffffffffffffffffffffffffffffffff16827f678badbbbff61bc7f5b9691125356328c588775ab20d5e46cc2b86b13228a49b60405160405180910390a35050565b6000806001606484610e7a91906118b4565b619000610e87919061193d565b610e91919061196e565b9050610100811015610ea65780915050610eac565b60ff9150505b919050565b600083905060008360ff1611610efc576040517f08c379a0000000000000000000000000000000000000000000000000000000008152600401610ef390611a10565b60405180910390fd5b60005b8360ff16811015610fae5760006101008483604051602001610f22929190611a72565b6040516020818303038152906040528051906020012060001c610f459190611a9e565b90506101008110610f8b576040517f08c379a0000000000000000000000000000000000000000000000000000000008152600401610f8290611b1b565b60405180910390fd5b6000816001901b9050808417935050508080610fa69061169b565b915050610eff565b509392505050565b6000808360ff1611610ffd576040517f08c379a0000000000000000000000000000000000000000000000000000000008152600401610ff490611a10565b60405180910390fd5b60005b8360ff168110156110bf5760006101008483604051602001611023929190611a72565b6040516020818303038152906040528051906020012060001c6110469190611a9e565b9050610100811061108c576040517f08c379a000000000000000000000000000000000000000000000000000000000815260040161108390611b1b565b60405180910390fd5b6000816001901b905080871787146110aa57600093505050506110c5565b505080806110b79061169b565b915050611000565b50600190505b9392505050565b6000604051905090565b600080fd5b600080fd5b600073ffffffffffffffffffffffffffffffffffffffff82169050919050565b600061110b826110e0565b9050919050565b61111b81611100565b811461112657600080fd5b50565b60008135905061113881611112565b92915050565b600060208284031215611154576111536110d6565b5b600061116284828501611129565b91505092915050565b600080fd5b6000601f19601f8301169050919050565b7f4e487b7100000000000000000000000000000000000000000000000000000000600052604160045260246000fd5b6111b982611170565b810181811067ffffffffffffffff821117156111d8576111d7611181565b5b80604052505050565b60006111eb6110cc565b90506111f782826111b0565b919050565b600067ffffffffffffffff82111561121757611216611181565b5b602082029050602081019050919050565b600080fd5b600061124061123b846111fc565b6111e1565b9050808382526020820190506020840283018581111561126357611262611228565b5b835b8181101561128c57806112788882611129565b845260208401935050602081019050611265565b5050509392505050565b600082601f8301126112ab576112aa61116b565b5b81356112bb84826020860161122d565b91505092915050565b6000602082840312156112da576112d96110d6565b5b600082013567ffffffffffffffff8111156112f8576112f76110db565b5b61130484828501611296565b91505092915050565b6000819050919050565b6113208161130d565b811461132b57600080fd5b50565b60008135905061133d81611317565b92915050565b6000806040838503121561135a576113596110d6565b5b60006113688582860161132e565b925050602061137985828601611129565b9150509250929050565b60008115159050919050565b61139881611383565b82525050565b60006020820190506113b3600083018461138f565b92915050565b600081905092915050565b7f41444d494e000000000000000000000000000000000000000000000000000000600082015250565b60006113fa6005836113b9565b9150611405826113c4565b600582019050919050565b600061141b826113ed565b9150819050919050565b600082825260208201905092915050565b7f6e6f7420617574686f72697a6564000000000000000000000000000000000000600082015250565b600061146c600e83611425565b915061147782611436565b602082019050919050565b6000602082019050818103600083015261149b8161145f565b9050919050565b7f494e5354525543544f5200000000000000000000000000000000000000000000600082015250565b60006114d8600a836113b9565b91506114e3826114a2565b600a82019050919050565b60006114f9826114cb565b9150819050919050565b600081519050919050565b600081905092915050565b6000819050602082019050919050565b61153281611100565b82525050565b60006115448383611529565b60208301905092915050565b6000602082019050919050565b600061156882611503565b611572818561150e565b935061157d83611519565b8060005b838110156115ae5781516115958882611538565b97506115a083611550565b925050600181019050611581565b5085935050505092915050565b60006115c7828461155d565b915081905092915050565b7f53545544454e5400000000000000000000000000000000000000000000000000600082015250565b60006116086007836113b9565b9150611613826115d2565b600782019050919050565b6000611629826115fb565b9150819050919050565b7f4e487b7100000000000000000000000000000000000000000000000000000000600052603260045260246000fd5b7f4e487b7100000000000000000000000000000000000000000000000000000000600052601160045260246000fd5b6000819050919050565b60006116a682611691565b91507fffffffffffffffffffffffffffffffffffffffffffffffffffffffffffffffff82036116d8576116d7611662565b5b600182019050919050565b6116ec81611691565b82525050565b600060208201905061170760008301846116e3565b92915050565b7f6e6f7420616e20617574686f72697a65642073747564656e7400000000000000600082015250565b6000611743601983611425565b915061174e8261170d565b602082019050919050565b6000602082019050818103600083015261177281611736565b9050919050565b60008160601b9050919050565b600061179182611779565b9050919050565b60006117a382611786565b9050919050565b6117bb6117b682611100565b611798565b82525050565b60006117cd82846117aa565b60148201915081905092915050565b7f416c72656164792061737369676e656420726f6c650000000000000000000000600082015250565b6000611812601583611425565b915061181d826117dc565b602082019050919050565b6000602082019050818103600083015261184181611805565b9050919050565b7f6e6f7420616e20617574686f72697a656420696e7374727563746f7200000000600082015250565b600061187e601c83611425565b915061188982611848565b602082019050919050565b600060208201905081810360008301526118ad81611871565b9050919050565b60006118bf82611691565b91506118ca83611691565b9250817fffffffffffffffffffffffffffffffffffffffffffffffffffffffffffffffff048311821515161561190357611902611662565b5b828202905092915050565b7f4e487b7100000000000000000000000000000000000000000000000000000000600052601260045260246000fd5b600061194882611691565b915061195383611691565b9250826119635761196261190e565b5b828204905092915050565b600061197982611691565b915061198483611691565b9250827fffffffffffffffffffffffffffffffffffffffffffffffffffffffffffffffff038211156119b9576119b8611662565b5b828201905092915050565b7f4861736820636f756e742063616e206e6f74206265207a65726f000000000000600082015250565b60006119fa601a83611425565b9150611a05826119c4565b602082019050919050565b60006020820190508181036000830152611a29816119ed565b9050919050565b6000819050919050565b611a4b611a468261130d565b611a30565b82525050565b6000819050919050565b611a6c611a6782611691565b611a51565b82525050565b6000611a7e8285611a3a565b602082019150611a8e8284611a5b565b6020820191508190509392505050565b6000611aa982611691565b9150611ab483611691565b925082611ac457611ac361190e565b5b828206905092915050565b7f4f766572666c6f77206572726f72000000000000000000000000000000000000600082015250565b6000611b05600e83611425565b9150611b1082611acf565b602082019050919050565b60006020820190508181036000830152611b3481611af8565b905091905056fea2646970667358221220c0e7a0251a47f8b5ac0078f04e12fa78ad97ed2d76bdbf30f92b31847ce5a87764736f6c634300080f0033",
  "immutableReferences": {},
  "source": "//SPDX-License-Identifier: MIT\npragma solidity ^0.8.0;\n\nimport \"./BloomFilter.sol\";\n\n\ncontract AccessControl {\n    event GRANTROLE(bytes32 indexed role, address indexed account);\n    event REVOKEROLE(bytes32 indexed role, address indexed account);\n    event GROUPGRANTROLE(bytes32 indexed role, uint256 number);\n    //role => account => bool\n    mapping(bytes32 => mapping(address => bool)) public roles;\n    //bytes32 instead of string because it saves gas\n    bytes32 private constant ADMIN = keccak256(abi.encodePacked(\"ADMIN\"));\n    bytes32 private constant STUDENT = keccak256(abi.encodePacked(\"STUDENT\"));\n    bytes32 private constant INSTRUCTOR = keccak256(abi.encodePacked(\"INSTRUCTOR\"));\n\n    using BloomFilter for BloomFilter.Filter;\n    BloomFilter.Filter filter;\n\n    modifier onlyRole(bytes32 _role) {\n            require(roles[_role][msg.sender], \"not authorized\");\n            _;\n    }\n\n    constructor() {\n        _grantRole(ADMIN, msg.sender);\n        filter.init(100);\n    }\n\n    function _grantRole(bytes32 _role, address _account) internal {\n        roles[_role][_account] = true;\n        emit GRANTROLE(_role, _account);\n    }\n\n    function _grantStuRoleArr(address[] memory _account) external onlyRole(ADMIN){\n        uint i = 0;\n        uint size = _account.length;\n        \n        while(i < size){\n             bytes32 key = keccak256(abi.encodePacked(_account));\n             filter.add(key);\n             bool falsePositive = filter.check(key);\n             if(roles[STUDENT][_account[i]] == false){\n                roles[STUDENT][_account[i]] = true;\n                emit GRANTROLE(STUDENT, _account[i]);\n             }\n            ++i;\n        }\n        emit GROUPGRANTROLE(STUDENT, size);\n    }\n\n\n    function grantAdminRole() external {\n        _grantRole(ADMIN, msg.sender);\n    }\n\n    function grantStudRole(address _account) external onlyRole(ADMIN) {\n        bytes32 key = keccak256(abi.encodePacked(_account));\n        filter.add(key);\n        bool falsePositive = filter.check(key);\n        require(roles[STUDENT][_account] == false, \"Already assigned role\");\n        _grantRole(STUDENT, _account);\n    }\n\n     function revokeStudRole(address _account) external onlyRole(ADMIN) {\n        roles[STUDENT][_account] = false;\n        emit REVOKEROLE(STUDENT, _account);\n    }\n \n    function grantInstrRole(address _account) external onlyRole(ADMIN) {\n        _grantRole(INSTRUCTOR, _account);\n    }\n\n     function revokeInstrRole(address _account) external onlyRole(ADMIN) {\n        roles[INSTRUCTOR][_account] = false;\n        emit REVOKEROLE(INSTRUCTOR, _account);\n    }\n\n    function hasStudRole() external view {\n        require(roles[STUDENT][msg.sender], \"not an authorized student\");\n    }\n\n    function hasInstrRole() external view {\n        require(roles[INSTRUCTOR][msg.sender], \"not an authorized instructor\");\n    }\n\n\n}",
  "sourcePath": "/home/jarvis/projects/mtech_proj-main/contracts/AccessControl.sol",
  "compiler": {
    "name": "solc",
    "version": "0.8.15+commit.e14f2714.Emscripten.clang"
  },
  "schemaVersion": "3.4.8",
  "updatedAt": "2023-02-07T05:06:06.164Z",
  "networkType": "ethereum",
  "devdoc": {
    "kind": "dev",
    "methods": {},
    "version": 1
  },
  "userdoc": {
    "kind": "user",
    "methods": {},
    "version": 1
  }
}