{
  "contractName": "AccessControl",
  "abi": [
    {
      "inputs": [],
      "stateMutability": "nonpayable",
      "type": "constructor"
    },
    {
      "anonymous": false,
      "inputs": [
        {
          "indexed": true,
          "internalType": "bytes32",
          "name": "role",
          "type": "bytes32"
        },
        {
          "indexed": true,
          "internalType": "address",
          "name": "account",
          "type": "address"
        }
      ],
      "name": "GRANTROLE",
      "type": "event"
    },
    {
      "anonymous": false,
      "inputs": [
        {
          "indexed": true,
          "internalType": "bytes32",
          "name": "role",
          "type": "bytes32"
        },
        {
          "indexed": false,
          "internalType": "uint256",
          "name": "number",
          "type": "uint256"
        }
      ],
      "name": "GROUPGRANTROLE",
      "type": "event"
    },
    {
      "anonymous": false,
      "inputs": [
        {
          "indexed": true,
          "internalType": "bytes32",
          "name": "role",
          "type": "bytes32"
        },
        {
          "indexed": true,
          "internalType": "address",
          "name": "account",
          "type": "address"
        }
      ],
      "name": "REVOKEROLE",
      "type": "event"
    },
    {
      "inputs": [
        {
          "internalType": "bytes32",
          "name": "",
          "type": "bytes32"
        },
        {
          "internalType": "address",
          "name": "",
          "type": "address"
        }
      ],
      "name": "roles",
      "outputs": [
        {
          "internalType": "bool",
          "name": "",
          "type": "bool"
        }
      ],
      "stateMutability": "view",
      "type": "function",
      "constant": true
    },
    {
      "inputs": [
        {
          "internalType": "address[]",
          "name": "_account",
          "type": "address[]"
        }
      ],
      "name": "_grantStuRoleArr",
      "outputs": [],
      "stateMutability": "nonpayable",
      "type": "function"
    },
    {
      "inputs": [],
      "name": "grantAdminRole",
      "outputs": [],
      "stateMutability": "nonpayable",
      "type": "function"
    },
    {
      "inputs": [
        {
          "internalType": "address",
          "name": "_account",
          "type": "address"
        }
      ],
      "name": "grantStudRole",
      "outputs": [],
      "stateMutability": "nonpayable",
      "type": "function"
    },
    {
      "inputs": [
        {
          "internalType": "address",
          "name": "_account",
          "type": "address"
        }
      ],
      "name": "revokeStudRole",
      "outputs": [],
      "stateMutability": "nonpayable",
      "type": "function"
    },
    {
      "inputs": [
        {
          "internalType": "address",
          "name": "_account",
          "type": "address"
        }
      ],
      "name": "grantInstrRole",
      "outputs": [],
      "stateMutability": "nonpayable",
      "type": "function"
    },
    {
      "inputs": [
        {
          "internalType": "address",
          "name": "_account",
          "type": "address"
        }
      ],
      "name": "revokeInstrRole",
      "outputs": [],
      "stateMutability": "nonpayable",
      "type": "function"
    },
    {
      "inputs": [],
      "name": "hasStudRole",
      "outputs": [],
      "stateMutability": "view",
      "type": "function",
      "constant": true
    },
    {
      "inputs": [],
      "name": "hasInstrRole",
      "outputs": [],
      "stateMutability": "view",
      "type": "function",
      "constant": true
    },
    {
      "inputs": [
        {
          "internalType": "address",
          "name": "_instradd",
          "type": "address"
        }
      ],
      "name": "hasInstrRoleWADD",
      "outputs": [
        {
          "internalType": "bool",
          "name": "",
          "type": "bool"
        }
      ],
      "stateMutability": "view",
      "type": "function",
      "constant": true
    },
    {
      "inputs": [
        {
          "internalType": "address",
          "name": "_studaddr",
          "type": "address"
        }
      ],
      "name": "hasStudRoleWADD",
      "outputs": [
        {
          "internalType": "bool",
          "name": "",
          "type": "bool"
        }
      ],
      "stateMutability": "view",
      "type": "function",
      "constant": true
    }
  ],
  "bytecode": "0x60806040523480156200001157600080fd5b506200004a6040516020016200002790620001f9565b60405160208183030381529060405280519060200120336200006c60201b60201c565b62000066606460016200011c60201b62000ec31790919060201c565b6200036e565b600160008084815260200190815260200160002060008373ffffffffffffffffffffffffffffffffffffffff1673ffffffffffffffffffffffffffffffffffffffff16815260200190815260200160002060006101000a81548160ff0219169083151502179055508073ffffffffffffffffffffffffffffffffffffffff16827f678badbbbff61bc7f5b9691125356328c588775ab20d5e46cc2b86b13228a49b60405160405180910390a35050565b6200012d816200014d60201b60201c565b8260010160006101000a81548160ff021916908360ff1602179055505050565b600080600160648462000161919062000249565b619000620001709190620002d9565b6200017c919062000311565b905061010081101562000193578091505062000199565b60ff9150505b919050565b600081905092915050565b7f41444d494e000000000000000000000000000000000000000000000000000000600082015250565b6000620001e16005836200019e565b9150620001ee82620001a9565b600582019050919050565b60006200020682620001d2565b9150819050919050565b6000819050919050565b7f4e487b7100000000000000000000000000000000000000000000000000000000600052601160045260246000fd5b6000620002568262000210565b9150620002638362000210565b9250817fffffffffffffffffffffffffffffffffffffffffffffffffffffffffffffffff04831182151516156200029f576200029e6200021a565b5b828202905092915050565b7f4e487b7100000000000000000000000000000000000000000000000000000000600052601260045260246000fd5b6000620002e68262000210565b9150620002f38362000210565b925082620003065762000305620002aa565b5b828204905092915050565b60006200031e8262000210565b91506200032b8362000210565b9250827fffffffffffffffffffffffffffffffffffffffffffffffffffffffffffffffff038211156200036357620003626200021a565b5b828201905092915050565b611cfb806200037e6000396000f3fe608060405234801561001057600080fd5b50600436106100a95760003560e01c80636a1af181116100715780636a1af1811461012a57806388d5be8114610146578063af8ade0c14610176578063c3a6ebf214610192578063d19b4f36146101ae578063f8fc08b9146101b8576100a9565b80630bf8af0e146100ae5780631eb45e29146100ca57806349cf7a2a146100e65780635367dcbd14610116578063690aa02014610120575b600080fd5b6100c860048036038101906100c391906112c8565b6101e8565b005b6100e460048036038101906100df919061144e565b6103a1565b005b61010060048036038101906100fb91906112c8565b61070d565b60405161010d91906114b2565b60405180910390f35b61011e610797565b005b6101286107c7565b005b610144600480360381019061013f91906112c8565b610889565b005b610160600480360381019061015b91906112c8565b610a9c565b60405161016d91906114b2565b60405180910390f35b610190600480360381019061018b91906112c8565b610b26565b005b6101ac60048036038101906101a791906112c8565b610c19565b005b6101b6610dd2565b005b6101d260048036038101906101cd9190611503565b610e94565b6040516101df91906114b2565b60405180910390f35b6040516020016101f79061159a565b6040516020818303038152906040528051906020012060008082815260200190815260200160002060003373ffffffffffffffffffffffffffffffffffffffff1673ffffffffffffffffffffffffffffffffffffffff16815260200190815260200160002060009054906101000a900460ff166102a9576040517f08c379a00000000000000000000000000000000000000000000000000000000081526004016102a09061160c565b60405180910390fd5b60008060006040516020016102bd90611678565b60405160208183030381529060405280519060200120815260200190815260200160002060008473ffffffffffffffffffffffffffffffffffffffff1673ffffffffffffffffffffffffffffffffffffffff16815260200190815260200160002060006101000a81548160ff0219169083151502179055508173ffffffffffffffffffffffffffffffffffffffff1660405160200161035b90611678565b604051602081830303815290604052805190602001207fae0d646af6cfefc37fc38ae47cc5b3a2b7fe4f0ed944b49ef4c6b21a907fda7c60405160405180910390a35050565b6040516020016103b09061159a565b6040516020818303038152906040528051906020012060008082815260200190815260200160002060003373ffffffffffffffffffffffffffffffffffffffff1673ffffffffffffffffffffffffffffffffffffffff16815260200190815260200160002060009054906101000a900460ff16610462576040517f08c379a00000000000000000000000000000000000000000000000000000000081526004016104599061160c565b60405180910390fd5b600080835190505b808210156106ab576000846040516020016104859190611745565b6040516020818303038152906040528051906020012090506104b1816001610eec90919063ffffffff16565b60006104c7826001610f1890919063ffffffff16565b9050600015156000806040516020016104df906117a8565b6040516020818303038152906040528051906020012081526020019081526020016000206000888781518110610518576105176117bd565b5b602002602001015173ffffffffffffffffffffffffffffffffffffffff1673ffffffffffffffffffffffffffffffffffffffff16815260200190815260200160002060009054906101000a900460ff16151503610698576001600080604051602001610583906117a8565b60405160208183030381529060405280519060200120815260200190815260200160002060008887815181106105bc576105bb6117bd565b5b602002602001015173ffffffffffffffffffffffffffffffffffffffff1673ffffffffffffffffffffffffffffffffffffffff16815260200190815260200160002060006101000a81548160ff021916908315150217905550858481518110610628576106276117bd565b5b602002602001015173ffffffffffffffffffffffffffffffffffffffff16604051602001610655906117a8565b604051602081830303815290604052805190602001207f678badbbbff61bc7f5b9691125356328c588775ab20d5e46cc2b86b13228a49b60405160405180910390a35b836106a290611825565b9350505061046a565b6040516020016106ba906117a8565b604051602081830303815290604052805190602001207f1a3f4dae870fa6cedaa64f14ca3e48d04100048110095462f8c21dad3a780012826040516106ff919061187c565b60405180910390a250505050565b6000806000604051602001610721906117a8565b60405160208183030381529060405280519060200120815260200190815260200160002060008373ffffffffffffffffffffffffffffffffffffffff1673ffffffffffffffffffffffffffffffffffffffff16815260200190815260200160002060009054906101000a900460ff169050919050565b6107c56040516020016107a99061159a565b6040516020818303038152906040528051906020012033610f42565b565b6000806040516020016107d9906117a8565b60405160208183030381529060405280519060200120815260200190815260200160002060003373ffffffffffffffffffffffffffffffffffffffff1673ffffffffffffffffffffffffffffffffffffffff16815260200190815260200160002060009054906101000a900460ff16610887576040517f08c379a000000000000000000000000000000000000000000000000000000000815260040161087e906118e3565b60405180910390fd5b565b6040516020016108989061159a565b6040516020818303038152906040528051906020012060008082815260200190815260200160002060003373ffffffffffffffffffffffffffffffffffffffff1673ffffffffffffffffffffffffffffffffffffffff16815260200190815260200160002060009054906101000a900460ff1661094a576040517f08c379a00000000000000000000000000000000000000000000000000000000081526004016109419061160c565b60405180910390fd5b60008260405160200161095d919061194b565b604051602081830303815290604052805190602001209050610989816001610eec90919063ffffffff16565b600061099f826001610f1890919063ffffffff16565b9050600015156000806040516020016109b7906117a8565b60405160208183030381529060405280519060200120815260200190815260200160002060008673ffffffffffffffffffffffffffffffffffffffff1673ffffffffffffffffffffffffffffffffffffffff16815260200190815260200160002060009054906101000a900460ff16151514610a68576040517f08c379a0000000000000000000000000000000000000000000000000000000008152600401610a5f906119b2565b60405180910390fd5b610a96604051602001610a7a906117a8565b6040516020818303038152906040528051906020012085610f42565b50505050565b6000806000604051602001610ab090611678565b60405160208183030381529060405280519060200120815260200190815260200160002060008373ffffffffffffffffffffffffffffffffffffffff1673ffffffffffffffffffffffffffffffffffffffff16815260200190815260200160002060009054906101000a900460ff169050919050565b604051602001610b359061159a565b6040516020818303038152906040528051906020012060008082815260200190815260200160002060003373ffffffffffffffffffffffffffffffffffffffff1673ffffffffffffffffffffffffffffffffffffffff16815260200190815260200160002060009054906101000a900460ff16610be7576040517f08c379a0000000000000000000000000000000000000000000000000000000008152600401610bde9061160c565b60405180910390fd5b610c15604051602001610bf990611678565b6040516020818303038152906040528051906020012083610f42565b5050565b604051602001610c289061159a565b6040516020818303038152906040528051906020012060008082815260200190815260200160002060003373ffffffffffffffffffffffffffffffffffffffff1673ffffffffffffffffffffffffffffffffffffffff16815260200190815260200160002060009054906101000a900460ff16610cda576040517f08c379a0000000000000000000000000000000000000000000000000000000008152600401610cd19061160c565b60405180910390fd5b6000806000604051602001610cee906117a8565b60405160208183030381529060405280519060200120815260200190815260200160002060008473ffffffffffffffffffffffffffffffffffffffff1673ffffffffffffffffffffffffffffffffffffffff16815260200190815260200160002060006101000a81548160ff0219169083151502179055508173ffffffffffffffffffffffffffffffffffffffff16604051602001610d8c906117a8565b604051602081830303815290604052805190602001207fae0d646af6cfefc37fc38ae47cc5b3a2b7fe4f0ed944b49ef4c6b21a907fda7c60405160405180910390a35050565b600080604051602001610de490611678565b60405160208183030381529060405280519060200120815260200190815260200160002060003373ffffffffffffffffffffffffffffffffffffffff1673ffffffffffffffffffffffffffffffffffffffff16815260200190815260200160002060009054906101000a900460ff16610e92576040517f08c379a0000000000000000000000000000000000000000000000000000000008152600401610e8990611a1e565b60405180910390fd5b565b60006020528160005260406000206020528060005260406000206000915091509054906101000a900460ff1681565b610ecc81610ff2565b8260010160006101000a81548160ff021916908360ff1602179055505050565b610f0c82600001548360010160009054906101000a900460ff168361103b565b82600001819055505050565b6000610f3a83600001548460010160009054906101000a900460ff1684611140565b905092915050565b600160008084815260200190815260200160002060008373ffffffffffffffffffffffffffffffffffffffff1673ffffffffffffffffffffffffffffffffffffffff16815260200190815260200160002060006101000a81548160ff0219169083151502179055508073ffffffffffffffffffffffffffffffffffffffff16827f678badbbbff61bc7f5b9691125356328c588775ab20d5e46cc2b86b13228a49b60405160405180910390a35050565b60008060016064846110049190611a3e565b6190006110119190611ac7565b61101b9190611af8565b90506101008110156110305780915050611036565b60ff9150505b919050565b600083905060008360ff1611611086576040517f08c379a000000000000000000000000000000000000000000000000000000000815260040161107d90611b9a565b60405180910390fd5b60005b8360ff1681101561113857600061010084836040516020016110ac929190611bfc565b6040516020818303038152906040528051906020012060001c6110cf9190611c28565b90506101008110611115576040517f08c379a000000000000000000000000000000000000000000000000000000000815260040161110c90611ca5565b60405180910390fd5b6000816001901b905080841793505050808061113090611825565b915050611089565b509392505050565b6000808360ff1611611187576040517f08c379a000000000000000000000000000000000000000000000000000000000815260040161117e90611b9a565b60405180910390fd5b60005b8360ff1681101561124957600061010084836040516020016111ad929190611bfc565b6040516020818303038152906040528051906020012060001c6111d09190611c28565b90506101008110611216576040517f08c379a000000000000000000000000000000000000000000000000000000000815260040161120d90611ca5565b60405180910390fd5b6000816001901b90508087178714611234576000935050505061124f565b5050808061124190611825565b91505061118a565b50600190505b9392505050565b6000604051905090565b600080fd5b600080fd5b600073ffffffffffffffffffffffffffffffffffffffff82169050919050565b60006112958261126a565b9050919050565b6112a58161128a565b81146112b057600080fd5b50565b6000813590506112c28161129c565b92915050565b6000602082840312156112de576112dd611260565b5b60006112ec848285016112b3565b91505092915050565b600080fd5b6000601f19601f8301169050919050565b7f4e487b7100000000000000000000000000000000000000000000000000000000600052604160045260246000fd5b611343826112fa565b810181811067ffffffffffffffff821117156113625761136161130b565b5b80604052505050565b6000611375611256565b9050611381828261133a565b919050565b600067ffffffffffffffff8211156113a1576113a061130b565b5b602082029050602081019050919050565b600080fd5b60006113ca6113c584611386565b61136b565b905080838252602082019050602084028301858111156113ed576113ec6113b2565b5b835b81811015611416578061140288826112b3565b8452602084019350506020810190506113ef565b5050509392505050565b600082601f830112611435576114346112f5565b5b81356114458482602086016113b7565b91505092915050565b60006020828403121561146457611463611260565b5b600082013567ffffffffffffffff81111561148257611481611265565b5b61148e84828501611420565b91505092915050565b60008115159050919050565b6114ac81611497565b82525050565b60006020820190506114c760008301846114a3565b92915050565b6000819050919050565b6114e0816114cd565b81146114eb57600080fd5b50565b6000813590506114fd816114d7565b92915050565b6000806040838503121561151a57611519611260565b5b6000611528858286016114ee565b9250506020611539858286016112b3565b9150509250929050565b600081905092915050565b7f41444d494e000000000000000000000000000000000000000000000000000000600082015250565b6000611584600583611543565b915061158f8261154e565b600582019050919050565b60006115a582611577565b9150819050919050565b600082825260208201905092915050565b7f6e6f7420617574686f72697a6564000000000000000000000000000000000000600082015250565b60006115f6600e836115af565b9150611601826115c0565b602082019050919050565b60006020820190508181036000830152611625816115e9565b9050919050565b7f494e5354525543544f5200000000000000000000000000000000000000000000600082015250565b6000611662600a83611543565b915061166d8261162c565b600a82019050919050565b600061168382611655565b9150819050919050565b600081519050919050565b600081905092915050565b6000819050602082019050919050565b6116bc8161128a565b82525050565b60006116ce83836116b3565b60208301905092915050565b6000602082019050919050565b60006116f28261168d565b6116fc8185611698565b9350611707836116a3565b8060005b8381101561173857815161171f88826116c2565b975061172a836116da565b92505060018101905061170b565b5085935050505092915050565b600061175182846116e7565b915081905092915050565b7f53545544454e5400000000000000000000000000000000000000000000000000600082015250565b6000611792600783611543565b915061179d8261175c565b600782019050919050565b60006117b382611785565b9150819050919050565b7f4e487b7100000000000000000000000000000000000000000000000000000000600052603260045260246000fd5b7f4e487b7100000000000000000000000000000000000000000000000000000000600052601160045260246000fd5b6000819050919050565b60006118308261181b565b91507fffffffffffffffffffffffffffffffffffffffffffffffffffffffffffffffff8203611862576118616117ec565b5b600182019050919050565b6118768161181b565b82525050565b6000602082019050611891600083018461186d565b92915050565b7f6e6f7420616e20617574686f72697a65642073747564656e7400000000000000600082015250565b60006118cd6019836115af565b91506118d882611897565b602082019050919050565b600060208201905081810360008301526118fc816118c0565b9050919050565b60008160601b9050919050565b600061191b82611903565b9050919050565b600061192d82611910565b9050919050565b6119456119408261128a565b611922565b82525050565b60006119578284611934565b60148201915081905092915050565b7f416c72656164792061737369676e656420726f6c650000000000000000000000600082015250565b600061199c6015836115af565b91506119a782611966565b602082019050919050565b600060208201905081810360008301526119cb8161198f565b9050919050565b7f6e6f7420616e20617574686f72697a656420696e7374727563746f7200000000600082015250565b6000611a08601c836115af565b9150611a13826119d2565b602082019050919050565b60006020820190508181036000830152611a37816119fb565b9050919050565b6000611a498261181b565b9150611a548361181b565b9250817fffffffffffffffffffffffffffffffffffffffffffffffffffffffffffffffff0483118215151615611a8d57611a8c6117ec565b5b828202905092915050565b7f4e487b7100000000000000000000000000000000000000000000000000000000600052601260045260246000fd5b6000611ad28261181b565b9150611add8361181b565b925082611aed57611aec611a98565b5b828204905092915050565b6000611b038261181b565b9150611b0e8361181b565b9250827fffffffffffffffffffffffffffffffffffffffffffffffffffffffffffffffff03821115611b4357611b426117ec565b5b828201905092915050565b7f4861736820636f756e742063616e206e6f74206265207a65726f000000000000600082015250565b6000611b84601a836115af565b9150611b8f82611b4e565b602082019050919050565b60006020820190508181036000830152611bb381611b77565b9050919050565b6000819050919050565b611bd5611bd0826114cd565b611bba565b82525050565b6000819050919050565b611bf6611bf18261181b565b611bdb565b82525050565b6000611c088285611bc4565b602082019150611c188284611be5565b6020820191508190509392505050565b6000611c338261181b565b9150611c3e8361181b565b925082611c4e57611c4d611a98565b5b828206905092915050565b7f4f766572666c6f77206572726f72000000000000000000000000000000000000600082015250565b6000611c8f600e836115af565b9150611c9a82611c59565b602082019050919050565b60006020820190508181036000830152611cbe81611c82565b905091905056fea2646970667358221220d93e509b3cc6164c965dc2bfcb04b1df3d871e173e6eb93c487893565deffd2c64736f6c634300080f0033",
  "immutableReferences": {},
  "source": "//SPDX-License-Identifier: MIT\npragma solidity ^0.8.0;\n\nimport \"./BloomFilter.sol\";\n\n\ncontract AccessControl {\n    event GRANTROLE(bytes32 indexed role, address indexed account);\n    event REVOKEROLE(bytes32 indexed role, address indexed account);\n    event GROUPGRANTROLE(bytes32 indexed role, uint256 number);\n    //role => account => bool\n    mapping(bytes32 => mapping(address => bool)) public roles;\n    //bytes32 instead of string because it saves gas\n    bytes32 private constant ADMIN = keccak256(abi.encodePacked(\"ADMIN\"));\n    bytes32 private constant STUDENT = keccak256(abi.encodePacked(\"STUDENT\"));\n    bytes32 private constant INSTRUCTOR = keccak256(abi.encodePacked(\"INSTRUCTOR\"));\n\n    using BloomFilter for BloomFilter.Filter;\n    BloomFilter.Filter filter;\n\n    modifier onlyRole(bytes32 _role) {\n            require(roles[_role][msg.sender], \"not authorized\");\n            _;\n    }\n\n    constructor() {\n        _grantRole(ADMIN, msg.sender);\n        filter.init(100);\n    }\n\n    function _grantRole(bytes32 _role, address _account) internal {\n        roles[_role][_account] = true;\n        emit GRANTROLE(_role, _account);\n    }\n\n    function _grantStuRoleArr(address[] memory _account) external onlyRole(ADMIN){\n        uint i = 0;\n        uint size = _account.length;\n        \n        while(i < size){\n             bytes32 key = keccak256(abi.encodePacked(_account));\n             filter.add(key);\n             bool falsePositive = filter.check(key);\n             if(roles[STUDENT][_account[i]] == false){\n                roles[STUDENT][_account[i]] = true;\n                emit GRANTROLE(STUDENT, _account[i]);\n             }\n            ++i;\n        }\n        emit GROUPGRANTROLE(STUDENT, size);\n    }\n\n\n    function grantAdminRole() external {\n        _grantRole(ADMIN, msg.sender);\n    }\n\n    function grantStudRole(address _account) external onlyRole(ADMIN) {\n        bytes32 key = keccak256(abi.encodePacked(_account));\n        filter.add(key);\n        bool falsePositive = filter.check(key);\n        require(roles[STUDENT][_account] == false, \"Already assigned role\");\n        _grantRole(STUDENT, _account);\n    }\n\n     function revokeStudRole(address _account) external onlyRole(ADMIN) {\n        roles[STUDENT][_account] = false;\n        emit REVOKEROLE(STUDENT, _account);\n    }\n \n    function grantInstrRole(address _account) external onlyRole(ADMIN) {\n        _grantRole(INSTRUCTOR, _account);\n    }\n\n     function revokeInstrRole(address _account) external onlyRole(ADMIN) {\n        roles[INSTRUCTOR][_account] = false;\n        emit REVOKEROLE(INSTRUCTOR, _account);\n    }\n\n    function hasStudRole() external view {\n        require(roles[STUDENT][msg.sender], \"not an authorized student\");\n    }\n\n    function hasInstrRole() external view {\n        require(roles[INSTRUCTOR][msg.sender], \"not an authorized instructor\");\n    }\n\n    function hasInstrRoleWADD(address _instradd) external view returns(bool) {\n        return roles[INSTRUCTOR][_instradd];\n    }\n\n    function hasStudRoleWADD(address _studaddr) external view returns(bool) {\n        return roles[STUDENT][_studaddr];\n    }\n\n}",
  "sourcePath": "/home/jarvis/projects/mtech_proj-main/contracts/AccessControl.sol",
  "compiler": {
    "name": "solc",
    "version": "0.8.15+commit.e14f2714.Emscripten.clang"
  },
  "schemaVersion": "3.4.8",
  "updatedAt": "2023-03-23T09:51:27.863Z",
  "networkType": "ethereum",
  "devdoc": {
    "kind": "dev",
    "methods": {},
    "version": 1
  },
  "userdoc": {
    "kind": "user",
    "methods": {},
    "version": 1
  }
}