{
  "contractName": "CourseRecommender",
  "abi": [
    {
      "inputs": [
        {
          "internalType": "address",
          "name": "",
          "type": "address"
        },
        {
          "internalType": "uint256",
          "name": "",
          "type": "uint256"
        }
      ],
      "name": "ratedCourses",
      "outputs": [
        {
          "internalType": "uint256",
          "name": "",
          "type": "uint256"
        }
      ],
      "stateMutability": "view",
      "type": "function",
      "constant": true
    },
    {
      "inputs": [
        {
          "internalType": "address",
          "name": "",
          "type": "address"
        },
        {
          "internalType": "uint256",
          "name": "",
          "type": "uint256"
        }
      ],
      "name": "ratings",
      "outputs": [
        {
          "internalType": "uint256",
          "name": "rating",
          "type": "uint256"
        },
        {
          "internalType": "bool",
          "name": "exists",
          "type": "bool"
        }
      ],
      "stateMutability": "view",
      "type": "function",
      "constant": true
    },
    {
      "inputs": [
        {
          "internalType": "uint256",
          "name": "courseId",
          "type": "uint256"
        },
        {
          "internalType": "uint256",
          "name": "rating",
          "type": "uint256"
        }
      ],
      "name": "rateCourse",
      "outputs": [],
      "stateMutability": "nonpayable",
      "type": "function"
    },
    {
      "inputs": [],
      "name": "getRecommendations",
      "outputs": [
        {
          "internalType": "uint256[]",
          "name": "",
          "type": "uint256[]"
        }
      ],
      "stateMutability": "nonpayable",
      "type": "function"
    }
  ],
  "bytecode": "0x608060405234801561001057600080fd5b50611549806100206000396000f3fe608060405234801561001057600080fd5b506004361061004c5760003560e01c80632a0e54bd14610051578063354261da14610082578063759f78da1461009e578063e436cf10146100bc575b600080fd5b61006b60048036038101906100669190611043565b6100ec565b6040516100799291906110ad565b60405180910390f35b61009c600480360381019061009791906110d6565b61012a565b005b6100a6610322565b6040516100b391906111d4565b60405180910390f35b6100d660048036038101906100d19190611043565b6107d7565b6040516100e391906111f6565b60405180910390f35b6000602052816000526040600020602052806000526040600020600091509150508060000154908060010160009054906101000a900460ff16905082565b6000821161016d576040517f08c379a00000000000000000000000000000000000000000000000000000000081526004016101649061126e565b60405180910390fd5b6001811015801561017f575060058111155b6101be576040517f08c379a00000000000000000000000000000000000000000000000000000000081526004016101b5906112da565b60405180910390fd5b60008060003373ffffffffffffffffffffffffffffffffffffffff1673ffffffffffffffffffffffffffffffffffffffff168152602001908152602001600020600084815260200190815260200160002090508060010160009054906101000a900460ff1661028e57600160003373ffffffffffffffffffffffffffffffffffffffff1673ffffffffffffffffffffffffffffffffffffffff1681526020019081526020016000208390806001815401808255809150506001900390600052602060002001600090919091909150555b81816000018190555060018160010160006101000a81548160ff02191690831515021790555060016002600085815260200190815260200160002060003373ffffffffffffffffffffffffffffffffffffffff1673ffffffffffffffffffffffffffffffffffffffff16815260200190815260200160002060006101000a81548160ff021916908315150217905550505050565b60606000600360003373ffffffffffffffffffffffffffffffffffffffff1673ffffffffffffffffffffffffffffffffffffffff16815260200190815260200160002090506000818054905003610781576000600160003373ffffffffffffffffffffffffffffffffffffffff1673ffffffffffffffffffffffffffffffffffffffff1681526020019081526020016000208054905067ffffffffffffffff8111156103d1576103d06112fa565b5b6040519080825280602002602001820160405280156103ff5781602001602082028036833780820191505090505b50905060005b600160003373ffffffffffffffffffffffffffffffffffffffff1673ffffffffffffffffffffffffffffffffffffffff168152602001908152602001600020805490508110156106b7576000600160003373ffffffffffffffffffffffffffffffffffffffff1673ffffffffffffffffffffffffffffffffffffffff16815260200190815260200160002082815481106104a2576104a1611329565b5b9060005260206000200154905060006104ba82610808565b905060005b81518110156106a15760008282815181106104dd576104dc611329565b5b602002602001015190503373ffffffffffffffffffffffffffffffffffffffff168173ffffffffffffffffffffffffffffffffffffffff161415801561057f57506000808273ffffffffffffffffffffffffffffffffffffffff1673ffffffffffffffffffffffffffffffffffffffff168152602001908152602001600020600085815260200190815260200160002060010160009054906101000a900460ff165b1561068d5760006105903383610a56565b9050808787815181106105a6576105a5611329565b5b602002602001018181516105ba9190611387565b915081815250508760009080600181540180825580915050600190039060005260206000200160009091909190915055806000808473ffffffffffffffffffffffffffffffffffffffff1673ffffffffffffffffffffffffffffffffffffffff16815260200190815260200160002060008781526020019081526020016000206000015461064891906113dd565b8860018a8054905061065a9190611437565b8154811061066b5761066a611329565b5b9060005260206000200160008282546106849190611387565b92505081905550505b5080806106999061146b565b9150506104bf565b50505080806106af9061146b565b915050610405565b5060005b82805490508110156107755781600160003373ffffffffffffffffffffffffffffffffffffffff1673ffffffffffffffffffffffffffffffffffffffff168152602001908152602001600020805490508261071691906114e2565b8151811061072757610726611329565b5b602002602001015183828154811061074257610741611329565b5b90600052602060002001600082825461075b91906114e2565b92505081905550808061076d9061146b565b9150506106bb565b5061077f82610cb9565b505b808054806020026020016040519081016040528092919081815260200182805480156107cc57602002820191906000526020600020905b8154815260200190600101908083116107b8575b505050505091505090565b600160205281600052604060002081815481106107f357600080fd5b90600052602060002001600091509150505481565b60606000805b600160003373ffffffffffffffffffffffffffffffffffffffff1673ffffffffffffffffffffffffffffffffffffffff168152602001908152602001600020805490508110156108dc5783600160003373ffffffffffffffffffffffffffffffffffffffff1673ffffffffffffffffffffffffffffffffffffffff16815260200190815260200160002082815481106108aa576108a9611329565b5b9060005260206000200154036108c95781806108c59061146b565b9250505b80806108d49061146b565b91505061080e565b5060008167ffffffffffffffff8111156108f9576108f86112fa565b5b6040519080825280602002602001820160405280156109275781602001602082028036833780820191505090505b5090506000805b600160003373ffffffffffffffffffffffffffffffffffffffff1673ffffffffffffffffffffffffffffffffffffffff16815260200190815260200160002080549050811015610a4a5785600160003373ffffffffffffffffffffffffffffffffffffffff1673ffffffffffffffffffffffffffffffffffffffff16815260200190815260200160002082815481106109ca576109c9611329565b5b906000526020600020015403610a3757338383815181106109ee576109ed611329565b5b602002602001019073ffffffffffffffffffffffffffffffffffffffff16908173ffffffffffffffffffffffffffffffffffffffff16815250508180610a339061146b565b9250505b8080610a429061146b565b91505061092e565b50819350505050919050565b600080600090506000805b600160008773ffffffffffffffffffffffffffffffffffffffff1673ffffffffffffffffffffffffffffffffffffffff16815260200190815260200160002080549050811015610c50576000600160008873ffffffffffffffffffffffffffffffffffffffff1673ffffffffffffffffffffffffffffffffffffffff1681526020019081526020016000208281548110610afe57610afd611329565b5b906000526020600020015490506000808773ffffffffffffffffffffffffffffffffffffffff1673ffffffffffffffffffffffffffffffffffffffff168152602001908152602001600020600082815260200190815260200160002060010160009054906101000a900460ff1615610c3c576000808773ffffffffffffffffffffffffffffffffffffffff1673ffffffffffffffffffffffffffffffffffffffff1681526020019081526020016000206000828152602001908152602001600020600001546000808973ffffffffffffffffffffffffffffffffffffffff1673ffffffffffffffffffffffffffffffffffffffff168152602001908152602001600020600083815260200190815260200160002060000154610c2091906113dd565b84610c2b9190611387565b93508280610c389061146b565b9350505b508080610c489061146b565b915050610a61565b5060008103610c6457600092505050610cb3565b6000610c6f85610de6565b610c7887610de6565b610c8291906113dd565b905060008114610caa578061271084610c9b91906113dd565b610ca591906114e2565b610cad565b60005b93505050505b92915050565b60005b60018280549050610ccd9190611437565b811015610de2576000600182610ce39190611387565b90505b8280549050811015610dce57828281548110610d0557610d04611329565b5b9060005260206000200154838281548110610d2357610d22611329565b5b90600052602060002001541115610dbb57828181548110610d4757610d46611329565b5b9060005260206000200154838381548110610d6557610d64611329565b5b9060005260206000200154848481548110610d8357610d82611329565b5b906000526020600020016000868581548110610da257610da1611329565b5b9060005260206000200160008491905055839190505550505b8080610dc69061146b565b915050610ce6565b508080610dda9061146b565b915050610cbc565b5050565b6000806000905060005b600160008573ffffffffffffffffffffffffffffffffffffffff1673ffffffffffffffffffffffffffffffffffffffff16815260200190815260200160002080549050811015610f3b576000600160008673ffffffffffffffffffffffffffffffffffffffff1673ffffffffffffffffffffffffffffffffffffffff1681526020019081526020016000208281548110610e8d57610e8c611329565b5b9060005260206000200154905060008060008773ffffffffffffffffffffffffffffffffffffffff1673ffffffffffffffffffffffffffffffffffffffff168152602001908152602001600020600083815260200190815260200160002090508060010160009054906101000a900460ff1615610f265780600001548160000154610f1891906113dd565b84610f239190611387565b93505b50508080610f339061146b565b915050610df0565b50610f4581610f4d565b915050919050565b6000806002600184610f5f9190611387565b610f6991906114e2565b90508291505b81811015610fa4578091506002818285610f8991906114e2565b610f939190611387565b610f9d91906114e2565b9050610f6f565b50919050565b600080fd5b600073ffffffffffffffffffffffffffffffffffffffff82169050919050565b6000610fda82610faf565b9050919050565b610fea81610fcf565b8114610ff557600080fd5b50565b60008135905061100781610fe1565b92915050565b6000819050919050565b6110208161100d565b811461102b57600080fd5b50565b60008135905061103d81611017565b92915050565b6000806040838503121561105a57611059610faa565b5b600061106885828601610ff8565b92505060206110798582860161102e565b9150509250929050565b61108c8161100d565b82525050565b60008115159050919050565b6110a781611092565b82525050565b60006040820190506110c26000830185611083565b6110cf602083018461109e565b9392505050565b600080604083850312156110ed576110ec610faa565b5b60006110fb8582860161102e565b925050602061110c8582860161102e565b9150509250929050565b600081519050919050565b600082825260208201905092915050565b6000819050602082019050919050565b61114b8161100d565b82525050565b600061115d8383611142565b60208301905092915050565b6000602082019050919050565b600061118182611116565b61118b8185611121565b935061119683611132565b8060005b838110156111c75781516111ae8882611151565b97506111b983611169565b92505060018101905061119a565b5085935050505092915050565b600060208201905081810360008301526111ee8184611176565b905092915050565b600060208201905061120b6000830184611083565b92915050565b600082825260208201905092915050565b7f496e76616c696420636f75727365206964000000000000000000000000000000600082015250565b6000611258601183611211565b915061126382611222565b602082019050919050565b600060208201905081810360008301526112878161124b565b9050919050565b7f496e76616c696420726174696e67000000000000000000000000000000000000600082015250565b60006112c4600e83611211565b91506112cf8261128e565b602082019050919050565b600060208201905081810360008301526112f3816112b7565b9050919050565b7f4e487b7100000000000000000000000000000000000000000000000000000000600052604160045260246000fd5b7f4e487b7100000000000000000000000000000000000000000000000000000000600052603260045260246000fd5b7f4e487b7100000000000000000000000000000000000000000000000000000000600052601160045260246000fd5b60006113928261100d565b915061139d8361100d565b9250827fffffffffffffffffffffffffffffffffffffffffffffffffffffffffffffffff038211156113d2576113d1611358565b5b828201905092915050565b60006113e88261100d565b91506113f38361100d565b9250817fffffffffffffffffffffffffffffffffffffffffffffffffffffffffffffffff048311821515161561142c5761142b611358565b5b828202905092915050565b60006114428261100d565b915061144d8361100d565b9250828210156114605761145f611358565b5b828203905092915050565b60006114768261100d565b91507fffffffffffffffffffffffffffffffffffffffffffffffffffffffffffffffff82036114a8576114a7611358565b5b600182019050919050565b7f4e487b7100000000000000000000000000000000000000000000000000000000600052601260045260246000fd5b60006114ed8261100d565b91506114f88361100d565b925082611508576115076114b3565b5b82820490509291505056fea26469706673582212203183db801c08e1992264ad6617472d4a3a475a74f6f38cf38023319d59851e0f64736f6c634300080f0033",
  "immutableReferences": {},
  "source": "//SPDX-License-Identifier: MIT\npragma solidity ^0.8.0;\n\ncontract CourseRecommender {\n    \n    struct Rating {\n        uint256 rating;\n        bool exists;\n    }\n    \n    mapping(address => mapping(uint256 => Rating)) public ratings;\n    mapping(address => uint256[]) public ratedCourses;\n    mapping(uint256 => mapping(address => bool)) private courseRaters;\n    mapping(address => uint256[]) private recommendations;\n    \n    function rateCourse(uint256 courseId, uint256 rating) public {\n        require(courseId > 0, \"Invalid course id\");\n        require(rating >= 1 && rating <= 5, \"Invalid rating\");\n        \n        Rating storage userRating = ratings[msg.sender][courseId];\n        if (!userRating.exists) {\n            ratedCourses[msg.sender].push(courseId);\n        }\n        userRating.rating = rating;\n        userRating.exists = true;\n        \n        courseRaters[courseId][msg.sender] = true;\n    }\n    \n    function getRecommendations() public returns (uint256[] memory) {\n        uint256[] storage recs = recommendations[msg.sender];\n        if (recs.length == 0) {\n            uint256[] memory similarities = new uint256[](ratedCourses[msg.sender].length);\n            for (uint256 i = 0; i < ratedCourses[msg.sender].length; i++) {\n                uint256 courseId = ratedCourses[msg.sender][i];\n                address[] memory raters = getCourseRaters(courseId);\n                for (uint256 j = 0; j < raters.length; j++) {\n                    address rater = raters[j];\n                    if (rater != msg.sender && ratings[rater][courseId].exists) {\n                        uint256 similarity = getSimilarity(msg.sender, rater);\n                        similarities[i] += similarity;\n                        recs.push(0); // initialize the recommended rating for this course\n                        recs[recs.length - 1] += ratings[rater][courseId].rating * similarity; // update the recommended rating for this course\n                    }\n                }\n            }\n            for (uint256 i = 0; i < recs.length; i++) {\n                recs[i] /= similarities[i / ratedCourses[msg.sender].length]; // normalize the recommended ratings\n            }\n            sortRecommendations(recs);\n        }\n        return recs;\n    }\n    \n    function getCourseRaters(uint256 courseId) private view returns (address[] memory) {\n        uint256 len = 0;\n        for (uint256 i = 0; i < ratedCourses[msg.sender].length; i++) {\n            if (ratedCourses[msg.sender][i] == courseId) {\n                len++;\n            }\n        }\n        address[] memory result = new address[](len);\n        uint256 index = 0;\n        for (uint256 i = 0; i < ratedCourses[msg.sender].length; i++) {\n            if (ratedCourses[msg.sender][i] == courseId) {\n                result[index] = address(msg.sender);\n                index++;\n            }\n        }\n        return result;\n    }\n    \n    function getSimilarity(address a, address b) private view returns (uint256) {\n        uint256 similarity = 0;\n        uint256 numRatings = 0;\n        for (uint256 i = 0; i < ratedCourses[a].length; i++) {\n            uint256 courseId = ratedCourses[a][i];\n            if (ratings[b][courseId].exists) {\n                similarity += ratings[a][courseId].rating * ratings[b][courseId].rating;\n                numRatings++;\n            }\n        }\n        if (numRatings == 0) {\n            return 0;\n    } else {\n        uint256 denominator = getMagnitude(a) * getMagnitude(b);\n        return denominator == 0 ? 0 : (similarity * 10000) / denominator;\n    }\n}\n\nfunction getMagnitude(address user) private view returns (uint256) {\n    uint256 magnitude = 0;\n    for (uint256 i = 0; i < ratedCourses[user].length; i++) {\n        uint256 courseId = ratedCourses[user][i];\n        Rating storage rating = ratings[user][courseId];\n        if (rating.exists) {\n            magnitude += rating.rating * rating.rating;\n        }\n    }\n    return sqrt(magnitude);\n}\n\nfunction sortRecommendations(uint256[] storage recs) private {\n    for (uint256 i = 0; i < recs.length - 1; i++) {\n        for (uint256 j = i + 1; j < recs.length; j++) {\n            if (recs[j] > recs[i]) {\n                (recs[i], recs[j]) = (recs[j], recs[i]);\n            }\n        }\n    }\n}\n\nfunction sqrt(uint256 x) private pure returns (uint256 y) {\n    uint256 z = (x + 1) / 2;\n    y = x;\n    while (z < y) {\n        y = z;\n        z = (x / z + z) / 2;\n    }\n}\n}\n",
  "sourcePath": "/home/jarvis/projects/mtech_proj-main/contracts/CourseRecommender.sol",
  "compiler": {
    "name": "solc",
    "version": "0.8.15+commit.e14f2714.Emscripten.clang"
  },
  "schemaVersion": "3.4.8",
  "updatedAt": "2023-03-23T09:51:27.906Z",
  "networkType": "ethereum",
  "devdoc": {
    "kind": "dev",
    "methods": {},
    "version": 1
  },
  "userdoc": {
    "kind": "user",
    "methods": {},
    "version": 1
  }
}