{
  "contractName": "Courseblocks",
  "abi": [
    {
      "inputs": [],
      "name": "courseCount",
      "outputs": [
        {
          "internalType": "int256",
          "name": "",
          "type": "int256"
        }
      ],
      "stateMutability": "view",
      "type": "function",
      "constant": true
    },
    {
      "inputs": [
        {
          "internalType": "string",
          "name": "n",
          "type": "string"
        },
        {
          "internalType": "string",
          "name": "desc",
          "type": "string"
        },
        {
          "internalType": "string",
          "name": "auth",
          "type": "string"
        },
        {
          "internalType": "uint256",
          "name": "p",
          "type": "uint256"
        },
        {
          "internalType": "int256",
          "name": "d",
          "type": "int256"
        },
        {
          "internalType": "address",
          "name": "e_id",
          "type": "address"
        }
      ],
      "name": "addCourse",
      "outputs": [],
      "stateMutability": "nonpayable",
      "type": "function"
    },
    {
      "inputs": [
        {
          "internalType": "address",
          "name": "s_id",
          "type": "address"
        },
        {
          "internalType": "int256",
          "name": "c_id",
          "type": "int256"
        },
        {
          "internalType": "int256",
          "name": "_time",
          "type": "int256"
        }
      ],
      "name": "buyCourse",
      "outputs": [],
      "stateMutability": "nonpayable",
      "type": "function"
    },
    {
      "inputs": [
        {
          "internalType": "address",
          "name": "s_id",
          "type": "address"
        },
        {
          "internalType": "int256",
          "name": "c_id",
          "type": "int256"
        }
      ],
      "name": "boughtornot",
      "outputs": [
        {
          "internalType": "bool",
          "name": "",
          "type": "bool"
        }
      ],
      "stateMutability": "view",
      "type": "function",
      "constant": true
    },
    {
      "inputs": [
        {
          "internalType": "int256",
          "name": "c_id",
          "type": "int256"
        }
      ],
      "name": "getauthID",
      "outputs": [
        {
          "internalType": "address",
          "name": "",
          "type": "address"
        }
      ],
      "stateMutability": "view",
      "type": "function",
      "constant": true
    },
    {
      "inputs": [
        {
          "internalType": "address",
          "name": "s_id",
          "type": "address"
        },
        {
          "internalType": "int256",
          "name": "c_id",
          "type": "int256"
        },
        {
          "internalType": "int256",
          "name": "_m",
          "type": "int256"
        }
      ],
      "name": "reviewAssignment",
      "outputs": [
        {
          "internalType": "uint256",
          "name": "",
          "type": "uint256"
        }
      ],
      "stateMutability": "nonpayable",
      "type": "function"
    },
    {
      "inputs": [
        {
          "internalType": "address",
          "name": "s_id",
          "type": "address"
        },
        {
          "internalType": "int256",
          "name": "c_id",
          "type": "int256"
        },
        {
          "internalType": "int256",
          "name": "_time",
          "type": "int256"
        }
      ],
      "name": "submitAssignment",
      "outputs": [
        {
          "internalType": "bool",
          "name": "bol",
          "type": "bool"
        }
      ],
      "stateMutability": "nonpayable",
      "type": "function"
    },
    {
      "inputs": [
        {
          "internalType": "int256",
          "name": "_id",
          "type": "int256"
        }
      ],
      "name": "getCourse",
      "outputs": [
        {
          "components": [
            {
              "internalType": "int256",
              "name": "id",
              "type": "int256"
            },
            {
              "internalType": "string",
              "name": "name",
              "type": "string"
            },
            {
              "internalType": "string",
              "name": "description",
              "type": "string"
            },
            {
              "internalType": "string",
              "name": "author_name",
              "type": "string"
            },
            {
              "internalType": "address",
              "name": "author_id",
              "type": "address"
            },
            {
              "internalType": "uint256",
              "name": "price",
              "type": "uint256"
            },
            {
              "internalType": "int256",
              "name": "users",
              "type": "int256"
            },
            {
              "internalType": "int256",
              "name": "deadline",
              "type": "int256"
            },
            {
              "internalType": "string",
              "name": "thumbnail_hash",
              "type": "string"
            },
            {
              "internalType": "string",
              "name": "file_hash",
              "type": "string"
            },
            {
              "internalType": "string[]",
              "name": "assignment_hash",
              "type": "string[]"
            }
          ],
          "internalType": "struct Courseblocks.Course",
          "name": "",
          "type": "tuple"
        }
      ],
      "stateMutability": "view",
      "type": "function",
      "constant": true
    },
    {
      "inputs": [
        {
          "internalType": "address",
          "name": "s_id",
          "type": "address"
        },
        {
          "internalType": "uint256",
          "name": "idx",
          "type": "uint256"
        }
      ],
      "name": "getCourseIds",
      "outputs": [
        {
          "internalType": "int256",
          "name": "",
          "type": "int256"
        }
      ],
      "stateMutability": "view",
      "type": "function",
      "constant": true
    },
    {
      "inputs": [
        {
          "internalType": "address",
          "name": "s_id",
          "type": "address"
        }
      ],
      "name": "getNoCoursesBought",
      "outputs": [
        {
          "internalType": "uint256",
          "name": "",
          "type": "uint256"
        }
      ],
      "stateMutability": "view",
      "type": "function",
      "constant": true
    },
    {
      "inputs": [],
      "name": "getCourseCount",
      "outputs": [
        {
          "internalType": "int256",
          "name": "",
          "type": "int256"
        }
      ],
      "stateMutability": "view",
      "type": "function",
      "constant": true
    },
    {
      "inputs": [
        {
          "internalType": "string",
          "name": "_hash",
          "type": "string"
        }
      ],
      "name": "setThumbhash",
      "outputs": [
        {
          "internalType": "string",
          "name": "",
          "type": "string"
        }
      ],
      "stateMutability": "nonpayable",
      "type": "function"
    },
    {
      "inputs": [
        {
          "internalType": "int256",
          "name": "c_id",
          "type": "int256"
        }
      ],
      "name": "getThumbHash",
      "outputs": [
        {
          "internalType": "string",
          "name": "",
          "type": "string"
        }
      ],
      "stateMutability": "view",
      "type": "function",
      "constant": true
    },
    {
      "inputs": [
        {
          "internalType": "string",
          "name": "_hash",
          "type": "string"
        }
      ],
      "name": "setFilehash",
      "outputs": [
        {
          "internalType": "string",
          "name": "",
          "type": "string"
        }
      ],
      "stateMutability": "nonpayable",
      "type": "function"
    },
    {
      "inputs": [
        {
          "internalType": "int256",
          "name": "c_id",
          "type": "int256"
        }
      ],
      "name": "getFileHash",
      "outputs": [
        {
          "internalType": "string",
          "name": "",
          "type": "string"
        }
      ],
      "stateMutability": "view",
      "type": "function",
      "constant": true
    },
    {
      "inputs": [
        {
          "internalType": "int256",
          "name": "c_id",
          "type": "int256"
        }
      ],
      "name": "getName",
      "outputs": [
        {
          "internalType": "string",
          "name": "",
          "type": "string"
        }
      ],
      "stateMutability": "view",
      "type": "function",
      "constant": true
    },
    {
      "inputs": [
        {
          "internalType": "int256",
          "name": "c_id",
          "type": "int256"
        }
      ],
      "name": "getDesc",
      "outputs": [
        {
          "internalType": "string",
          "name": "",
          "type": "string"
        }
      ],
      "stateMutability": "view",
      "type": "function",
      "constant": true
    },
    {
      "inputs": [
        {
          "internalType": "int256",
          "name": "c_id",
          "type": "int256"
        }
      ],
      "name": "getAuthName",
      "outputs": [
        {
          "internalType": "string",
          "name": "",
          "type": "string"
        }
      ],
      "stateMutability": "view",
      "type": "function",
      "constant": true
    },
    {
      "inputs": [
        {
          "internalType": "int256",
          "name": "c_id",
          "type": "int256"
        }
      ],
      "name": "getUsers",
      "outputs": [
        {
          "internalType": "int256",
          "name": "",
          "type": "int256"
        }
      ],
      "stateMutability": "view",
      "type": "function",
      "constant": true
    },
    {
      "inputs": [
        {
          "internalType": "int256",
          "name": "c_id",
          "type": "int256"
        }
      ],
      "name": "getPrice",
      "outputs": [
        {
          "internalType": "uint256",
          "name": "",
          "type": "uint256"
        }
      ],
      "stateMutability": "view",
      "type": "function",
      "constant": true
    },
    {
      "inputs": [
        {
          "internalType": "string",
          "name": "_hash",
          "type": "string"
        }
      ],
      "name": "setAssignmentHash",
      "outputs": [
        {
          "internalType": "string",
          "name": "",
          "type": "string"
        }
      ],
      "stateMutability": "nonpayable",
      "type": "function"
    },
    {
      "inputs": [
        {
          "internalType": "int256",
          "name": "c_id",
          "type": "int256"
        }
      ],
      "name": "getAssignmentHash",
      "outputs": [
        {
          "internalType": "string",
          "name": "",
          "type": "string"
        }
      ],
      "stateMutability": "view",
      "type": "function",
      "constant": true
    },
    {
      "inputs": [
        {
          "internalType": "int256",
          "name": "c_id",
          "type": "int256"
        }
      ],
      "name": "getNoAssignments",
      "outputs": [
        {
          "internalType": "uint256",
          "name": "",
          "type": "uint256"
        }
      ],
      "stateMutability": "view",
      "type": "function",
      "constant": true
    }
  ],
  "bytecode": "0x608060405234801561001057600080fd5b50612a46806100206000396000f3fe608060405234801561001057600080fd5b506004361061014d5760003560e01c806360236b0b116100c3578063bc42b4141161007c578063bc42b41414610436578063c839e9b514610466578063cd4f6f7e14610496578063d9111738146104c6578063ee301cfd146104f6578063f2227bb3146105265761014d565b806360236b0b1461033a578063660551591461036a5780637222ccec146103885780638511a2ae146103b857806396cfda06146103e8578063a0bc49b7146104065761014d565b80633c9dabcd116101155780633c9dabcd1461022e578063448aa40e1461025e5780634b9c199f1461028e5780635b462aa1146102aa5780635dd18412146102da5780635f8e5eab1461030a5761014d565b8063011e9afd1461015257806321ba0055146101825780632bef66e2146101b257806333a8befa146101e2578063372bf860146101fe575b600080fd5b61016c60048036038101906101679190611b91565b610556565b6040516101799190611bea565b60405180910390f35b61019c60048036038101906101979190611d4b565b6105bf565b6040516101a99190611e1c565b60405180910390f35b6101cc60048036038101906101c79190611e6a565b610624565b6040516101d99190611e1c565b60405180910390f35b6101fc60048036038101906101f79190611e97565b6106cc565b005b61021860048036038101906102139190611e6a565b6108c6565b6040516102259190611e1c565b60405180910390f35b61024860048036038101906102439190611e6a565b61096e565b6040516102559190611bea565b60405180910390f35b61027860048036038101906102739190611e6a565b61098e565b6040516102859190611e1c565b60405180910390f35b6102a860048036038101906102a39190611eea565b610a36565b005b6102c460048036038101906102bf9190611e6a565b610d72565b6040516102d19190611e1c565b60405180910390f35b6102f460048036038101906102ef9190611fcb565b610e37565b6040516103019190612007565b60405180910390f35b610324600480360381019061031f9190611d4b565b610e86565b6040516103319190611e1c565b60405180910390f35b610354600480360381019061034f9190611d4b565b610f10565b6040516103619190611e1c565b60405180910390f35b610372610f75565b60405161037f9190611bea565b60405180910390f35b6103a2600480360381019061039d9190611e97565b610f7b565b6040516103af9190612007565b60405180910390f35b6103d260048036038101906103cd9190611e97565b611135565b6040516103df919061203d565b60405180910390f35b6103f06112f4565b6040516103fd9190611bea565b60405180910390f35b610420600480360381019061041b9190611e6a565b6112fe565b60405161042d9190612007565b60405180910390f35b610450600480360381019061044b9190611e6a565b611321565b60405161045d9190611e1c565b60405180910390f35b610480600480360381019061047b9190611e6a565b6113c9565b60405161048d91906122a3565b60405180910390f35b6104b060048036038101906104ab91906122c5565b611828565b6040516104bd919061203d565b60405180910390f35b6104e060048036038101906104db9190611e6a565b611893565b6040516104ed9190612007565b60405180910390f35b610510600480360381019061050b9190611e6a565b6118b3565b60405161051d9190611e1c565b60405180910390f35b610540600480360381019061053b9190611e6a565b61195b565b60405161054d9190612314565b60405180910390f35b6000600460008473ffffffffffffffffffffffffffffffffffffffff1673ffffffffffffffffffffffffffffffffffffffff16815260200190815260200160002060000182815481106105ac576105ab61232f565b5b9060005260206000200154905092915050565b60608160036000600254815260200190815260200160002060090190816105e6919061256a565b506040518060400160405280601c81526020017f495046532068617368206164646564207375636365737366756c6c79000000008152509050919050565b60606003600083815260200190815260200160002060080180546106479061238d565b80601f01602080910402602001604051908101604052809291908181526020018280546106739061238d565b80156106c05780601f10610695576101008083540402835291602001916106c0565b820191906000526020600020905b8154815290600101906020018083116106a357829003601f168201915b50505050509050919050565b6003600083815260200190815260200160002060060160008154809291906106f39061266b565b9190505550600460008473ffffffffffffffffffffffffffffffffffffffff1673ffffffffffffffffffffffffffffffffffffffff168152602001908152602001600020600001829080600181540180825580915050600190039060005260206000200160009091909190915055600460008473ffffffffffffffffffffffffffffffffffffffff1673ffffffffffffffffffffffffffffffffffffffff1681526020019081526020016000206001018160036000858152602001908152602001600020600701546107c591906126b3565b9080600181540180825580915050600190039060005260206000200160009091909190915055600460008473ffffffffffffffffffffffffffffffffffffffff1673ffffffffffffffffffffffffffffffffffffffff168152602001908152602001600020600201600090806001815401808255809150506001900390600052602060002001600090919091909150556001600460008573ffffffffffffffffffffffffffffffffffffffff1673ffffffffffffffffffffffffffffffffffffffff168152602001908152602001600020600301600084815260200190815260200160002060006101000a81548160ff021916908315150217905550505050565b60606003600083815260200190815260200160002060030180546108e99061238d565b80601f01602080910402602001604051908101604052809291908181526020018280546109159061238d565b80156109625780601f1061093757610100808354040283529160200191610962565b820191906000526020600020905b81548152906001019060200180831161094557829003601f168201915b50505050509050919050565b600060036000838152602001908152602001600020600601549050919050565b60606003600083815260200190815260200160002060010180546109b19061238d565b80601f01602080910402602001604051908101604052809291908181526020018280546109dd9061238d565b8015610a2a5780601f106109ff57610100808354040283529160200191610a2a565b820191906000526020600020905b815481529060010190602001808311610a0d57829003601f168201915b50505050509050919050565b60025460036000600254815260200190815260200160002060000181905550856003600060025481526020019081526020016000206001019081610a7a919061256a565b50846003600060025481526020019081526020016000206002019081610aa0919061256a565b50836003600060025481526020019081526020016000206003019081610ac6919061256a565b508060036000600254815260200190815260200160002060040160006101000a81548173ffffffffffffffffffffffffffffffffffffffff021916908373ffffffffffffffffffffffffffffffffffffffff16021790555082600360006002548152602001908152602001600020600501819055506000600360006002548152602001908152602001600020600601819055506201518082610b689190612747565b60036000600254815260200190815260200160002060070181905550600360006002548152602001908152602001600020600660008373ffffffffffffffffffffffffffffffffffffffff1673ffffffffffffffffffffffffffffffffffffffff168152602001908152602001600020600060025481526020019081526020016000206000820154816000015560018201816001019081610c099190612874565b5060028201816002019081610c1e9190612874565b5060038201816003019081610c339190612874565b506004820160009054906101000a900473ffffffffffffffffffffffffffffffffffffffff168160040160006101000a81548173ffffffffffffffffffffffffffffffffffffffff021916908373ffffffffffffffffffffffffffffffffffffffff16021790555060058201548160050155600682015481600601556007820154816007015560088201816008019081610ccd9190612874565b5060098201816009019081610ce29190612874565b50600a820181600a01908054610cf992919061199b565b50905050600760008273ffffffffffffffffffffffffffffffffffffffff1673ffffffffffffffffffffffffffffffffffffffff1681526020019081526020016000206000815480929190610d4d9061266b565b919050555060026000815480929190610d659061266b565b9190505550505050505050565b606060036000838152602001908152602001600020600a01600081548110610d9d57610d9c61232f565b5b906000526020600020018054610db29061238d565b80601f0160208091040260200160405190810160405280929190818152602001828054610dde9061238d565b8015610e2b5780601f10610e0057610100808354040283529160200191610e2b565b820191906000526020600020905b815481529060010190602001808311610e0e57829003601f168201915b50505050509050919050565b6000600460008373ffffffffffffffffffffffffffffffffffffffff1673ffffffffffffffffffffffffffffffffffffffff168152602001908152602001600020600001805490509050919050565b6060600360006002548152602001908152602001600020600a0182908060018154018082558091505060019003906000526020600020016000909190919091509081610ed2919061256a565b506040518060400160405280601c81526020017f495046532068617368206164646564207375636365737366756c6c79000000008152509050919050565b6060816003600060025481526020019081526020016000206008019081610f37919061256a565b506040518060400160405280601c81526020017f495046532068617368206164646564207375636365737366756c6c79000000008152509050919050565b60025481565b600080600460008673ffffffffffffffffffffffffffffffffffffffff1673ffffffffffffffffffffffffffffffffffffffff16815260200190815260200160002060000180549050905060005b818110156110ad5784600460008873ffffffffffffffffffffffffffffffffffffffff1673ffffffffffffffffffffffffffffffffffffffff16815260200190815260200160002060000182815481106110265761102561232f565b5b90600052602060002001540361109a5783600460008873ffffffffffffffffffffffffffffffffffffffff1673ffffffffffffffffffffffffffffffffffffffff168152602001908152602001600020600201828154811061108b5761108a61232f565b5b90600052602060002001819055505b80806110a59061295c565b915050610fc9565b50605a83126110c057601491505061112e565b605083126110d257600a91505061112e565b604683126110e457600591505061112e565b6028831215611128576040517f08c379a000000000000000000000000000000000000000000000000000000000815260040161111f906129f0565b60405180910390fd5b60009150505b9392505050565b600080600460008673ffffffffffffffffffffffffffffffffffffffff1673ffffffffffffffffffffffffffffffffffffffff16815260200190815260200160002060000180549050905060005b818110156112ea5784600460008873ffffffffffffffffffffffffffffffffffffffff1673ffffffffffffffffffffffffffffffffffffffff16815260200190815260200160002060000182815481106111e0576111df61232f565b5b9060005260206000200154036112d757600460008773ffffffffffffffffffffffffffffffffffffffff1673ffffffffffffffffffffffffffffffffffffffff16815260200190815260200160002060010181815481106112445761124361232f565b5b9060005260206000200154841361126457600192506001925050506112ed565b6000600460008873ffffffffffffffffffffffffffffffffffffffff1673ffffffffffffffffffffffffffffffffffffffff16815260200190815260200160002060020182815481106112ba576112b961232f565b5b9060005260206000200181905550600092506000925050506112ed565b80806112e29061295c565b915050611183565b50505b9392505050565b6000600254905090565b600060036000838152602001908152602001600020600a01805490509050919050565b60606003600083815260200190815260200160002060090180546113449061238d565b80601f01602080910402602001604051908101604052809291908181526020018280546113709061238d565b80156113bd5780601f10611392576101008083540402835291602001916113bd565b820191906000526020600020905b8154815290600101906020018083116113a057829003601f168201915b50505050509050919050565b6113d16119f8565b60036000838152602001908152602001600020604051806101600160405290816000820154815260200160018201805461140a9061238d565b80601f01602080910402602001604051908101604052809291908181526020018280546114369061238d565b80156114835780601f1061145857610100808354040283529160200191611483565b820191906000526020600020905b81548152906001019060200180831161146657829003601f168201915b5050505050815260200160028201805461149c9061238d565b80601f01602080910402602001604051908101604052809291908181526020018280546114c89061238d565b80156115155780601f106114ea57610100808354040283529160200191611515565b820191906000526020600020905b8154815290600101906020018083116114f857829003601f168201915b5050505050815260200160038201805461152e9061238d565b80601f016020809104026020016040519081016040528092919081815260200182805461155a9061238d565b80156115a75780601f1061157c576101008083540402835291602001916115a7565b820191906000526020600020905b81548152906001019060200180831161158a57829003601f168201915b505050505081526020016004820160009054906101000a900473ffffffffffffffffffffffffffffffffffffffff1673ffffffffffffffffffffffffffffffffffffffff1673ffffffffffffffffffffffffffffffffffffffff1681526020016005820154815260200160068201548152602001600782015481526020016008820180546116349061238d565b80601f01602080910402602001604051908101604052809291908181526020018280546116609061238d565b80156116ad5780601f10611682576101008083540402835291602001916116ad565b820191906000526020600020905b81548152906001019060200180831161169057829003601f168201915b505050505081526020016009820180546116c69061238d565b80601f01602080910402602001604051908101604052809291908181526020018280546116f29061238d565b801561173f5780601f106117145761010080835404028352916020019161173f565b820191906000526020600020905b81548152906001019060200180831161172257829003601f168201915b50505050508152602001600a8201805480602002602001604051908101604052809291908181526020016000905b8282101561181957838290600052602060002001805461178c9061238d565b80601f01602080910402602001604051908101604052809291908181526020018280546117b89061238d565b80156118055780601f106117da57610100808354040283529160200191611805565b820191906000526020600020905b8154815290600101906020018083116117e857829003601f168201915b50505050508152602001906001019061176d565b50505050815250509050919050565b6000600460008473ffffffffffffffffffffffffffffffffffffffff1673ffffffffffffffffffffffffffffffffffffffff168152602001908152602001600020600301600083815260200190815260200160002060009054906101000a900460ff16905092915050565b600060036000838152602001908152602001600020600501549050919050565b60606003600083815260200190815260200160002060020180546118d69061238d565b80601f01602080910402602001604051908101604052809291908181526020018280546119029061238d565b801561194f5780601f106119245761010080835404028352916020019161194f565b820191906000526020600020905b81548152906001019060200180831161193257829003601f168201915b50505050509050919050565b60006003600083815260200190815260200160002060040160009054906101000a900473ffffffffffffffffffffffffffffffffffffffff169050919050565b8280548282559060005260206000209081019282156119e75760005260206000209182015b828111156119e657828290816119d69190612874565b50916001019190600101906119c0565b5b5090506119f49190611a68565b5090565b60405180610160016040528060008152602001606081526020016060815260200160608152602001600073ffffffffffffffffffffffffffffffffffffffff1681526020016000815260200160008152602001600081526020016060815260200160608152602001606081525090565b5b80821115611a885760008181611a7f9190611a8c565b50600101611a69565b5090565b508054611a989061238d565b6000825580601f10611aaa5750611ac9565b601f016020900490600052602060002090810190611ac89190611acc565b5b50565b5b80821115611ae5576000816000905550600101611acd565b5090565b6000604051905090565b600080fd5b600080fd5b600073ffffffffffffffffffffffffffffffffffffffff82169050919050565b6000611b2882611afd565b9050919050565b611b3881611b1d565b8114611b4357600080fd5b50565b600081359050611b5581611b2f565b92915050565b6000819050919050565b611b6e81611b5b565b8114611b7957600080fd5b50565b600081359050611b8b81611b65565b92915050565b60008060408385031215611ba857611ba7611af3565b5b6000611bb685828601611b46565b9250506020611bc785828601611b7c565b9150509250929050565b6000819050919050565b611be481611bd1565b82525050565b6000602082019050611bff6000830184611bdb565b92915050565b600080fd5b600080fd5b6000601f19601f8301169050919050565b7f4e487b7100000000000000000000000000000000000000000000000000000000600052604160045260246000fd5b611c5882611c0f565b810181811067ffffffffffffffff82111715611c7757611c76611c20565b5b80604052505050565b6000611c8a611ae9565b9050611c968282611c4f565b919050565b600067ffffffffffffffff821115611cb657611cb5611c20565b5b611cbf82611c0f565b9050602081019050919050565b82818337600083830152505050565b6000611cee611ce984611c9b565b611c80565b905082815260208101848484011115611d0a57611d09611c0a565b5b611d15848285611ccc565b509392505050565b600082601f830112611d3257611d31611c05565b5b8135611d42848260208601611cdb565b91505092915050565b600060208284031215611d6157611d60611af3565b5b600082013567ffffffffffffffff811115611d7f57611d7e611af8565b5b611d8b84828501611d1d565b91505092915050565b600081519050919050565b600082825260208201905092915050565b60005b83811015611dce578082015181840152602081019050611db3565b83811115611ddd576000848401525b50505050565b6000611dee82611d94565b611df88185611d9f565b9350611e08818560208601611db0565b611e1181611c0f565b840191505092915050565b60006020820190508181036000830152611e368184611de3565b905092915050565b611e4781611bd1565b8114611e5257600080fd5b50565b600081359050611e6481611e3e565b92915050565b600060208284031215611e8057611e7f611af3565b5b6000611e8e84828501611e55565b91505092915050565b600080600060608486031215611eb057611eaf611af3565b5b6000611ebe86828701611b46565b9350506020611ecf86828701611e55565b9250506040611ee086828701611e55565b9150509250925092565b60008060008060008060c08789031215611f0757611f06611af3565b5b600087013567ffffffffffffffff811115611f2557611f24611af8565b5b611f3189828a01611d1d565b965050602087013567ffffffffffffffff811115611f5257611f51611af8565b5b611f5e89828a01611d1d565b955050604087013567ffffffffffffffff811115611f7f57611f7e611af8565b5b611f8b89828a01611d1d565b9450506060611f9c89828a01611b7c565b9350506080611fad89828a01611e55565b92505060a0611fbe89828a01611b46565b9150509295509295509295565b600060208284031215611fe157611fe0611af3565b5b6000611fef84828501611b46565b91505092915050565b61200181611b5b565b82525050565b600060208201905061201c6000830184611ff8565b92915050565b60008115159050919050565b61203781612022565b82525050565b6000602082019050612052600083018461202e565b92915050565b61206181611bd1565b82525050565b600082825260208201905092915050565b600061208382611d94565b61208d8185612067565b935061209d818560208601611db0565b6120a681611c0f565b840191505092915050565b6120ba81611b1d565b82525050565b6120c981611b5b565b82525050565b600081519050919050565b600082825260208201905092915050565b6000819050602082019050919050565b60006121078383612078565b905092915050565b6000602082019050919050565b6000612127826120cf565b61213181856120da565b935083602082028501612143856120eb565b8060005b8581101561217f578484038952815161216085826120fb565b945061216b8361210f565b925060208a01995050600181019050612147565b50829750879550505050505092915050565b6000610160830160008301516121aa6000860182612058565b50602083015184820360208601526121c28282612078565b915050604083015184820360408601526121dc8282612078565b915050606083015184820360608601526121f68282612078565b915050608083015161220b60808601826120b1565b5060a083015161221e60a08601826120c0565b5060c083015161223160c0860182612058565b5060e083015161224460e0860182612058565b5061010083015184820361010086015261225e8282612078565b91505061012083015184820361012086015261227a8282612078565b915050610140830151848203610140860152612296828261211c565b9150508091505092915050565b600060208201905081810360008301526122bd8184612191565b905092915050565b600080604083850312156122dc576122db611af3565b5b60006122ea85828601611b46565b92505060206122fb85828601611e55565b9150509250929050565b61230e81611b1d565b82525050565b60006020820190506123296000830184612305565b92915050565b7f4e487b7100000000000000000000000000000000000000000000000000000000600052603260045260246000fd5b7f4e487b7100000000000000000000000000000000000000000000000000000000600052602260045260246000fd5b600060028204905060018216806123a557607f821691505b6020821081036123b8576123b761235e565b5b50919050565b60008190508160005260206000209050919050565b60006020601f8301049050919050565b600082821b905092915050565b6000600883026124207fffffffffffffffffffffffffffffffffffffffffffffffffffffffffffffffff826123e3565b61242a86836123e3565b95508019841693508086168417925050509392505050565b6000819050919050565b600061246761246261245d84611b5b565b612442565b611b5b565b9050919050565b6000819050919050565b6124818361244c565b61249561248d8261246e565b8484546123f0565b825550505050565b600090565b6124aa61249d565b6124b5818484612478565b505050565b5b818110156124d9576124ce6000826124a2565b6001810190506124bb565b5050565b601f82111561251e576124ef816123be565b6124f8846123d3565b81016020851015612507578190505b61251b612513856123d3565b8301826124ba565b50505b505050565b600082821c905092915050565b600061254160001984600802612523565b1980831691505092915050565b600061255a8383612530565b9150826002028217905092915050565b61257382611d94565b67ffffffffffffffff81111561258c5761258b611c20565b5b612596825461238d565b6125a18282856124dd565b600060209050601f8311600181146125d457600084156125c2578287015190505b6125cc858261254e565b865550612634565b601f1984166125e2866123be565b60005b8281101561260a578489015182556001820191506020850194506020810190506125e5565b868310156126275784890151612623601f891682612530565b8355505b6001600288020188555050505b505050505050565b7f4e487b7100000000000000000000000000000000000000000000000000000000600052601160045260246000fd5b600061267682611bd1565b91507f7fffffffffffffffffffffffffffffffffffffffffffffffffffffffffffffff82036126a8576126a761263c565b5b600182019050919050565b60006126be82611bd1565b91506126c983611bd1565b9250817f7fffffffffffffffffffffffffffffffffffffffffffffffffffffffffffffff038313600083121516156127045761270361263c565b5b817f800000000000000000000000000000000000000000000000000000000000000003831260008312161561273c5761273b61263c565b5b828201905092915050565b600061275282611bd1565b915061275d83611bd1565b9250827f7fffffffffffffffffffffffffffffffffffffffffffffffffffffffffffffff048211600084136000841316161561279c5761279b61263c565b5b817f800000000000000000000000000000000000000000000000000000000000000005831260008412600084131616156127d9576127d861263c565b5b827f800000000000000000000000000000000000000000000000000000000000000005821260008413600084121616156128165761281561263c565b5b827f7fffffffffffffffffffffffffffffffffffffffffffffffffffffffffffffff05821260008412600084121616156128535761285261263c565b5b828202905092915050565b60008154905061286d8161238d565b9050919050565b81810361288257505061295a565b61288b8261285e565b67ffffffffffffffff8111156128a4576128a3611c20565b5b6128ae825461238d565b6128b98282856124dd565b6000601f8311600181146128e857600084156128d6578287015490505b6128e0858261254e565b865550612953565b601f1984166128f6876123be565b9650612901866123be565b60005b8281101561292957848901548255600182019150600185019450602081019050612904565b868310156129465784890154612942601f891682612530565b8355505b6001600288020188555050505b5050505050505b565b600061296782611b5b565b91507fffffffffffffffffffffffffffffffffffffffffffffffffffffffffffffffff82036129995761299861263c565b5b600182019050919050565b7f536f7272792c20796f752068617665206661696c65642e000000000000000000600082015250565b60006129da601783611d9f565b91506129e5826129a4565b602082019050919050565b60006020820190508181036000830152612a09816129cd565b905091905056fea2646970667358221220d252573a43c4ab9d46263bbeb695fcdcdab16bfec25554861256d44905420e6064736f6c634300080f0033",
  "immutableReferences": {},
  "source": "//SPDX-License-Identifier: MIT\npragma solidity ^0.8.0;\npragma experimental ABIEncoderV2;\n\n// import \"./Student.sol\";\n// import \"./Instructor.sol\";\n// import \"./SaiCreditToken.sol\";\n// import \"./AccessControl.sol\";\n\ncontract Courseblocks {\n//     Student public student1;\n//     Instructor public instructor1;\n//     SaiCreditToken public saitoken;\n//     AccessControl public access;\n\n//    constructor(address _saitoken,address _access,address _student,address _instructor){\n//         saitoken = SaiCreditToken(_saitoken);\n//         access = AccessControl(_access);\n//         student1 = Student(_student);\n//         instructor1 = Instructor(_instructor);\n//     }\n    struct Course {\n        int256 id;\n        string name;\n        string description;\n        string author_name;\n        address author_id;\n        uint256 price;\n        int256 users;\n        int256 deadline;\n        string thumbnail_hash;\n        string file_hash;\n        string[] assignment_hash;\n    }\n\n    struct StudentCourse{\n        int256[] courses_id;\n        int256[] courses_deadline;\n        int256[] marks;\n        mapping(int256 => bool) bought;\n    }\n\n    int256 studentCount;\n    int256 educatorCount;\n    int256 public courseCount;\n\n\n    mapping(int256 => Course) courses;\n    mapping(address => StudentCourse) students;\n    mapping(address => bool) hasAccount;\n    mapping(address =>  mapping(int256 => Course)) instrCourseIDs;\n    mapping(address => int256) instrCourseCount;\n\n    function addCourse(\n        string memory n,\n        string memory desc,\n        string memory auth,\n        uint256 p,\n        int256 d,\n        address e_id\n    ) public {\n       // require(access.hasInstrRoleWADD(e_id), \"Not authorized to add course\"); //check if it's an Educator account\n        courses[courseCount].id = courseCount;\n        courses[courseCount].name = n;\n        courses[courseCount].description = desc;\n        courses[courseCount].author_name = auth;\n        courses[courseCount].author_id = e_id;\n        courses[courseCount].price = p;\n        courses[courseCount].users = 0;\n        courses[courseCount].deadline = d * 1 days;\n        instrCourseIDs[e_id][courseCount] = courses[courseCount];\n        instrCourseCount[e_id]++;\n        courseCount++;\n        //adding course ID to educator struct\n       // instructor1.addCourseID(e_id,courseCount);\n    }\n\n    function buyCourse(\n        address s_id,\n        int256 c_id,\n        int256 _time\n    ) public {\n        // require(access.hasStudRoleWADD(s_id), \"Not authorized to buy course\"); //check if it's a Student account\n        courses[c_id].users++;\n        students[s_id].courses_id.push(c_id);\n        students[s_id].courses_deadline.push(courses[c_id].deadline + _time);\n        students[s_id].marks.push(0); //initializing marks for course\n        students[s_id].bought[c_id] = true;\n        // student1.addCourseID(s_id, c_id);\n        // student1.addDeadline(s_id, courses[c_id].deadline + _time);\n        // saitoken.transferFrom(s_id, e_id, courses[c_id].price);\n        // student1.addMarks(s_id, 0); //initializing marks for course\n    }\n\n    function boughtornot(address s_id,int256 c_id) public view returns(bool) {\n        return students[s_id].bought[c_id];\n    }\n\n    function getauthID(int256 c_id) public view returns(address) {\n        return courses[c_id].author_id;\n    }\n\n    function reviewAssignment(\n        address s_id,\n        int256 c_id,\n        int256 _m\n    ) public returns(uint256){\n         uint256 totalCourses = students[s_id].courses_id.length;\n        for (uint256 i = 0; i < totalCourses; i++) {\n            if (students[s_id].courses_id[i] == c_id) {\n                students[s_id].marks[i] = _m;\n            }\n        }\n        if (_m >= 90) {\n            return 20;\n        } else if (_m >= 80) {\n            return 10;\n        } else if (_m >= 70) {\n            return 5;\n        } else if (_m < 40) {\n            revert(\"Sorry, you have failed.\");\n        }\n        // require(access.hasInstrRoleWADD(msg.sender), \"Not authorized to review course\"); //only educator can review assignments\n        // uint256 totalCourses = student1.getTotalCourses(s_id);\n        // for (uint256 i = 0; i < totalCourses; i++) {\n        //     if (student1.getCourseID(s_id, i) == c_id) {\n        //         student1.addMarksWI(s_id, _m, i);\n        //     }\n        // }\n        // if (_m >= 90) {\n        //     saitoken.transfer(s_id, 20);\n        // } else if (_m >= 80) {\n        //     saitoken.transfer(s_id, 10);\n        // } else if (_m >= 70) {\n        //     saitoken.transfer(s_id, 5);\n        // } else if (_m < 40) {\n        //     revert(\"Sorry, you have failed.\");\n        // }\n        return 0;\n    }\n\n    function submitAssignment(\n        address s_id,\n        int256 c_id,\n        int256 _time\n    ) public returns (bool bol) {\n         uint256 totalCourses = students[s_id].courses_id.length;\n        for (uint256 i = 0; i < totalCourses; i++) {\n            if (students[s_id].courses_id[i] == c_id) {\n                if (_time <= students[s_id].courses_deadline[i]) {\n                    bol = true;\n                    return (true);\n                }\n                //if deadline passed,set marks=0\n                else {\n                    students[s_id].marks[i] = 0;\n                    bol = false;\n                    return (false);\n                }\n            }\n        }\n        // require(access.hasStudRoleWADD(s_id), \"Not authorized to submit course\"); //check if it's a Student account\n        // uint256 totalCourses = student1.getTotalCourses(s_id);\n        // for (uint256 i = 0; i < totalCourses; i++) {\n        //     if (student1.getCourseID(s_id, i) == c_id) {\n        //         if (_time <= student1.getDeadline(s_id,i)) {\n        //             return (true);\n        //         }\n        //         //if deadline passed,set marks=0\n        //         else {\n        //             student1.addMarksWI(s_id, 0, i);\n        //             return (false);\n        //         }\n        //     }\n        // }\n    }\n\n    function getCourse(int256 _id) public view returns (Course memory) {\n        return (courses[_id]);\n    }\n\n    function getCourseIds(address s_id, uint256 idx) public view returns(int256){\n        return students[s_id].courses_id[idx];\n    }\n\n    function getNoCoursesBought(address s_id) public view returns(uint256){\n        return students[s_id].courses_id.length;\n    }\n\n\n    function getCourseCount() public view returns (int256) {\n        return (courseCount);\n    }\n\n     function setThumbhash(string memory _hash)public returns(string memory){\n        courses[courseCount].thumbnail_hash = _hash;\n        return \"IPFS hash added successfully\";\n\n    }\n\n     function getThumbHash(int256 c_id) public view returns (string memory) {\n        return courses[c_id].thumbnail_hash;\n    }\n\n    function setFilehash(string memory _hash)public returns(string memory){\n        courses[courseCount].file_hash = _hash;\n        return \"IPFS hash added successfully\";\n\n    }\n\n     function getFileHash(int256 c_id) public view returns (string memory) {\n        return courses[c_id].file_hash;\n    } \n    function getName(int256 c_id) public view returns (string memory) {\n        return courses[c_id].name;\n    } \n\n    function getDesc(int256 c_id) public view returns (string memory) {\n        return courses[c_id].description;\n    } \n\n    function getAuthName(int256 c_id) public view returns (string memory) {\n        return courses[c_id].author_name;\n    }\n\n    function getUsers(int256 c_id) public view returns (int256) {\n        return courses[c_id].users;\n    }  \n\n    function getPrice(int256 c_id) public view returns (uint256) {\n        return courses[c_id].price;\n    } \n\n    function setAssignmentHash(string memory _hash)public returns(string memory){\n        courses[courseCount].assignment_hash.push(_hash);\n        return \"IPFS hash added successfully\";\n\n    }\n\n    function getAssignmentHash(int256 c_id)public view returns(string memory){\n        return courses[c_id].assignment_hash[0];\n    }\n\n    function getNoAssignments(int256 c_id) public view returns(uint256){\n        return courses[c_id].assignment_hash.length;\n    }\n\n\n}",
  "sourcePath": "/home/jarvis/projects/mtech_proj-main/contracts/Courseblocks.sol",
  "compiler": {
    "name": "solc",
    "version": "0.8.15+commit.e14f2714.Emscripten.clang"
  },
  "schemaVersion": "3.4.8",
  "updatedAt": "2023-03-23T09:51:27.893Z",
  "networkType": "ethereum",
  "devdoc": {
    "kind": "dev",
    "methods": {},
    "version": 1
  },
  "userdoc": {
    "kind": "user",
    "methods": {},
    "version": 1
  }
}