{
  "contractName": "Courseblocks",
  "abi": [
    {
      "inputs": [],
      "name": "courseCount",
      "outputs": [
        {
          "internalType": "uint256",
          "name": "",
          "type": "uint256"
        }
      ],
      "stateMutability": "view",
      "type": "function",
      "constant": true
    },
    {
      "inputs": [
        {
          "internalType": "string",
          "name": "n",
          "type": "string"
        },
        {
          "internalType": "string",
          "name": "desc",
          "type": "string"
        },
        {
          "internalType": "string",
          "name": "auth",
          "type": "string"
        },
        {
          "internalType": "uint256",
          "name": "p",
          "type": "uint256"
        },
        {
          "internalType": "uint256",
          "name": "d",
          "type": "uint256"
        },
        {
          "internalType": "address",
          "name": "e_id",
          "type": "address"
        }
      ],
      "name": "addCourse",
      "outputs": [],
      "stateMutability": "nonpayable",
      "type": "function"
    },
    {
      "inputs": [
        {
          "internalType": "address",
          "name": "s_id",
          "type": "address"
        },
        {
          "internalType": "uint256",
          "name": "c_id",
          "type": "uint256"
        },
        {
          "internalType": "uint256",
          "name": "_time",
          "type": "uint256"
        }
      ],
      "name": "buyCourse",
      "outputs": [],
      "stateMutability": "nonpayable",
      "type": "function"
    },
    {
      "inputs": [
        {
          "internalType": "address",
          "name": "s_id",
          "type": "address"
        },
        {
          "internalType": "uint256",
          "name": "c_id",
          "type": "uint256"
        }
      ],
      "name": "boughtornot",
      "outputs": [
        {
          "internalType": "bool",
          "name": "",
          "type": "bool"
        }
      ],
      "stateMutability": "view",
      "type": "function",
      "constant": true
    },
    {
      "inputs": [
        {
          "internalType": "uint256",
          "name": "c_id",
          "type": "uint256"
        }
      ],
      "name": "getauthID",
      "outputs": [
        {
          "internalType": "address",
          "name": "",
          "type": "address"
        }
      ],
      "stateMutability": "view",
      "type": "function",
      "constant": true
    },
    {
      "inputs": [
        {
          "internalType": "address",
          "name": "s_id",
          "type": "address"
        },
        {
          "internalType": "uint256",
          "name": "c_id",
          "type": "uint256"
        },
        {
          "internalType": "uint256",
          "name": "_m",
          "type": "uint256"
        }
      ],
      "name": "reviewAssignment",
      "outputs": [
        {
          "internalType": "uint256",
          "name": "num",
          "type": "uint256"
        }
      ],
      "stateMutability": "nonpayable",
      "type": "function"
    },
    {
      "inputs": [
        {
          "internalType": "address",
          "name": "s_id",
          "type": "address"
        },
        {
          "internalType": "uint256",
          "name": "c_id",
          "type": "uint256"
        },
        {
          "internalType": "uint256",
          "name": "_time",
          "type": "uint256"
        }
      ],
      "name": "submitAssignment",
      "outputs": [
        {
          "internalType": "bool",
          "name": "bol",
          "type": "bool"
        }
      ],
      "stateMutability": "nonpayable",
      "type": "function"
    },
    {
      "inputs": [
        {
          "internalType": "uint256",
          "name": "_id",
          "type": "uint256"
        }
      ],
      "name": "getCourse",
      "outputs": [
        {
          "components": [
            {
              "internalType": "uint256",
              "name": "id",
              "type": "uint256"
            },
            {
              "internalType": "string",
              "name": "name",
              "type": "string"
            },
            {
              "internalType": "string",
              "name": "description",
              "type": "string"
            },
            {
              "internalType": "string",
              "name": "author_name",
              "type": "string"
            },
            {
              "internalType": "address",
              "name": "author_id",
              "type": "address"
            },
            {
              "internalType": "uint256",
              "name": "price",
              "type": "uint256"
            },
            {
              "internalType": "uint256",
              "name": "users",
              "type": "uint256"
            },
            {
              "internalType": "uint256",
              "name": "deadline",
              "type": "uint256"
            },
            {
              "internalType": "string",
              "name": "thumbnail_hash",
              "type": "string"
            },
            {
              "internalType": "string",
              "name": "file_hash",
              "type": "string"
            },
            {
              "internalType": "string[]",
              "name": "assignment_hash",
              "type": "string[]"
            }
          ],
          "internalType": "struct Courseblocks.Course",
          "name": "",
          "type": "tuple"
        }
      ],
      "stateMutability": "view",
      "type": "function",
      "constant": true
    },
    {
      "inputs": [
        {
          "internalType": "address",
          "name": "s_id",
          "type": "address"
        },
        {
          "internalType": "uint256",
          "name": "idx",
          "type": "uint256"
        }
      ],
      "name": "getCourseIds",
      "outputs": [
        {
          "internalType": "uint256",
          "name": "",
          "type": "uint256"
        }
      ],
      "stateMutability": "view",
      "type": "function",
      "constant": true
    },
    {
      "inputs": [
        {
          "internalType": "address",
          "name": "s_id",
          "type": "address"
        }
      ],
      "name": "getNoCoursesBought",
      "outputs": [
        {
          "internalType": "uint256",
          "name": "",
          "type": "uint256"
        }
      ],
      "stateMutability": "view",
      "type": "function",
      "constant": true
    },
    {
      "inputs": [],
      "name": "getCourseCount",
      "outputs": [
        {
          "internalType": "uint256",
          "name": "",
          "type": "uint256"
        }
      ],
      "stateMutability": "view",
      "type": "function",
      "constant": true
    },
    {
      "inputs": [
        {
          "internalType": "string",
          "name": "_hash",
          "type": "string"
        }
      ],
      "name": "setThumbhash",
      "outputs": [
        {
          "internalType": "string",
          "name": "",
          "type": "string"
        }
      ],
      "stateMutability": "nonpayable",
      "type": "function"
    },
    {
      "inputs": [
        {
          "internalType": "uint256",
          "name": "c_id",
          "type": "uint256"
        }
      ],
      "name": "getThumbHash",
      "outputs": [
        {
          "internalType": "string",
          "name": "",
          "type": "string"
        }
      ],
      "stateMutability": "view",
      "type": "function",
      "constant": true
    },
    {
      "inputs": [
        {
          "internalType": "string",
          "name": "_hash",
          "type": "string"
        }
      ],
      "name": "setFilehash",
      "outputs": [
        {
          "internalType": "string",
          "name": "",
          "type": "string"
        }
      ],
      "stateMutability": "nonpayable",
      "type": "function"
    },
    {
      "inputs": [
        {
          "internalType": "uint256",
          "name": "c_id",
          "type": "uint256"
        }
      ],
      "name": "getFileHash",
      "outputs": [
        {
          "internalType": "string",
          "name": "",
          "type": "string"
        }
      ],
      "stateMutability": "view",
      "type": "function",
      "constant": true
    },
    {
      "inputs": [
        {
          "internalType": "uint256",
          "name": "c_id",
          "type": "uint256"
        }
      ],
      "name": "getName",
      "outputs": [
        {
          "internalType": "string",
          "name": "",
          "type": "string"
        }
      ],
      "stateMutability": "view",
      "type": "function",
      "constant": true
    },
    {
      "inputs": [
        {
          "internalType": "uint256",
          "name": "c_id",
          "type": "uint256"
        }
      ],
      "name": "getDesc",
      "outputs": [
        {
          "internalType": "string",
          "name": "",
          "type": "string"
        }
      ],
      "stateMutability": "view",
      "type": "function",
      "constant": true
    },
    {
      "inputs": [
        {
          "internalType": "uint256",
          "name": "c_id",
          "type": "uint256"
        }
      ],
      "name": "getAuthName",
      "outputs": [
        {
          "internalType": "string",
          "name": "",
          "type": "string"
        }
      ],
      "stateMutability": "view",
      "type": "function",
      "constant": true
    },
    {
      "inputs": [
        {
          "internalType": "uint256",
          "name": "c_id",
          "type": "uint256"
        }
      ],
      "name": "getUsers",
      "outputs": [
        {
          "internalType": "uint256",
          "name": "",
          "type": "uint256"
        }
      ],
      "stateMutability": "view",
      "type": "function",
      "constant": true
    },
    {
      "inputs": [
        {
          "internalType": "uint256",
          "name": "c_id",
          "type": "uint256"
        }
      ],
      "name": "getPrice",
      "outputs": [
        {
          "internalType": "uint256",
          "name": "",
          "type": "uint256"
        }
      ],
      "stateMutability": "view",
      "type": "function",
      "constant": true
    },
    {
      "inputs": [
        {
          "internalType": "string",
          "name": "_hash",
          "type": "string"
        }
      ],
      "name": "setAssignmentHash",
      "outputs": [
        {
          "internalType": "string",
          "name": "",
          "type": "string"
        }
      ],
      "stateMutability": "nonpayable",
      "type": "function"
    },
    {
      "inputs": [
        {
          "internalType": "address",
          "name": "s_id",
          "type": "address"
        },
        {
          "internalType": "string",
          "name": "_hash",
          "type": "string"
        }
      ],
      "name": "setSubmissionHah",
      "outputs": [
        {
          "internalType": "string",
          "name": "",
          "type": "string"
        }
      ],
      "stateMutability": "nonpayable",
      "type": "function"
    },
    {
      "inputs": [
        {
          "internalType": "address",
          "name": "s_id",
          "type": "address"
        }
      ],
      "name": "getSubmissionHah",
      "outputs": [
        {
          "internalType": "string",
          "name": "",
          "type": "string"
        }
      ],
      "stateMutability": "view",
      "type": "function",
      "constant": true
    },
    {
      "inputs": [
        {
          "internalType": "uint256",
          "name": "c_id",
          "type": "uint256"
        }
      ],
      "name": "getAssignmentHash",
      "outputs": [
        {
          "internalType": "string",
          "name": "",
          "type": "string"
        }
      ],
      "stateMutability": "view",
      "type": "function",
      "constant": true
    },
    {
      "inputs": [
        {
          "internalType": "uint256",
          "name": "c_id",
          "type": "uint256"
        }
      ],
      "name": "getNoAssignments",
      "outputs": [
        {
          "internalType": "uint256",
          "name": "",
          "type": "uint256"
        }
      ],
      "stateMutability": "view",
      "type": "function",
      "constant": true
    }
  ],
  "bytecode": "0x608060405234801561001057600080fd5b50612ad8806100206000396000f3fe608060405234801561001057600080fd5b50600436106101735760003560e01c806366055159116100de5780639a40349011610097578063ddcd022e11610071578063ddcd022e14610530578063e757223014610560578063eb13113514610590578063f8c7a8d8146105c057610173565b80639a403490146104a05780639e5d8c57146104d0578063b787f3a21461050057610173565b806366055159146103a45780636b8ff574146103c2578063740018f1146103f257806395a3448d1461042257806396b458f01461045257806396cfda061461048257610173565b806333baccb91161013057806333baccb9146102985780635b6ff9bf146102c85780635d73ab9a146102e45780635dd18412146103145780635f8e5eab1461034457806360236b0b1461037457610173565b8063011e9afd146101785780630b91e28d146101a857806320231ecb146101d857806321ba0055146102085780632237d5b7146102385780632cca4ba714610268575b600080fd5b610192600480360381019061018d9190611db9565b6105dc565b60405161019f9190611e08565b60405180910390f35b6101c260048036038101906101bd9190611e23565b610645565b6040516101cf91906120db565b60405180910390f35b6101f260048036038101906101ed9190612232565b610aa4565b6040516101ff91906122d8565b60405180910390f35b610222600480360381019061021d91906122fa565b610b59565b60405161022f91906122d8565b60405180910390f35b610252600480360381019061024d9190612343565b610bbe565b60405161025f91906122d8565b60405180910390f35b610282600480360381019061027d9190611e23565b610caf565b60405161028f91906122d8565b60405180910390f35b6102b260048036038101906102ad9190611e23565b610d57565b6040516102bf91906122d8565b60405180910390f35b6102e260048036038101906102dd9190612370565b610dff565b005b6102fe60048036038101906102f99190611e23565b610ff9565b60405161030b9190611e08565b60405180910390f35b61032e60048036038101906103299190612343565b611019565b60405161033b9190611e08565b60405180910390f35b61035e600480360381019061035991906122fa565b611068565b60405161036b91906122d8565b60405180910390f35b61038e600480360381019061038991906122fa565b6110f2565b60405161039b91906122d8565b60405180910390f35b6103ac611157565b6040516103b99190611e08565b60405180910390f35b6103dc60048036038101906103d79190611e23565b61115d565b6040516103e991906122d8565b60405180910390f35b61040c60048036038101906104079190612370565b611205565b60405161041991906123de565b60405180910390f35b61043c60048036038101906104379190612370565b6113c4565b6040516104499190611e08565b60405180910390f35b61046c60048036038101906104679190611e23565b61157a565b60405161047991906122d8565b60405180910390f35b61048a61163f565b6040516104979190611e08565b60405180910390f35b6104ba60048036038101906104b59190611e23565b611649565b6040516104c79190611e08565b60405180910390f35b6104ea60048036038101906104e59190611db9565b61166c565b6040516104f791906123de565b60405180910390f35b61051a60048036038101906105159190611e23565b6116d7565b6040516105279190612408565b60405180910390f35b61054a60048036038101906105459190611e23565b611717565b60405161055791906122d8565b60405180910390f35b61057a60048036038101906105759190611e23565b6117bf565b6040516105879190611e08565b60405180910390f35b6105aa60048036038101906105a59190611e23565b6117df565b6040516105b791906122d8565b60405180910390f35b6105da60048036038101906105d59190612423565b611887565b005b6000600460008473ffffffffffffffffffffffffffffffffffffffff1673ffffffffffffffffffffffffffffffffffffffff168152602001908152602001600020600001828154811061063257610631612504565b5b9060005260206000200154905092915050565b61064d611bc3565b60036000838152602001908152602001600020604051806101600160405290816000820154815260200160018201805461068690612562565b80601f01602080910402602001604051908101604052809291908181526020018280546106b290612562565b80156106ff5780601f106106d4576101008083540402835291602001916106ff565b820191906000526020600020905b8154815290600101906020018083116106e257829003601f168201915b5050505050815260200160028201805461071890612562565b80601f016020809104026020016040519081016040528092919081815260200182805461074490612562565b80156107915780601f1061076657610100808354040283529160200191610791565b820191906000526020600020905b81548152906001019060200180831161077457829003601f168201915b505050505081526020016003820180546107aa90612562565b80601f01602080910402602001604051908101604052809291908181526020018280546107d690612562565b80156108235780601f106107f857610100808354040283529160200191610823565b820191906000526020600020905b81548152906001019060200180831161080657829003601f168201915b505050505081526020016004820160009054906101000a900473ffffffffffffffffffffffffffffffffffffffff1673ffffffffffffffffffffffffffffffffffffffff1673ffffffffffffffffffffffffffffffffffffffff1681526020016005820154815260200160068201548152602001600782015481526020016008820180546108b090612562565b80601f01602080910402602001604051908101604052809291908181526020018280546108dc90612562565b80156109295780601f106108fe57610100808354040283529160200191610929565b820191906000526020600020905b81548152906001019060200180831161090c57829003601f168201915b5050505050815260200160098201805461094290612562565b80601f016020809104026020016040519081016040528092919081815260200182805461096e90612562565b80156109bb5780601f10610990576101008083540402835291602001916109bb565b820191906000526020600020905b81548152906001019060200180831161099e57829003601f168201915b50505050508152602001600a8201805480602002602001604051908101604052809291908181526020016000905b82821015610a95578382906000526020600020018054610a0890612562565b80601f0160208091040260200160405190810160405280929190818152602001828054610a3490612562565b8015610a815780601f10610a5657610100808354040283529160200191610a81565b820191906000526020600020905b815481529060010190602001808311610a6457829003601f168201915b5050505050815260200190600101906109e9565b50505050815250509050919050565b6060600460008473ffffffffffffffffffffffffffffffffffffffff1673ffffffffffffffffffffffffffffffffffffffff16815260200190815260200160002060030182908060018154018082558091505060019003906000526020600020016000909190919091509081610b1a919061273f565b506040518060400160405280601c81526020017f495046532068617368206164646564207375636365737366756c6c7900000000815250905092915050565b6060816003600060025481526020019081526020016000206009019081610b80919061273f565b506040518060400160405280601c81526020017f495046532068617368206164646564207375636365737366756c6c79000000008152509050919050565b6060600460008373ffffffffffffffffffffffffffffffffffffffff1673ffffffffffffffffffffffffffffffffffffffff168152602001908152602001600020600301600081548110610c1557610c14612504565b5b906000526020600020018054610c2a90612562565b80601f0160208091040260200160405190810160405280929190818152602001828054610c5690612562565b8015610ca35780601f10610c7857610100808354040283529160200191610ca3565b820191906000526020600020905b815481529060010190602001808311610c8657829003601f168201915b50505050509050919050565b6060600360008381526020019081526020016000206002018054610cd290612562565b80601f0160208091040260200160405190810160405280929190818152602001828054610cfe90612562565b8015610d4b5780601f10610d2057610100808354040283529160200191610d4b565b820191906000526020600020905b815481529060010190602001808311610d2e57829003601f168201915b50505050509050919050565b6060600360008381526020019081526020016000206003018054610d7a90612562565b80601f0160208091040260200160405190810160405280929190818152602001828054610da690612562565b8015610df35780601f10610dc857610100808354040283529160200191610df3565b820191906000526020600020905b815481529060010190602001808311610dd657829003601f168201915b50505050509050919050565b600360008381526020019081526020016000206006016000815480929190610e2690612840565b9190505550600460008473ffffffffffffffffffffffffffffffffffffffff1673ffffffffffffffffffffffffffffffffffffffff168152602001908152602001600020600001829080600181540180825580915050600190039060005260206000200160009091909190915055600460008473ffffffffffffffffffffffffffffffffffffffff1673ffffffffffffffffffffffffffffffffffffffff168152602001908152602001600020600101816003600085815260200190815260200160002060070154610ef89190612888565b9080600181540180825580915050600190039060005260206000200160009091909190915055600460008473ffffffffffffffffffffffffffffffffffffffff1673ffffffffffffffffffffffffffffffffffffffff168152602001908152602001600020600201600090806001815401808255809150506001900390600052602060002001600090919091909150556001600460008573ffffffffffffffffffffffffffffffffffffffff1673ffffffffffffffffffffffffffffffffffffffff168152602001908152602001600020600401600084815260200190815260200160002060006101000a81548160ff021916908315150217905550505050565b600060036000838152602001908152602001600020600601549050919050565b6000600460008373ffffffffffffffffffffffffffffffffffffffff1673ffffffffffffffffffffffffffffffffffffffff168152602001908152602001600020600001805490509050919050565b6060600360006002548152602001908152602001600020600a01829080600181540180825580915050600190039060005260206000200160009091909190915090816110b4919061273f565b506040518060400160405280601c81526020017f495046532068617368206164646564207375636365737366756c6c79000000008152509050919050565b6060816003600060025481526020019081526020016000206008019081611119919061273f565b506040518060400160405280601c81526020017f495046532068617368206164646564207375636365737366756c6c79000000008152509050919050565b60025481565b606060036000838152602001908152602001600020600101805461118090612562565b80601f01602080910402602001604051908101604052809291908181526020018280546111ac90612562565b80156111f95780601f106111ce576101008083540402835291602001916111f9565b820191906000526020600020905b8154815290600101906020018083116111dc57829003601f168201915b50505050509050919050565b600080600460008673ffffffffffffffffffffffffffffffffffffffff1673ffffffffffffffffffffffffffffffffffffffff16815260200190815260200160002060000180549050905060005b818110156113ba5784600460008873ffffffffffffffffffffffffffffffffffffffff1673ffffffffffffffffffffffffffffffffffffffff16815260200190815260200160002060000182815481106112b0576112af612504565b5b9060005260206000200154036113a757600460008773ffffffffffffffffffffffffffffffffffffffff1673ffffffffffffffffffffffffffffffffffffffff168152602001908152602001600020600101818154811061131457611313612504565b5b9060005260206000200154841161133457600192506001925050506113bd565b6000600460008873ffffffffffffffffffffffffffffffffffffffff1673ffffffffffffffffffffffffffffffffffffffff168152602001908152602001600020600201828154811061138a57611389612504565b5b9060005260206000200181905550600092506000925050506113bd565b80806113b290612840565b915050611253565b50505b9392505050565b600080600460008673ffffffffffffffffffffffffffffffffffffffff1673ffffffffffffffffffffffffffffffffffffffff16815260200190815260200160002060000180549050905060005b818110156114f65784600460008873ffffffffffffffffffffffffffffffffffffffff1673ffffffffffffffffffffffffffffffffffffffff168152602001908152602001600020600001828154811061146f5761146e612504565b5b9060005260206000200154036114e35783600460008873ffffffffffffffffffffffffffffffffffffffff1673ffffffffffffffffffffffffffffffffffffffff16815260200190815260200160002060020182815481106114d4576114d3612504565b5b90600052602060002001819055505b80806114ee90612840565b915050611412565b50605a8310611509576014915050611573565b6050831061151b57600a915050611573565b6046831061152d576005915050611573565b6028831015611571576040517f08c379a00000000000000000000000000000000000000000000000000000000081526004016115689061292a565b60405180910390fd5b505b9392505050565b606060036000838152602001908152602001600020600a016000815481106115a5576115a4612504565b5b9060005260206000200180546115ba90612562565b80601f01602080910402602001604051908101604052809291908181526020018280546115e690612562565b80156116335780601f1061160857610100808354040283529160200191611633565b820191906000526020600020905b81548152906001019060200180831161161657829003601f168201915b50505050509050919050565b6000600254905090565b600060036000838152602001908152602001600020600a01805490509050919050565b6000600460008473ffffffffffffffffffffffffffffffffffffffff1673ffffffffffffffffffffffffffffffffffffffff168152602001908152602001600020600401600083815260200190815260200160002060009054906101000a900460ff16905092915050565b60006003600083815260200190815260200160002060040160009054906101000a900473ffffffffffffffffffffffffffffffffffffffff169050919050565b606060036000838152602001908152602001600020600801805461173a90612562565b80601f016020809104026020016040519081016040528092919081815260200182805461176690612562565b80156117b35780601f10611788576101008083540402835291602001916117b3565b820191906000526020600020905b81548152906001019060200180831161179657829003601f168201915b50505050509050919050565b600060036000838152602001908152602001600020600501549050919050565b606060036000838152602001908152602001600020600901805461180290612562565b80601f016020809104026020016040519081016040528092919081815260200182805461182e90612562565b801561187b5780601f106118505761010080835404028352916020019161187b565b820191906000526020600020905b81548152906001019060200180831161185e57829003601f168201915b50505050509050919050565b600254600360006002548152602001908152602001600020600001819055508560036000600254815260200190815260200160002060010190816118cb919061273f565b508460036000600254815260200190815260200160002060020190816118f1919061273f565b50836003600060025481526020019081526020016000206003019081611917919061273f565b508060036000600254815260200190815260200160002060040160006101000a81548173ffffffffffffffffffffffffffffffffffffffff021916908373ffffffffffffffffffffffffffffffffffffffff160217905550826003600060025481526020019081526020016000206005018190555060006003600060025481526020019081526020016000206006018190555062015180826119b9919061294a565b60036000600254815260200190815260200160002060070181905550600360006002548152602001908152602001600020600660008373ffffffffffffffffffffffffffffffffffffffff1673ffffffffffffffffffffffffffffffffffffffff168152602001908152602001600020600060025481526020019081526020016000206000820154816000015560018201816001019081611a5a91906129ba565b5060028201816002019081611a6f91906129ba565b5060038201816003019081611a8491906129ba565b506004820160009054906101000a900473ffffffffffffffffffffffffffffffffffffffff168160040160006101000a81548173ffffffffffffffffffffffffffffffffffffffff021916908373ffffffffffffffffffffffffffffffffffffffff16021790555060058201548160050155600682015481600601556007820154816007015560088201816008019081611b1e91906129ba565b5060098201816009019081611b3391906129ba565b50600a820181600a01908054611b4a929190611c33565b50905050600760008273ffffffffffffffffffffffffffffffffffffffff1673ffffffffffffffffffffffffffffffffffffffff1681526020019081526020016000206000815480929190611b9e90612840565b919050555060026000815480929190611bb690612840565b9190505550505050505050565b60405180610160016040528060008152602001606081526020016060815260200160608152602001600073ffffffffffffffffffffffffffffffffffffffff1681526020016000815260200160008152602001600081526020016060815260200160608152602001606081525090565b828054828255906000526020600020908101928215611c7f5760005260206000209182015b82811115611c7e5782829081611c6e91906129ba565b5091600101919060010190611c58565b5b509050611c8c9190611c90565b5090565b5b80821115611cb05760008181611ca79190611cb4565b50600101611c91565b5090565b508054611cc090612562565b6000825580601f10611cd25750611cf1565b601f016020900490600052602060002090810190611cf09190611cf4565b5b50565b5b80821115611d0d576000816000905550600101611cf5565b5090565b6000604051905090565b600080fd5b600080fd5b600073ffffffffffffffffffffffffffffffffffffffff82169050919050565b6000611d5082611d25565b9050919050565b611d6081611d45565b8114611d6b57600080fd5b50565b600081359050611d7d81611d57565b92915050565b6000819050919050565b611d9681611d83565b8114611da157600080fd5b50565b600081359050611db381611d8d565b92915050565b60008060408385031215611dd057611dcf611d1b565b5b6000611dde85828601611d6e565b9250506020611def85828601611da4565b9150509250929050565b611e0281611d83565b82525050565b6000602082019050611e1d6000830184611df9565b92915050565b600060208284031215611e3957611e38611d1b565b5b6000611e4784828501611da4565b91505092915050565b611e5981611d83565b82525050565b600081519050919050565b600082825260208201905092915050565b60005b83811015611e99578082015181840152602081019050611e7e565b83811115611ea8576000848401525b50505050565b6000601f19601f8301169050919050565b6000611eca82611e5f565b611ed48185611e6a565b9350611ee4818560208601611e7b565b611eed81611eae565b840191505092915050565b611f0181611d45565b82525050565b600081519050919050565b600082825260208201905092915050565b6000819050602082019050919050565b6000611f3f8383611ebf565b905092915050565b6000602082019050919050565b6000611f5f82611f07565b611f698185611f12565b935083602082028501611f7b85611f23565b8060005b85811015611fb75784840389528151611f988582611f33565b9450611fa383611f47565b925060208a01995050600181019050611f7f565b50829750879550505050505092915050565b600061016083016000830151611fe26000860182611e50565b5060208301518482036020860152611ffa8282611ebf565b915050604083015184820360408601526120148282611ebf565b9150506060830151848203606086015261202e8282611ebf565b91505060808301516120436080860182611ef8565b5060a083015161205660a0860182611e50565b5060c083015161206960c0860182611e50565b5060e083015161207c60e0860182611e50565b506101008301518482036101008601526120968282611ebf565b9150506101208301518482036101208601526120b28282611ebf565b9150506101408301518482036101408601526120ce8282611f54565b9150508091505092915050565b600060208201905081810360008301526120f58184611fc9565b905092915050565b600080fd5b600080fd5b7f4e487b7100000000000000000000000000000000000000000000000000000000600052604160045260246000fd5b61213f82611eae565b810181811067ffffffffffffffff8211171561215e5761215d612107565b5b80604052505050565b6000612171611d11565b905061217d8282612136565b919050565b600067ffffffffffffffff82111561219d5761219c612107565b5b6121a682611eae565b9050602081019050919050565b82818337600083830152505050565b60006121d56121d084612182565b612167565b9050828152602081018484840111156121f1576121f0612102565b5b6121fc8482856121b3565b509392505050565b600082601f830112612219576122186120fd565b5b81356122298482602086016121c2565b91505092915050565b6000806040838503121561224957612248611d1b565b5b600061225785828601611d6e565b925050602083013567ffffffffffffffff81111561227857612277611d20565b5b61228485828601612204565b9150509250929050565b600082825260208201905092915050565b60006122aa82611e5f565b6122b4818561228e565b93506122c4818560208601611e7b565b6122cd81611eae565b840191505092915050565b600060208201905081810360008301526122f2818461229f565b905092915050565b6000602082840312156123105761230f611d1b565b5b600082013567ffffffffffffffff81111561232e5761232d611d20565b5b61233a84828501612204565b91505092915050565b60006020828403121561235957612358611d1b565b5b600061236784828501611d6e565b91505092915050565b60008060006060848603121561238957612388611d1b565b5b600061239786828701611d6e565b93505060206123a886828701611da4565b92505060406123b986828701611da4565b9150509250925092565b60008115159050919050565b6123d8816123c3565b82525050565b60006020820190506123f360008301846123cf565b92915050565b61240281611d45565b82525050565b600060208201905061241d60008301846123f9565b92915050565b60008060008060008060c087890312156124405761243f611d1b565b5b600087013567ffffffffffffffff81111561245e5761245d611d20565b5b61246a89828a01612204565b965050602087013567ffffffffffffffff81111561248b5761248a611d20565b5b61249789828a01612204565b955050604087013567ffffffffffffffff8111156124b8576124b7611d20565b5b6124c489828a01612204565b94505060606124d589828a01611da4565b93505060806124e689828a01611da4565b92505060a06124f789828a01611d6e565b9150509295509295509295565b7f4e487b7100000000000000000000000000000000000000000000000000000000600052603260045260246000fd5b7f4e487b7100000000000000000000000000000000000000000000000000000000600052602260045260246000fd5b6000600282049050600182168061257a57607f821691505b60208210810361258d5761258c612533565b5b50919050565b60008190508160005260206000209050919050565b60006020601f8301049050919050565b600082821b905092915050565b6000600883026125f57fffffffffffffffffffffffffffffffffffffffffffffffffffffffffffffffff826125b8565b6125ff86836125b8565b95508019841693508086168417925050509392505050565b6000819050919050565b600061263c61263761263284611d83565b612617565b611d83565b9050919050565b6000819050919050565b61265683612621565b61266a61266282612643565b8484546125c5565b825550505050565b600090565b61267f612672565b61268a81848461264d565b505050565b5b818110156126ae576126a3600082612677565b600181019050612690565b5050565b601f8211156126f3576126c481612593565b6126cd846125a8565b810160208510156126dc578190505b6126f06126e8856125a8565b83018261268f565b50505b505050565b600082821c905092915050565b6000612716600019846008026126f8565b1980831691505092915050565b600061272f8383612705565b9150826002028217905092915050565b61274882611e5f565b67ffffffffffffffff81111561276157612760612107565b5b61276b8254612562565b6127768282856126b2565b600060209050601f8311600181146127a95760008415612797578287015190505b6127a18582612723565b865550612809565b601f1984166127b786612593565b60005b828110156127df578489015182556001820191506020850194506020810190506127ba565b868310156127fc57848901516127f8601f891682612705565b8355505b6001600288020188555050505b505050505050565b7f4e487b7100000000000000000000000000000000000000000000000000000000600052601160045260246000fd5b600061284b82611d83565b91507fffffffffffffffffffffffffffffffffffffffffffffffffffffffffffffffff820361287d5761287c612811565b5b600182019050919050565b600061289382611d83565b915061289e83611d83565b9250827fffffffffffffffffffffffffffffffffffffffffffffffffffffffffffffffff038211156128d3576128d2612811565b5b828201905092915050565b7f536f7272792c20796f752068617665206661696c65642e000000000000000000600082015250565b600061291460178361228e565b915061291f826128de565b602082019050919050565b6000602082019050818103600083015261294381612907565b9050919050565b600061295582611d83565b915061296083611d83565b9250817fffffffffffffffffffffffffffffffffffffffffffffffffffffffffffffffff048311821515161561299957612998612811565b5b828202905092915050565b6000815490506129b381612562565b9050919050565b8181036129c8575050612aa0565b6129d1826129a4565b67ffffffffffffffff8111156129ea576129e9612107565b5b6129f48254612562565b6129ff8282856126b2565b6000601f831160018114612a2e5760008415612a1c578287015490505b612a268582612723565b865550612a99565b601f198416612a3c87612593565b9650612a4786612593565b60005b82811015612a6f57848901548255600182019150600185019450602081019050612a4a565b86831015612a8c5784890154612a88601f891682612705565b8355505b6001600288020188555050505b5050505050505b56fea2646970667358221220ccb0b35c174f6c2d00da633d5c25ab33ca29a383ab6817a427adb4d22b876dd264736f6c634300080f0033",
  "immutableReferences": {},
  "source": "//SPDX-License-Identifier: MIT\npragma solidity ^0.8.0;\npragma experimental ABIEncoderV2;\n\n// import \"./Student.sol\";\n// import \"./Instructor.sol\";\n// import \"./SaiCreditToken.sol\";\n// import \"./AccessControl.sol\";\ncontract Courseblocks {\n//     Student public student1;\n//     Instructor public instructor1;\n    // SaiCreditToken public saitoken;\n//     AccessControl public access;\n\n//    constructor(address _saitoken,address _access,address _student,address _instructor){\n//         saitoken = SaiCreditToken(_saitoken);\n//         access = AccessControl(_access);\n//         student1 = Student(_student);\n//         instructor1 = Instructor(_instructor);\n//     }\n//    constructor(address _saitoken){\n//         // saitoken = SaiCreditToken(_saitoken);\n//     }\n    struct Course {\n        uint256 id;\n        string name;\n        string description;\n        string author_name;\n        address author_id;\n        uint256 price;\n        uint256 users;\n        uint256 deadline;\n        string thumbnail_hash;\n        string file_hash;\n        string[] assignment_hash;\n    }\n\n    struct StudentCourse{\n        uint256[] courses_id;\n        uint256[] courses_deadline;\n        uint256[] marks;\n        string[] submission_hash;\n        mapping(uint256 => bool) bought;\n    }\n\n    uint256 studentCount;\n    uint256 educatorCount;\n    uint256 public courseCount;\n\n\n    mapping(uint256 => Course) courses;\n    mapping(address => StudentCourse) students;\n    mapping(address => bool) hasAccount;\n    mapping(address =>  mapping(uint256 => Course)) instrCourseIDs;\n    mapping(address => uint256) instrCourseCount;\n\n    function addCourse(\n        string memory n,\n        string memory desc,\n        string memory auth,\n        uint256 p,\n        uint256 d,\n        address e_id\n    ) public {\n       // require(access.hasInstrRoleWADD(e_id), \"Not authorized to add course\"); //check if it's an Educator account\n        courses[courseCount].id = courseCount;\n        courses[courseCount].name = n;\n        courses[courseCount].description = desc;\n        courses[courseCount].author_name = auth;\n        courses[courseCount].author_id = e_id;\n        courses[courseCount].price = p;\n        courses[courseCount].users = 0;\n        courses[courseCount].deadline = d * 1 days;\n        instrCourseIDs[e_id][courseCount] = courses[courseCount];\n        instrCourseCount[e_id]++;\n        courseCount++;\n        //adding course ID to educator struct\n       // instructor1.addCourseID(e_id,courseCount);\n    }\n\n    function buyCourse(\n        address s_id,\n        uint256 c_id,\n        uint256 _time\n    ) public {\n        // require(access.hasStudRoleWADD(s_id), \"Not authorized to buy course\"); //check if it's a Student account\n        courses[c_id].users++;\n        students[s_id].courses_id.push(c_id);\n        students[s_id].courses_deadline.push(courses[c_id].deadline + _time);\n        students[s_id].marks.push(0); //initializing marks for course\n        students[s_id].bought[c_id] = true;\n        // student1.addCourseID(s_id, c_id);\n        // student1.addDeadline(s_id, courses[c_id].deadline + _time);\n        // saitoken.transferFrom(s_id, e_id, courses[c_id].price);\n        // student1.addMarks(s_id, 0); //initializing marks for course\n    }\n\n    function boughtornot(address s_id,uint256 c_id) public view returns(bool) {\n        return students[s_id].bought[c_id];\n    }\n\n    function getauthID(uint256 c_id) public view returns(address) {\n        return courses[c_id].author_id;\n    }\n\n    function reviewAssignment(\n        address s_id,\n        uint256 c_id,\n        uint256 _m\n    ) public returns(uint256 num){\n         uint256 totalCourses = students[s_id].courses_id.length;\n        for (uint256 i = 0; i < totalCourses; i++) {\n            if (students[s_id].courses_id[i] == c_id) {\n                students[s_id].marks[i] = _m;\n            }\n        }\n        if (_m >= 90) {\n            // saitoken.transfer(s_id, 20);\n            return 20;\n        } else if (_m >= 80) {\n            // saitoken.transfer(s_id, 10);\n            return 10;\n        } else if (_m >= 70) {\n            // saitoken.transfer(s_id, 5);\n            return 5;\n        } else if (_m < 40) {\n            revert(\"Sorry, you have failed.\");\n        }\n        // require(access.hasInstrRoleWADD(msg.sender), \"Not authorized to review course\"); //only educator can review assignments\n        // uint256 totalCourses = student1.getTotalCourses(s_id);\n        // for (uint256 i = 0; i < totalCourses; i++) {\n        //     if (student1.getCourseID(s_id, i) == c_id) {\n        //         student1.addMarksWI(s_id, _m, i);\n        //     }\n        // }\n        // if (_m >= 90) {\n        //     saitoken.transfer(s_id, 20);\n        // } else if (_m >= 80) {\n        //     saitoken.transfer(s_id, 10);\n        // } else if (_m >= 70) {\n        //     saitoken.transfer(s_id, 5);\n        // } else if (_m < 40) {\n        //     revert(\"Sorry, you have failed.\");\n        // }\n        // return \"Assignment reviewed successfully\";\n    }\n\n    function submitAssignment(\n        address s_id,\n        uint256 c_id,\n        uint256 _time\n        // string memory _hash\n    ) public returns (bool bol) {\n         uint256 totalCourses = students[s_id].courses_id.length;\n        for (uint256 i = 0; i < totalCourses; i++) {\n            if (students[s_id].courses_id[i] == c_id) {\n                if (_time <= students[s_id].courses_deadline[i]) {\n                    bol = true;\n                    // students[s_id].submission_hash.push(_hash);\n                    return (true);\n                }\n                //if deadline passed,set marks=0\n                else {\n                    students[s_id].marks[i] = 0;\n                    bol = false;\n                    return (false);\n                }\n            }\n        }\n        // require(access.hasStudRoleWADD(s_id), \"Not authorized to submit course\"); //check if it's a Student account\n        // uint256 totalCourses = student1.getTotalCourses(s_id);\n        // for (uint256 i = 0; i < totalCourses; i++) {\n        //     if (student1.getCourseID(s_id, i) == c_id) {\n        //         if (_time <= student1.getDeadline(s_id,i)) {\n        //             return (true);\n        //         }\n        //         //if deadline passed,set marks=0\n        //         else {\n        //             student1.addMarksWI(s_id, 0, i);\n        //             return (false);\n        //         }\n        //     }\n        // }\n    }\n\n    function getCourse(uint256 _id) public view returns (Course memory) {\n        return (courses[_id]);\n    }\n\n    function getCourseIds(address s_id, uint256 idx) public view returns(uint256){\n        return students[s_id].courses_id[idx];\n    }\n\n    function getNoCoursesBought(address s_id) public view returns(uint256){\n        return students[s_id].courses_id.length;\n    }\n\n\n    function getCourseCount() public view returns (uint256) {\n        return (courseCount);\n    }\n\n     function setThumbhash(string memory _hash)public returns(string memory){\n        courses[courseCount].thumbnail_hash = _hash;\n        return \"IPFS hash added successfully\";\n\n    }\n\n     function getThumbHash(uint256 c_id) public view returns (string memory) {\n        return courses[c_id].thumbnail_hash;\n    }\n\n    function setFilehash(string memory _hash)public returns(string memory){\n        courses[courseCount].file_hash = _hash;\n        return \"IPFS hash added successfully\";\n\n    }\n\n     function getFileHash(uint256 c_id) public view returns (string memory) {\n        return courses[c_id].file_hash;\n    } \n    function getName(uint256 c_id) public view returns (string memory) {\n        return courses[c_id].name;\n    } \n\n    function getDesc(uint256 c_id) public view returns (string memory) {\n        return courses[c_id].description;\n    } \n\n    function getAuthName(uint256 c_id) public view returns (string memory) {\n        return courses[c_id].author_name;\n    }\n\n    function getUsers(uint256 c_id) public view returns (uint256) {\n        return courses[c_id].users;\n    }  \n\n    function getPrice(uint256 c_id) public view returns (uint256) {\n        return courses[c_id].price;\n    } \n\n    function setAssignmentHash(string memory _hash)public returns(string memory){\n        courses[courseCount].assignment_hash.push(_hash);\n        return \"IPFS hash added successfully\";\n\n    }\n    function setSubmissionHah(address s_id,string memory _hash) public returns(string memory) {\n        students[s_id].submission_hash.push(_hash);\n        return \"IPFS hash added successfully\";\n    }\n\n     function getSubmissionHah(address s_id) public view returns(string memory) {\n        return students[s_id].submission_hash[0];\n    }\n\n    function getAssignmentHash(uint256 c_id)public view returns(string memory){\n        return courses[c_id].assignment_hash[0];\n    }\n\n    function getNoAssignments(uint256 c_id) public view returns(uint256){\n        return courses[c_id].assignment_hash.length;\n    }\n\n\n}",
  "sourcePath": "/home/jarvis/projects/mtech_proj-main/contracts/Courseblocks.sol",
  "compiler": {
    "name": "solc",
    "version": "0.8.15+commit.e14f2714.Emscripten.clang"
  },
  "schemaVersion": "3.4.8",
  "updatedAt": "2023-04-05T09:16:57.605Z",
  "networkType": "ethereum",
  "devdoc": {
    "kind": "dev",
    "methods": {},
    "version": 1
  },
  "userdoc": {
    "kind": "user",
    "methods": {},
    "version": 1
  }
}