{
  "contractName": "Dappcord",
  "abi": [
    {
      "inputs": [],
      "stateMutability": "nonpayable",
      "type": "constructor"
    },
    {
      "anonymous": false,
      "inputs": [
        {
          "indexed": true,
          "internalType": "address",
          "name": "owner",
          "type": "address"
        },
        {
          "indexed": true,
          "internalType": "address",
          "name": "approved",
          "type": "address"
        },
        {
          "indexed": true,
          "internalType": "uint256",
          "name": "tokenId",
          "type": "uint256"
        }
      ],
      "name": "Approval",
      "type": "event"
    },
    {
      "anonymous": false,
      "inputs": [
        {
          "indexed": true,
          "internalType": "address",
          "name": "owner",
          "type": "address"
        },
        {
          "indexed": true,
          "internalType": "address",
          "name": "operator",
          "type": "address"
        },
        {
          "indexed": false,
          "internalType": "bool",
          "name": "approved",
          "type": "bool"
        }
      ],
      "name": "ApprovalForAll",
      "type": "event"
    },
    {
      "anonymous": false,
      "inputs": [
        {
          "indexed": true,
          "internalType": "address",
          "name": "from",
          "type": "address"
        },
        {
          "indexed": true,
          "internalType": "address",
          "name": "to",
          "type": "address"
        },
        {
          "indexed": true,
          "internalType": "uint256",
          "name": "tokenId",
          "type": "uint256"
        }
      ],
      "name": "Transfer",
      "type": "event"
    },
    {
      "inputs": [
        {
          "internalType": "address",
          "name": "to",
          "type": "address"
        },
        {
          "internalType": "uint256",
          "name": "tokenId",
          "type": "uint256"
        }
      ],
      "name": "approve",
      "outputs": [],
      "stateMutability": "nonpayable",
      "type": "function"
    },
    {
      "inputs": [
        {
          "internalType": "address",
          "name": "owner",
          "type": "address"
        }
      ],
      "name": "balanceOf",
      "outputs": [
        {
          "internalType": "uint256",
          "name": "",
          "type": "uint256"
        }
      ],
      "stateMutability": "view",
      "type": "function",
      "constant": true
    },
    {
      "inputs": [
        {
          "internalType": "uint256",
          "name": "",
          "type": "uint256"
        }
      ],
      "name": "channels",
      "outputs": [
        {
          "internalType": "uint256",
          "name": "id",
          "type": "uint256"
        },
        {
          "internalType": "string",
          "name": "name",
          "type": "string"
        },
        {
          "internalType": "uint256",
          "name": "cost",
          "type": "uint256"
        },
        {
          "internalType": "address",
          "name": "owner",
          "type": "address"
        }
      ],
      "stateMutability": "view",
      "type": "function",
      "constant": true
    },
    {
      "inputs": [
        {
          "internalType": "uint256",
          "name": "tokenId",
          "type": "uint256"
        }
      ],
      "name": "getApproved",
      "outputs": [
        {
          "internalType": "address",
          "name": "",
          "type": "address"
        }
      ],
      "stateMutability": "view",
      "type": "function",
      "constant": true
    },
    {
      "inputs": [
        {
          "internalType": "uint256",
          "name": "",
          "type": "uint256"
        },
        {
          "internalType": "address",
          "name": "",
          "type": "address"
        }
      ],
      "name": "hasJoined",
      "outputs": [
        {
          "internalType": "bool",
          "name": "",
          "type": "bool"
        }
      ],
      "stateMutability": "view",
      "type": "function",
      "constant": true
    },
    {
      "inputs": [
        {
          "internalType": "address",
          "name": "owner",
          "type": "address"
        },
        {
          "internalType": "address",
          "name": "operator",
          "type": "address"
        }
      ],
      "name": "isApprovedForAll",
      "outputs": [
        {
          "internalType": "bool",
          "name": "",
          "type": "bool"
        }
      ],
      "stateMutability": "view",
      "type": "function",
      "constant": true
    },
    {
      "inputs": [],
      "name": "name",
      "outputs": [
        {
          "internalType": "string",
          "name": "",
          "type": "string"
        }
      ],
      "stateMutability": "view",
      "type": "function",
      "constant": true
    },
    {
      "inputs": [],
      "name": "owner",
      "outputs": [
        {
          "internalType": "address",
          "name": "",
          "type": "address"
        }
      ],
      "stateMutability": "view",
      "type": "function",
      "constant": true
    },
    {
      "inputs": [
        {
          "internalType": "uint256",
          "name": "tokenId",
          "type": "uint256"
        }
      ],
      "name": "ownerOf",
      "outputs": [
        {
          "internalType": "address",
          "name": "",
          "type": "address"
        }
      ],
      "stateMutability": "view",
      "type": "function",
      "constant": true
    },
    {
      "inputs": [
        {
          "internalType": "address",
          "name": "from",
          "type": "address"
        },
        {
          "internalType": "address",
          "name": "to",
          "type": "address"
        },
        {
          "internalType": "uint256",
          "name": "tokenId",
          "type": "uint256"
        }
      ],
      "name": "safeTransferFrom",
      "outputs": [],
      "stateMutability": "nonpayable",
      "type": "function"
    },
    {
      "inputs": [
        {
          "internalType": "address",
          "name": "from",
          "type": "address"
        },
        {
          "internalType": "address",
          "name": "to",
          "type": "address"
        },
        {
          "internalType": "uint256",
          "name": "tokenId",
          "type": "uint256"
        },
        {
          "internalType": "bytes",
          "name": "data",
          "type": "bytes"
        }
      ],
      "name": "safeTransferFrom",
      "outputs": [],
      "stateMutability": "nonpayable",
      "type": "function"
    },
    {
      "inputs": [
        {
          "internalType": "address",
          "name": "operator",
          "type": "address"
        },
        {
          "internalType": "bool",
          "name": "approved",
          "type": "bool"
        }
      ],
      "name": "setApprovalForAll",
      "outputs": [],
      "stateMutability": "nonpayable",
      "type": "function"
    },
    {
      "inputs": [
        {
          "internalType": "bytes4",
          "name": "interfaceId",
          "type": "bytes4"
        }
      ],
      "name": "supportsInterface",
      "outputs": [
        {
          "internalType": "bool",
          "name": "",
          "type": "bool"
        }
      ],
      "stateMutability": "view",
      "type": "function",
      "constant": true
    },
    {
      "inputs": [],
      "name": "symbol",
      "outputs": [
        {
          "internalType": "string",
          "name": "",
          "type": "string"
        }
      ],
      "stateMutability": "view",
      "type": "function",
      "constant": true
    },
    {
      "inputs": [
        {
          "internalType": "uint256",
          "name": "tokenId",
          "type": "uint256"
        }
      ],
      "name": "tokenURI",
      "outputs": [
        {
          "internalType": "string",
          "name": "",
          "type": "string"
        }
      ],
      "stateMutability": "view",
      "type": "function",
      "constant": true
    },
    {
      "inputs": [],
      "name": "totalChannels",
      "outputs": [
        {
          "internalType": "uint256",
          "name": "",
          "type": "uint256"
        }
      ],
      "stateMutability": "view",
      "type": "function",
      "constant": true
    },
    {
      "inputs": [],
      "name": "totalSupply",
      "outputs": [
        {
          "internalType": "uint256",
          "name": "",
          "type": "uint256"
        }
      ],
      "stateMutability": "view",
      "type": "function",
      "constant": true
    },
    {
      "inputs": [
        {
          "internalType": "address",
          "name": "from",
          "type": "address"
        },
        {
          "internalType": "address",
          "name": "to",
          "type": "address"
        },
        {
          "internalType": "uint256",
          "name": "tokenId",
          "type": "uint256"
        }
      ],
      "name": "transferFrom",
      "outputs": [],
      "stateMutability": "nonpayable",
      "type": "function"
    },
    {
      "inputs": [
        {
          "internalType": "string",
          "name": "_name",
          "type": "string"
        },
        {
          "internalType": "uint256",
          "name": "_cost",
          "type": "uint256"
        }
      ],
      "name": "createChannel",
      "outputs": [],
      "stateMutability": "nonpayable",
      "type": "function"
    },
    {
      "inputs": [
        {
          "internalType": "uint256",
          "name": "_id",
          "type": "uint256"
        }
      ],
      "name": "mint",
      "outputs": [],
      "stateMutability": "payable",
      "type": "function",
      "payable": true
    },
    {
      "inputs": [
        {
          "internalType": "uint256",
          "name": "_id",
          "type": "uint256"
        }
      ],
      "name": "getChannel",
      "outputs": [
        {
          "components": [
            {
              "internalType": "uint256",
              "name": "id",
              "type": "uint256"
            },
            {
              "internalType": "string",
              "name": "name",
              "type": "string"
            },
            {
              "internalType": "uint256",
              "name": "cost",
              "type": "uint256"
            },
            {
              "internalType": "address",
              "name": "owner",
              "type": "address"
            }
          ],
          "internalType": "struct Dappcord.Channel",
          "name": "",
          "type": "tuple"
        }
      ],
      "stateMutability": "view",
      "type": "function",
      "constant": true
    },
    {
      "inputs": [
        {
          "internalType": "address",
          "name": "owneradd",
          "type": "address"
        }
      ],
      "name": "withdraw",
      "outputs": [],
      "stateMutability": "nonpayable",
      "type": "function"
    }
  ],
  "bytecode": "0x60806040523480156200001157600080fd5b506040518060400160405280600881526020017f44415050204e46540000000000000000000000000000000000000000000000008152506040518060400160405280600481526020017f444150500000000000000000000000000000000000000000000000000000000081525081600090816200008f919062000324565b508060019081620000a1919062000324565b5050506200040b565b600081519050919050565b7f4e487b7100000000000000000000000000000000000000000000000000000000600052604160045260246000fd5b7f4e487b7100000000000000000000000000000000000000000000000000000000600052602260045260246000fd5b600060028204905060018216806200012c57607f821691505b602082108103620001425762000141620000e4565b5b50919050565b60008190508160005260206000209050919050565b60006020601f8301049050919050565b600082821b905092915050565b600060088302620001ac7fffffffffffffffffffffffffffffffffffffffffffffffffffffffffffffffff826200016d565b620001b886836200016d565b95508019841693508086168417925050509392505050565b6000819050919050565b6000819050919050565b600062000205620001ff620001f984620001d0565b620001da565b620001d0565b9050919050565b6000819050919050565b6200022183620001e4565b6200023962000230826200020c565b8484546200017a565b825550505050565b600090565b6200025062000241565b6200025d81848462000216565b505050565b5b8181101562000285576200027960008262000246565b60018101905062000263565b5050565b601f821115620002d4576200029e8162000148565b620002a9846200015d565b81016020851015620002b9578190505b620002d1620002c8856200015d565b83018262000262565b50505b505050565b600082821c905092915050565b6000620002f960001984600802620002d9565b1980831691505092915050565b6000620003148383620002e6565b9150826002028217905092915050565b6200032f82620000aa565b67ffffffffffffffff8111156200034b576200034a620000b5565b5b62000357825462000113565b6200036482828562000289565b600060209050601f8311600181146200039c576000841562000387578287015190505b62000393858262000306565b86555062000403565b601f198416620003ac8662000148565b60005b82811015620003d657848901518255600182019150602085019450602081019050620003af565b86831015620003f65784890151620003f2601f891682620002e6565b8355505b6001600288020188555050505b505050505050565b613235806200041b6000396000f3fe6080604052600436106101355760003560e01c806370a08231116100ab578063a14865cd1161006f578063a14865cd1461043f578063a22cb46514610468578063b88d4fde14610491578063c87b56dd146104ba578063e5949b5d146104f7578063e985e9c51461053757610135565b806370a08231146103655780637734a9f6146103a25780638da5cb5b146103cd57806395d89b41146103f8578063a0712d681461042357610135565b806318160ddd116100fd57806318160ddd1461024557806323b872dd1461027057806342842e0e1461029957806351cff8d9146102c25780636352211e146102eb578063681947191461032857610135565b806301ffc9a71461013a57806306fdde0314610177578063081812fc146101a2578063095ea7b3146101df57806310df54a014610208575b600080fd5b34801561014657600080fd5b50610161600480360381019061015c9190611f77565b610574565b60405161016e9190611fbf565b60405180910390f35b34801561018357600080fd5b5061018c610656565b6040516101999190612073565b60405180910390f35b3480156101ae57600080fd5b506101c960048036038101906101c491906120cb565b6106e8565b6040516101d69190612139565b60405180910390f35b3480156101eb57600080fd5b5061020660048036038101906102019190612180565b61072e565b005b34801561021457600080fd5b5061022f600480360381019061022a91906120cb565b610845565b60405161023c919061228b565b60405180910390f35b34801561025157600080fd5b5061025a61096e565b60405161026791906122bc565b60405180910390f35b34801561027c57600080fd5b50610297600480360381019061029291906122d7565b610974565b005b3480156102a557600080fd5b506102c060048036038101906102bb91906122d7565b6109d4565b005b3480156102ce57600080fd5b506102e960048036038101906102e4919061232a565b6109f4565b005b3480156102f757600080fd5b50610312600480360381019061030d91906120cb565b610a6e565b60405161031f9190612139565b60405180910390f35b34801561033457600080fd5b5061034f600480360381019061034a9190612357565b610af4565b60405161035c9190611fbf565b60405180910390f35b34801561037157600080fd5b5061038c6004803603810190610387919061232a565b610b23565b60405161039991906122bc565b60405180910390f35b3480156103ae57600080fd5b506103b7610bda565b6040516103c491906122bc565b60405180910390f35b3480156103d957600080fd5b506103e2610be0565b6040516103ef9190612139565b60405180910390f35b34801561040457600080fd5b5061040d610c06565b60405161041a9190612073565b60405180910390f35b61043d600480360381019061043891906120cb565b610c98565b005b34801561044b57600080fd5b50610466600480360381019061046191906124cc565b610dd5565b005b34801561047457600080fd5b5061048f600480360381019061048a9190612554565b610eb3565b005b34801561049d57600080fd5b506104b860048036038101906104b39190612635565b610ec9565b005b3480156104c657600080fd5b506104e160048036038101906104dc91906120cb565b610f2b565b6040516104ee9190612073565b60405180910390f35b34801561050357600080fd5b5061051e600480360381019061051991906120cb565b610f93565b60405161052e94939291906126b8565b60405180910390f35b34801561054357600080fd5b5061055e60048036038101906105599190612704565b61106b565b60405161056b9190611fbf565b60405180910390f35b60007f80ac58cd000000000000000000000000000000000000000000000000000000007bffffffffffffffffffffffffffffffffffffffffffffffffffffffff1916827bffffffffffffffffffffffffffffffffffffffffffffffffffffffff1916148061063f57507f5b5e139f000000000000000000000000000000000000000000000000000000007bffffffffffffffffffffffffffffffffffffffffffffffffffffffff1916827bffffffffffffffffffffffffffffffffffffffffffffffffffffffff1916145b8061064f575061064e826110ff565b5b9050919050565b60606000805461066590612773565b80601f016020809104026020016040519081016040528092919081815260200182805461069190612773565b80156106de5780601f106106b3576101008083540402835291602001916106de565b820191906000526020600020905b8154815290600101906020018083116106c157829003601f168201915b5050505050905090565b60006106f382611169565b6004600083815260200190815260200160002060009054906101000a900473ffffffffffffffffffffffffffffffffffffffff169050919050565b600061073982610a6e565b90508073ffffffffffffffffffffffffffffffffffffffff168373ffffffffffffffffffffffffffffffffffffffff16036107a9576040517f08c379a00000000000000000000000000000000000000000000000000000000081526004016107a090612816565b60405180910390fd5b8073ffffffffffffffffffffffffffffffffffffffff166107c86111b4565b73ffffffffffffffffffffffffffffffffffffffff1614806107f757506107f6816107f16111b4565b61106b565b5b610836576040517f08c379a000000000000000000000000000000000000000000000000000000000815260040161082d906128a8565b60405180910390fd5b61084083836111bc565b505050565b61084d611ecd565b600960008381526020019081526020016000206040518060800160405290816000820154815260200160018201805461088590612773565b80601f01602080910402602001604051908101604052809291908181526020018280546108b190612773565b80156108fe5780601f106108d3576101008083540402835291602001916108fe565b820191906000526020600020905b8154815290600101906020018083116108e157829003601f168201915b50505050508152602001600282015481526020016003820160009054906101000a900473ffffffffffffffffffffffffffffffffffffffff1673ffffffffffffffffffffffffffffffffffffffff1673ffffffffffffffffffffffffffffffffffffffff16815250509050919050565b60065481565b61098561097f6111b4565b82611275565b6109c4576040517f08c379a00000000000000000000000000000000000000000000000000000000081526004016109bb9061293a565b60405180910390fd5b6109cf83838361130a565b505050565b6109ef83838360405180602001604052806000815250610ec9565b505050565b60008173ffffffffffffffffffffffffffffffffffffffff1647604051610a1a9061298b565b60006040518083038185875af1925050503d8060008114610a57576040519150601f19603f3d011682016040523d82523d6000602084013e610a5c565b606091505b5050905080610a6a57600080fd5b5050565b600080610a7a83611603565b9050600073ffffffffffffffffffffffffffffffffffffffff168173ffffffffffffffffffffffffffffffffffffffff1603610aeb576040517f08c379a0000000000000000000000000000000000000000000000000000000008152600401610ae2906129ec565b60405180910390fd5b80915050919050565b600a6020528160005260406000206020528060005260406000206000915091509054906101000a900460ff1681565b60008073ffffffffffffffffffffffffffffffffffffffff168273ffffffffffffffffffffffffffffffffffffffff1603610b93576040517f08c379a0000000000000000000000000000000000000000000000000000000008152600401610b8a90612a7e565b60405180910390fd5b600360008373ffffffffffffffffffffffffffffffffffffffff1673ffffffffffffffffffffffffffffffffffffffff168152602001908152602001600020549050919050565b60075481565b600860009054906101000a900473ffffffffffffffffffffffffffffffffffffffff1681565b606060018054610c1590612773565b80601f0160208091040260200160405190810160405280929190818152602001828054610c4190612773565b8015610c8e5780601f10610c6357610100808354040283529160200191610c8e565b820191906000526020600020905b815481529060010190602001808311610c7157829003601f168201915b5050505050905090565b60008103610ca557600080fd5b600754811115610cb457600080fd5b60001515600a600083815260200190815260200160002060003373ffffffffffffffffffffffffffffffffffffffff1673ffffffffffffffffffffffffffffffffffffffff16815260200190815260200160002060009054906101000a900460ff16151514610d2257600080fd5b6009600082815260200190815260200160002060020154341015610d4557600080fd5b6001600a600083815260200190815260200160002060003373ffffffffffffffffffffffffffffffffffffffff1673ffffffffffffffffffffffffffffffffffffffff16815260200190815260200160002060006101000a81548160ff02191690831515021790555060066000815480929190610dc190612acd565b9190505550610dd233600654611640565b50565b60076000815480929190610de890612acd565b9190505550604051806080016040528060075481526020018381526020018281526020013373ffffffffffffffffffffffffffffffffffffffff16815250600960006007548152602001908152602001600020600082015181600001556020820151816001019081610e5a9190612cc1565b506040820151816002015560608201518160030160006101000a81548173ffffffffffffffffffffffffffffffffffffffff021916908373ffffffffffffffffffffffffffffffffffffffff1602179055509050505050565b610ec5610ebe6111b4565b838361165e565b5050565b610eda610ed46111b4565b83611275565b610f19576040517f08c379a0000000000000000000000000000000000000000000000000000000008152600401610f109061293a565b60405180910390fd5b610f25848484846117ca565b50505050565b6060610f3682611169565b6000610f40611826565b90506000815111610f605760405180602001604052806000815250610f8b565b80610f6a8461183d565b604051602001610f7b929190612dcf565b6040516020818303038152906040525b915050919050565b6009602052806000526040600020600091509050806000015490806001018054610fbc90612773565b80601f0160208091040260200160405190810160405280929190818152602001828054610fe890612773565b80156110355780601f1061100a57610100808354040283529160200191611035565b820191906000526020600020905b81548152906001019060200180831161101857829003601f168201915b5050505050908060020154908060030160009054906101000a900473ffffffffffffffffffffffffffffffffffffffff16905084565b6000600560008473ffffffffffffffffffffffffffffffffffffffff1673ffffffffffffffffffffffffffffffffffffffff16815260200190815260200160002060008373ffffffffffffffffffffffffffffffffffffffff1673ffffffffffffffffffffffffffffffffffffffff16815260200190815260200160002060009054906101000a900460ff16905092915050565b60007f01ffc9a7000000000000000000000000000000000000000000000000000000007bffffffffffffffffffffffffffffffffffffffffffffffffffffffff1916827bffffffffffffffffffffffffffffffffffffffffffffffffffffffff1916149050919050565b6111728161190b565b6111b1576040517f08c379a00000000000000000000000000000000000000000000000000000000081526004016111a8906129ec565b60405180910390fd5b50565b600033905090565b816004600083815260200190815260200160002060006101000a81548173ffffffffffffffffffffffffffffffffffffffff021916908373ffffffffffffffffffffffffffffffffffffffff160217905550808273ffffffffffffffffffffffffffffffffffffffff1661122f83610a6e565b73ffffffffffffffffffffffffffffffffffffffff167f8c5be1e5ebec7d5bd14f71427d1e84f3dd0314c0f7b2291e5b200ac8c7c3b92560405160405180910390a45050565b60008061128183610a6e565b90508073ffffffffffffffffffffffffffffffffffffffff168473ffffffffffffffffffffffffffffffffffffffff1614806112c357506112c2818561106b565b5b8061130157508373ffffffffffffffffffffffffffffffffffffffff166112e9846106e8565b73ffffffffffffffffffffffffffffffffffffffff16145b91505092915050565b8273ffffffffffffffffffffffffffffffffffffffff1661132a82610a6e565b73ffffffffffffffffffffffffffffffffffffffff1614611380576040517f08c379a000000000000000000000000000000000000000000000000000000000815260040161137790612e65565b60405180910390fd5b600073ffffffffffffffffffffffffffffffffffffffff168273ffffffffffffffffffffffffffffffffffffffff16036113ef576040517f08c379a00000000000000000000000000000000000000000000000000000000081526004016113e690612ef7565b60405180910390fd5b6113fc838383600161194c565b8273ffffffffffffffffffffffffffffffffffffffff1661141c82610a6e565b73ffffffffffffffffffffffffffffffffffffffff1614611472576040517f08c379a000000000000000000000000000000000000000000000000000000000815260040161146990612e65565b60405180910390fd5b6004600082815260200190815260200160002060006101000a81549073ffffffffffffffffffffffffffffffffffffffff02191690556001600360008573ffffffffffffffffffffffffffffffffffffffff1673ffffffffffffffffffffffffffffffffffffffff168152602001908152602001600020600082825403925050819055506001600360008473ffffffffffffffffffffffffffffffffffffffff1673ffffffffffffffffffffffffffffffffffffffff16815260200190815260200160002060008282540192505081905550816002600083815260200190815260200160002060006101000a81548173ffffffffffffffffffffffffffffffffffffffff021916908373ffffffffffffffffffffffffffffffffffffffff160217905550808273ffffffffffffffffffffffffffffffffffffffff168473ffffffffffffffffffffffffffffffffffffffff167fddf252ad1be2c89b69c2b068fc378daa952ba7f163c4a11628f55a4df523b3ef60405160405180910390a46115fe8383836001611952565b505050565b60006002600083815260200190815260200160002060009054906101000a900473ffffffffffffffffffffffffffffffffffffffff169050919050565b61165a828260405180602001604052806000815250611958565b5050565b8173ffffffffffffffffffffffffffffffffffffffff168373ffffffffffffffffffffffffffffffffffffffff16036116cc576040517f08c379a00000000000000000000000000000000000000000000000000000000081526004016116c390612f63565b60405180910390fd5b80600560008573ffffffffffffffffffffffffffffffffffffffff1673ffffffffffffffffffffffffffffffffffffffff16815260200190815260200160002060008473ffffffffffffffffffffffffffffffffffffffff1673ffffffffffffffffffffffffffffffffffffffff16815260200190815260200160002060006101000a81548160ff0219169083151502179055508173ffffffffffffffffffffffffffffffffffffffff168373ffffffffffffffffffffffffffffffffffffffff167f17307eab39ab6107e8899845ad3d59bd9653f200f220920489ca2b5937696c31836040516117bd9190611fbf565b60405180910390a3505050565b6117d584848461130a565b6117e1848484846119b3565b611820576040517f08c379a000000000000000000000000000000000000000000000000000000000815260040161181790612ff5565b60405180910390fd5b50505050565b606060405180602001604052806000815250905090565b60606000600161184c84611b3a565b01905060008167ffffffffffffffff81111561186b5761186a6123a1565b5b6040519080825280601f01601f19166020018201604052801561189d5781602001600182028036833780820191505090505b509050600082602001820190505b600115611900578080600190039150507f3031323334353637383961626364656600000000000000000000000000000000600a86061a8153600a85816118f4576118f3613015565b5b049450600085036118ab575b819350505050919050565b60008073ffffffffffffffffffffffffffffffffffffffff1661192d83611603565b73ffffffffffffffffffffffffffffffffffffffff1614159050919050565b50505050565b50505050565b6119628383611c8d565b61196f60008484846119b3565b6119ae576040517f08c379a00000000000000000000000000000000000000000000000000000000081526004016119a590612ff5565b60405180910390fd5b505050565b60006119d48473ffffffffffffffffffffffffffffffffffffffff16611eaa565b15611b2d578373ffffffffffffffffffffffffffffffffffffffff1663150b7a026119fd6111b4565b8786866040518563ffffffff1660e01b8152600401611a1f9493929190613099565b6020604051808303816000875af1925050508015611a5b57506040513d601f19601f82011682018060405250810190611a5891906130fa565b60015b611add573d8060008114611a8b576040519150601f19603f3d011682016040523d82523d6000602084013e611a90565b606091505b506000815103611ad5576040517f08c379a0000000000000000000000000000000000000000000000000000000008152600401611acc90612ff5565b60405180910390fd5b805181602001fd5b63150b7a0260e01b7bffffffffffffffffffffffffffffffffffffffffffffffffffffffff1916817bffffffffffffffffffffffffffffffffffffffffffffffffffffffff191614915050611b32565b600190505b949350505050565b600080600090507a184f03e93ff9f4daa797ed6e38ed64bf6a1f0100000000000000008310611b98577a184f03e93ff9f4daa797ed6e38ed64bf6a1f0100000000000000008381611b8e57611b8d613015565b5b0492506040810190505b6d04ee2d6d415b85acef81000000008310611bd5576d04ee2d6d415b85acef81000000008381611bcb57611bca613015565b5b0492506020810190505b662386f26fc100008310611c0457662386f26fc100008381611bfa57611bf9613015565b5b0492506010810190505b6305f5e1008310611c2d576305f5e1008381611c2357611c22613015565b5b0492506008810190505b6127108310611c52576127108381611c4857611c47613015565b5b0492506004810190505b60648310611c755760648381611c6b57611c6a613015565b5b0492506002810190505b600a8310611c84576001810190505b80915050919050565b600073ffffffffffffffffffffffffffffffffffffffff168273ffffffffffffffffffffffffffffffffffffffff1603611cfc576040517f08c379a0000000000000000000000000000000000000000000000000000000008152600401611cf390613173565b60405180910390fd5b611d058161190b565b15611d45576040517f08c379a0000000000000000000000000000000000000000000000000000000008152600401611d3c906131df565b60405180910390fd5b611d5360008383600161194c565b611d5c8161190b565b15611d9c576040517f08c379a0000000000000000000000000000000000000000000000000000000008152600401611d93906131df565b60405180910390fd5b6001600360008473ffffffffffffffffffffffffffffffffffffffff1673ffffffffffffffffffffffffffffffffffffffff16815260200190815260200160002060008282540192505081905550816002600083815260200190815260200160002060006101000a81548173ffffffffffffffffffffffffffffffffffffffff021916908373ffffffffffffffffffffffffffffffffffffffff160217905550808273ffffffffffffffffffffffffffffffffffffffff16600073ffffffffffffffffffffffffffffffffffffffff167fddf252ad1be2c89b69c2b068fc378daa952ba7f163c4a11628f55a4df523b3ef60405160405180910390a4611ea6600083836001611952565b5050565b6000808273ffffffffffffffffffffffffffffffffffffffff163b119050919050565b6040518060800160405280600081526020016060815260200160008152602001600073ffffffffffffffffffffffffffffffffffffffff1681525090565b6000604051905090565b600080fd5b600080fd5b60007fffffffff0000000000000000000000000000000000000000000000000000000082169050919050565b611f5481611f1f565b8114611f5f57600080fd5b50565b600081359050611f7181611f4b565b92915050565b600060208284031215611f8d57611f8c611f15565b5b6000611f9b84828501611f62565b91505092915050565b60008115159050919050565b611fb981611fa4565b82525050565b6000602082019050611fd46000830184611fb0565b92915050565b600081519050919050565b600082825260208201905092915050565b60005b83811015612014578082015181840152602081019050611ff9565b83811115612023576000848401525b50505050565b6000601f19601f8301169050919050565b600061204582611fda565b61204f8185611fe5565b935061205f818560208601611ff6565b61206881612029565b840191505092915050565b6000602082019050818103600083015261208d818461203a565b905092915050565b6000819050919050565b6120a881612095565b81146120b357600080fd5b50565b6000813590506120c58161209f565b92915050565b6000602082840312156120e1576120e0611f15565b5b60006120ef848285016120b6565b91505092915050565b600073ffffffffffffffffffffffffffffffffffffffff82169050919050565b6000612123826120f8565b9050919050565b61213381612118565b82525050565b600060208201905061214e600083018461212a565b92915050565b61215d81612118565b811461216857600080fd5b50565b60008135905061217a81612154565b92915050565b6000806040838503121561219757612196611f15565b5b60006121a58582860161216b565b92505060206121b6858286016120b6565b9150509250929050565b6121c981612095565b82525050565b600082825260208201905092915050565b60006121eb82611fda565b6121f581856121cf565b9350612205818560208601611ff6565b61220e81612029565b840191505092915050565b61222281612118565b82525050565b600060808301600083015161224060008601826121c0565b506020830151848203602086015261225882826121e0565b915050604083015161226d60408601826121c0565b5060608301516122806060860182612219565b508091505092915050565b600060208201905081810360008301526122a58184612228565b905092915050565b6122b681612095565b82525050565b60006020820190506122d160008301846122ad565b92915050565b6000806000606084860312156122f0576122ef611f15565b5b60006122fe8682870161216b565b935050602061230f8682870161216b565b9250506040612320868287016120b6565b9150509250925092565b6000602082840312156123405761233f611f15565b5b600061234e8482850161216b565b91505092915050565b6000806040838503121561236e5761236d611f15565b5b600061237c858286016120b6565b925050602061238d8582860161216b565b9150509250929050565b600080fd5b600080fd5b7f4e487b7100000000000000000000000000000000000000000000000000000000600052604160045260246000fd5b6123d982612029565b810181811067ffffffffffffffff821117156123f8576123f76123a1565b5b80604052505050565b600061240b611f0b565b905061241782826123d0565b919050565b600067ffffffffffffffff821115612437576124366123a1565b5b61244082612029565b9050602081019050919050565b82818337600083830152505050565b600061246f61246a8461241c565b612401565b90508281526020810184848401111561248b5761248a61239c565b5b61249684828561244d565b509392505050565b600082601f8301126124b3576124b2612397565b5b81356124c384826020860161245c565b91505092915050565b600080604083850312156124e3576124e2611f15565b5b600083013567ffffffffffffffff81111561250157612500611f1a565b5b61250d8582860161249e565b925050602061251e858286016120b6565b9150509250929050565b61253181611fa4565b811461253c57600080fd5b50565b60008135905061254e81612528565b92915050565b6000806040838503121561256b5761256a611f15565b5b60006125798582860161216b565b925050602061258a8582860161253f565b9150509250929050565b600067ffffffffffffffff8211156125af576125ae6123a1565b5b6125b882612029565b9050602081019050919050565b60006125d86125d384612594565b612401565b9050828152602081018484840111156125f4576125f361239c565b5b6125ff84828561244d565b509392505050565b600082601f83011261261c5761261b612397565b5b813561262c8482602086016125c5565b91505092915050565b6000806000806080858703121561264f5761264e611f15565b5b600061265d8782880161216b565b945050602061266e8782880161216b565b935050604061267f878288016120b6565b925050606085013567ffffffffffffffff8111156126a05761269f611f1a565b5b6126ac87828801612607565b91505092959194509250565b60006080820190506126cd60008301876122ad565b81810360208301526126df818661203a565b90506126ee60408301856122ad565b6126fb606083018461212a565b95945050505050565b6000806040838503121561271b5761271a611f15565b5b60006127298582860161216b565b925050602061273a8582860161216b565b9150509250929050565b7f4e487b7100000000000000000000000000000000000000000000000000000000600052602260045260246000fd5b6000600282049050600182168061278b57607f821691505b60208210810361279e5761279d612744565b5b50919050565b7f4552433732313a20617070726f76616c20746f2063757272656e74206f776e6560008201527f7200000000000000000000000000000000000000000000000000000000000000602082015250565b6000612800602183611fe5565b915061280b826127a4565b604082019050919050565b6000602082019050818103600083015261282f816127f3565b9050919050565b7f4552433732313a20617070726f76652063616c6c6572206973206e6f7420746f60008201527f6b656e206f776e6572206f7220617070726f76656420666f7220616c6c000000602082015250565b6000612892603d83611fe5565b915061289d82612836565b604082019050919050565b600060208201905081810360008301526128c181612885565b9050919050565b7f4552433732313a2063616c6c6572206973206e6f7420746f6b656e206f776e6560008201527f72206f7220617070726f76656400000000000000000000000000000000000000602082015250565b6000612924602d83611fe5565b915061292f826128c8565b604082019050919050565b6000602082019050818103600083015261295381612917565b9050919050565b600081905092915050565b50565b600061297560008361295a565b915061298082612965565b600082019050919050565b600061299682612968565b9150819050919050565b7f4552433732313a20696e76616c696420746f6b656e2049440000000000000000600082015250565b60006129d6601883611fe5565b91506129e1826129a0565b602082019050919050565b60006020820190508181036000830152612a05816129c9565b9050919050565b7f4552433732313a2061646472657373207a65726f206973206e6f74206120766160008201527f6c6964206f776e65720000000000000000000000000000000000000000000000602082015250565b6000612a68602983611fe5565b9150612a7382612a0c565b604082019050919050565b60006020820190508181036000830152612a9781612a5b565b9050919050565b7f4e487b7100000000000000000000000000000000000000000000000000000000600052601160045260246000fd5b6000612ad882612095565b91507fffffffffffffffffffffffffffffffffffffffffffffffffffffffffffffffff8203612b0a57612b09612a9e565b5b600182019050919050565b60008190508160005260206000209050919050565b60006020601f8301049050919050565b600082821b905092915050565b600060088302612b777fffffffffffffffffffffffffffffffffffffffffffffffffffffffffffffffff82612b3a565b612b818683612b3a565b95508019841693508086168417925050509392505050565b6000819050919050565b6000612bbe612bb9612bb484612095565b612b99565b612095565b9050919050565b6000819050919050565b612bd883612ba3565b612bec612be482612bc5565b848454612b47565b825550505050565b600090565b612c01612bf4565b612c0c818484612bcf565b505050565b5b81811015612c3057612c25600082612bf9565b600181019050612c12565b5050565b601f821115612c7557612c4681612b15565b612c4f84612b2a565b81016020851015612c5e578190505b612c72612c6a85612b2a565b830182612c11565b50505b505050565b600082821c905092915050565b6000612c9860001984600802612c7a565b1980831691505092915050565b6000612cb18383612c87565b9150826002028217905092915050565b612cca82611fda565b67ffffffffffffffff811115612ce357612ce26123a1565b5b612ced8254612773565b612cf8828285612c34565b600060209050601f831160018114612d2b5760008415612d19578287015190505b612d238582612ca5565b865550612d8b565b601f198416612d3986612b15565b60005b82811015612d6157848901518255600182019150602085019450602081019050612d3c565b86831015612d7e5784890151612d7a601f891682612c87565b8355505b6001600288020188555050505b505050505050565b600081905092915050565b6000612da982611fda565b612db38185612d93565b9350612dc3818560208601611ff6565b80840191505092915050565b6000612ddb8285612d9e565b9150612de78284612d9e565b91508190509392505050565b7f4552433732313a207472616e736665722066726f6d20696e636f72726563742060008201527f6f776e6572000000000000000000000000000000000000000000000000000000602082015250565b6000612e4f602583611fe5565b9150612e5a82612df3565b604082019050919050565b60006020820190508181036000830152612e7e81612e42565b9050919050565b7f4552433732313a207472616e7366657220746f20746865207a65726f2061646460008201527f7265737300000000000000000000000000000000000000000000000000000000602082015250565b6000612ee1602483611fe5565b9150612eec82612e85565b604082019050919050565b60006020820190508181036000830152612f1081612ed4565b9050919050565b7f4552433732313a20617070726f766520746f2063616c6c657200000000000000600082015250565b6000612f4d601983611fe5565b9150612f5882612f17565b602082019050919050565b60006020820190508181036000830152612f7c81612f40565b9050919050565b7f4552433732313a207472616e7366657220746f206e6f6e20455243373231526560008201527f63656976657220696d706c656d656e7465720000000000000000000000000000602082015250565b6000612fdf603283611fe5565b9150612fea82612f83565b604082019050919050565b6000602082019050818103600083015261300e81612fd2565b9050919050565b7f4e487b7100000000000000000000000000000000000000000000000000000000600052601260045260246000fd5b600081519050919050565b600082825260208201905092915050565b600061306b82613044565b613075818561304f565b9350613085818560208601611ff6565b61308e81612029565b840191505092915050565b60006080820190506130ae600083018761212a565b6130bb602083018661212a565b6130c860408301856122ad565b81810360608301526130da8184613060565b905095945050505050565b6000815190506130f481611f4b565b92915050565b6000602082840312156131105761310f611f15565b5b600061311e848285016130e5565b91505092915050565b7f4552433732313a206d696e7420746f20746865207a65726f2061646472657373600082015250565b600061315d602083611fe5565b915061316882613127565b602082019050919050565b6000602082019050818103600083015261318c81613150565b9050919050565b7f4552433732313a20746f6b656e20616c7265616479206d696e74656400000000600082015250565b60006131c9601c83611fe5565b91506131d482613193565b602082019050919050565b600060208201905081810360008301526131f8816131bc565b905091905056fea26469706673582212206ad863bd5492376c3fb9c5ecae7b16096c766822706064d6207b485ab20c544d64736f6c634300080f0033",
  "immutableReferences": {},
  "source": "// SPDX-License-Identifier: UNLICENSED\npragma solidity ^0.8.0;\n\n// import \"@openzeppelin/contracts/token/ERC721/ERC721.sol\";\nimport \"../notus-svelte-main/node_modules/@openzeppelin/contracts/token/ERC721/ERC721.sol\";\n\ncontract Dappcord is ERC721 {\n    uint256 public totalSupply;\n    uint256 public totalChannels;\n    address public owner;\n\n    struct Channel {\n        uint256 id;\n        string name;\n        uint256 cost;\n        address owner;\n    }\n\n    mapping(uint256 => Channel) public channels;\n    mapping(uint256 => mapping(address => bool)) public hasJoined;\n\n    modifier onlyOwner() {\n        require(msg.sender == owner);\n        _;\n    }\n\n    constructor()\n        ERC721(\"DAPP NFT\", \"DAPP\")\n    {\n        // owner = msg.sender;\n    }\n\n    function createChannel(string memory _name, uint256 _cost)\n        public\n    {\n        totalChannels++;\n        channels[totalChannels] = Channel(totalChannels, _name, _cost,msg.sender);\n    }\n\n    function mint(uint256 _id) public payable {\n        require(_id != 0);\n        require(_id <= totalChannels);\n        require(hasJoined[_id][msg.sender] == false);\n        require(msg.value >= channels[_id].cost);\n\n        hasJoined[_id][msg.sender] = true;\n        totalSupply++;\n\n        _safeMint(msg.sender, totalSupply);\n    }\n\n    function getChannel(uint256 _id) public view returns (Channel memory) {\n        return channels[_id];\n    }\n\n    function withdraw(address owneradd) public {\n        (bool success, ) = owneradd.call{value: address(this).balance}(\"\");\n        require(success);\n    }\n}",
  "sourcePath": "/home/jarvis/projects/mtech_proj-main/contracts/Dappcord.sol",
  "compiler": {
    "name": "solc",
    "version": "0.8.15+commit.e14f2714.Emscripten.clang"
  },
  "schemaVersion": "3.4.8",
  "updatedAt": "2023-04-05T09:16:57.633Z",
  "networkType": "ethereum",
  "devdoc": {
    "kind": "dev",
    "methods": {
      "approve(address,uint256)": {
        "details": "See {IERC721-approve}."
      },
      "balanceOf(address)": {
        "details": "See {IERC721-balanceOf}."
      },
      "getApproved(uint256)": {
        "details": "See {IERC721-getApproved}."
      },
      "isApprovedForAll(address,address)": {
        "details": "See {IERC721-isApprovedForAll}."
      },
      "name()": {
        "details": "See {IERC721Metadata-name}."
      },
      "ownerOf(uint256)": {
        "details": "See {IERC721-ownerOf}."
      },
      "safeTransferFrom(address,address,uint256)": {
        "details": "See {IERC721-safeTransferFrom}."
      },
      "safeTransferFrom(address,address,uint256,bytes)": {
        "details": "See {IERC721-safeTransferFrom}."
      },
      "setApprovalForAll(address,bool)": {
        "details": "See {IERC721-setApprovalForAll}."
      },
      "supportsInterface(bytes4)": {
        "details": "See {IERC165-supportsInterface}."
      },
      "symbol()": {
        "details": "See {IERC721Metadata-symbol}."
      },
      "tokenURI(uint256)": {
        "details": "See {IERC721Metadata-tokenURI}."
      },
      "transferFrom(address,address,uint256)": {
        "details": "See {IERC721-transferFrom}."
      }
    },
    "version": 1
  },
  "userdoc": {
    "kind": "user",
    "methods": {},
    "version": 1
  }
}