{
  "contractName": "Instructor",
  "abi": [
    {
      "inputs": [],
      "stateMutability": "nonpayable",
      "type": "constructor"
    },
    {
      "anonymous": false,
      "inputs": [
        {
          "indexed": false,
          "internalType": "address",
          "name": "_teacher",
          "type": "address"
        },
        {
          "indexed": false,
          "internalType": "string",
          "name": "message",
          "type": "string"
        }
      ],
      "name": "accessGiven",
      "type": "event"
    },
    {
      "anonymous": false,
      "inputs": [
        {
          "indexed": false,
          "internalType": "address",
          "name": "_teacher",
          "type": "address"
        },
        {
          "indexed": false,
          "internalType": "string",
          "name": "message",
          "type": "string"
        }
      ],
      "name": "accessRevoked",
      "type": "event"
    },
    {
      "anonymous": false,
      "inputs": [
        {
          "indexed": false,
          "internalType": "address",
          "name": "_student",
          "type": "address"
        },
        {
          "indexed": false,
          "internalType": "string",
          "name": "message",
          "type": "string"
        }
      ],
      "name": "detailsAdded",
      "type": "event"
    },
    {
      "anonymous": false,
      "inputs": [
        {
          "indexed": false,
          "internalType": "address",
          "name": "_teacher",
          "type": "address"
        },
        {
          "indexed": false,
          "internalType": "string",
          "name": "message",
          "type": "string"
        }
      ],
      "name": "prescrAdded",
      "type": "event"
    },
    {
      "inputs": [
        {
          "internalType": "address",
          "name": "",
          "type": "address"
        }
      ],
      "name": "instructorInfo",
      "outputs": [
        {
          "internalType": "string",
          "name": "name",
          "type": "string"
        },
        {
          "internalType": "string",
          "name": "designation",
          "type": "string"
        },
        {
          "internalType": "string",
          "name": "city",
          "type": "string"
        },
        {
          "internalType": "string",
          "name": "email",
          "type": "string"
        },
        {
          "internalType": "string",
          "name": "about_hash",
          "type": "string"
        },
        {
          "internalType": "string",
          "name": "prof_pic_hash",
          "type": "string"
        },
        {
          "internalType": "string",
          "name": "record_hash",
          "type": "string"
        }
      ],
      "stateMutability": "view",
      "type": "function",
      "constant": true
    },
    {
      "inputs": [],
      "name": "instructorsCount",
      "outputs": [
        {
          "internalType": "uint256",
          "name": "",
          "type": "uint256"
        }
      ],
      "stateMutability": "view",
      "type": "function",
      "constant": true
    },
    {
      "inputs": [
        {
          "internalType": "uint256",
          "name": "",
          "type": "uint256"
        }
      ],
      "name": "p_List",
      "outputs": [
        {
          "internalType": "address",
          "name": "",
          "type": "address"
        }
      ],
      "stateMutability": "view",
      "type": "function",
      "constant": true
    },
    {
      "inputs": [
        {
          "internalType": "address",
          "name": "",
          "type": "address"
        }
      ],
      "name": "students",
      "outputs": [
        {
          "internalType": "bool",
          "name": "",
          "type": "bool"
        }
      ],
      "stateMutability": "view",
      "type": "function",
      "constant": true
    },
    {
      "inputs": [
        {
          "internalType": "address",
          "name": "",
          "type": "address"
        }
      ],
      "name": "teachers",
      "outputs": [
        {
          "internalType": "bool",
          "name": "",
          "type": "bool"
        }
      ],
      "stateMutability": "view",
      "type": "function",
      "constant": true
    },
    {
      "inputs": [
        {
          "internalType": "address",
          "name": "",
          "type": "address"
        }
      ],
      "name": "university",
      "outputs": [
        {
          "internalType": "bool",
          "name": "",
          "type": "bool"
        }
      ],
      "stateMutability": "view",
      "type": "function",
      "constant": true
    },
    {
      "inputs": [
        {
          "internalType": "string",
          "name": "_name",
          "type": "string"
        },
        {
          "internalType": "string",
          "name": "_des",
          "type": "string"
        },
        {
          "internalType": "string",
          "name": "_city",
          "type": "string"
        }
      ],
      "name": "addDetails",
      "outputs": [
        {
          "internalType": "string",
          "name": "",
          "type": "string"
        }
      ],
      "stateMutability": "nonpayable",
      "type": "function"
    },
    {
      "inputs": [
        {
          "internalType": "address",
          "name": "e_id",
          "type": "address"
        },
        {
          "internalType": "int256",
          "name": "_c_id",
          "type": "int256"
        }
      ],
      "name": "addCourseID",
      "outputs": [
        {
          "internalType": "string",
          "name": "",
          "type": "string"
        }
      ],
      "stateMutability": "nonpayable",
      "type": "function"
    },
    {
      "inputs": [
        {
          "internalType": "address",
          "name": "paddr",
          "type": "address"
        }
      ],
      "name": "getinstrDet",
      "outputs": [
        {
          "internalType": "string",
          "name": "",
          "type": "string"
        },
        {
          "internalType": "string",
          "name": "",
          "type": "string"
        },
        {
          "internalType": "string",
          "name": "",
          "type": "string"
        },
        {
          "internalType": "string",
          "name": "",
          "type": "string"
        }
      ],
      "stateMutability": "view",
      "type": "function",
      "constant": true
    },
    {
      "inputs": [
        {
          "internalType": "address",
          "name": "_teacher_address",
          "type": "address"
        }
      ],
      "name": "giveAccess",
      "outputs": [
        {
          "internalType": "string",
          "name": "",
          "type": "string"
        }
      ],
      "stateMutability": "nonpayable",
      "type": "function"
    },
    {
      "inputs": [
        {
          "internalType": "address",
          "name": "e_id",
          "type": "address"
        }
      ],
      "name": "getInstrName",
      "outputs": [
        {
          "internalType": "string",
          "name": "",
          "type": "string"
        }
      ],
      "stateMutability": "view",
      "type": "function",
      "constant": true
    },
    {
      "inputs": [],
      "name": "getIPFSHash",
      "outputs": [
        {
          "internalType": "string",
          "name": "",
          "type": "string"
        }
      ],
      "stateMutability": "view",
      "type": "function",
      "constant": true
    },
    {
      "inputs": [
        {
          "internalType": "string",
          "name": "_hash",
          "type": "string"
        }
      ],
      "name": "setIPFShash",
      "outputs": [
        {
          "internalType": "string",
          "name": "",
          "type": "string"
        }
      ],
      "stateMutability": "nonpayable",
      "type": "function"
    },
    {
      "inputs": [
        {
          "internalType": "string",
          "name": "_hash",
          "type": "string"
        }
      ],
      "name": "setabouthash",
      "outputs": [
        {
          "internalType": "string",
          "name": "",
          "type": "string"
        }
      ],
      "stateMutability": "nonpayable",
      "type": "function"
    },
    {
      "inputs": [],
      "name": "getaboutHash",
      "outputs": [
        {
          "internalType": "string",
          "name": "",
          "type": "string"
        }
      ],
      "stateMutability": "view",
      "type": "function",
      "constant": true
    },
    {
      "inputs": [
        {
          "internalType": "string",
          "name": "_hash",
          "type": "string"
        }
      ],
      "name": "setprofpichash",
      "outputs": [
        {
          "internalType": "string",
          "name": "",
          "type": "string"
        }
      ],
      "stateMutability": "nonpayable",
      "type": "function"
    },
    {
      "inputs": [],
      "name": "getprofpictHash",
      "outputs": [
        {
          "internalType": "string",
          "name": "",
          "type": "string"
        }
      ],
      "stateMutability": "view",
      "type": "function",
      "constant": true
    }
  ],
  "bytecode": "0x608060405234801561001057600080fd5b50336000806101000a81548173ffffffffffffffffffffffffffffffffffffffff021916908373ffffffffffffffffffffffffffffffffffffffff1602179055506121af806100606000396000f3fe608060405234801561001057600080fd5b506004361061010b5760003560e01c80637c196053116100a25780639ffc8b5f116100715780639ffc8b5f14610311578063a6c807a914610341578063cf12e87014610371578063e5c5097e146103a1578063f0a47f78146103d15761010b565b80637c1960531461026f5780638b1e8c0d1461028d5780638e7c593f146102bd578063954f3bbb146102db5761010b565b806360680474116100de57806360680474146101ac5780636336b067146101df578063728bb6711461020f578063783f84d41461023f5761010b565b80631cacf4921461011057806320b28ade14610140578063242505b51461015e5780634e53f1bf1461018e575b600080fd5b61012a600480360381019061012591906116e1565b610401565b6040516101379190611729565b60405180910390f35b610148610421565b60405161015591906117dd565b60405180910390f35b61017860048036038101906101739190611835565b6104f3565b6040516101859190611871565b60405180910390f35b610196610532565b6040516101a3919061189b565b60405180910390f35b6101c660048036038101906101c191906116e1565b610538565b6040516101d694939291906118b6565b60405180910390f35b6101f960048036038101906101f491906116e1565b610885565b60405161020691906117dd565b60405180910390f35b61022960048036038101906102249190611a4c565b610959565b60405161023691906117dd565b60405180910390f35b61025960048036038101906102549190611af3565b610b7d565b60405161026691906117dd565b60405180910390f35b610277610c0c565b60405161028491906117dd565b60405180910390f35b6102a760048036038101906102a29190611af3565b610cde565b6040516102b491906117dd565b60405180910390f35b6102c5610d6d565b6040516102d291906117dd565b60405180910390f35b6102f560048036038101906102f091906116e1565b610e3f565b6040516103089796959493929190611b3c565b60405180910390f35b61032b60048036038101906103269190611c12565b611239565b60405161033891906117dd565b60405180910390f35b61035b600480360381019061035691906116e1565b6112e2565b6040516103689190611729565b60405180910390f35b61038b600480360381019061038691906116e1565b611302565b60405161039891906117dd565b60405180910390f35b6103bb60048036038101906103b69190611af3565b611463565b6040516103c891906117dd565b60405180910390f35b6103eb60048036038101906103e691906116e1565b6114f2565b6040516103f89190611729565b60405180910390f35b60066020528060005260406000206000915054906101000a900460ff1681565b6060600360003373ffffffffffffffffffffffffffffffffffffffff1673ffffffffffffffffffffffffffffffffffffffff168152602001908152602001600020600801805461047090611c81565b80601f016020809104026020016040519081016040528092919081815260200182805461049c90611c81565b80156104e95780601f106104be576101008083540402835291602001916104e9565b820191906000526020600020905b8154815290600101906020018083116104cc57829003601f168201915b5050505050905090565b6001818154811061050357600080fd5b906000526020600020016000915054906101000a900473ffffffffffffffffffffffffffffffffffffffff1681565b60025481565b606080606080600360008673ffffffffffffffffffffffffffffffffffffffff1673ffffffffffffffffffffffffffffffffffffffff168152602001908152602001600020600001600360008773ffffffffffffffffffffffffffffffffffffffff1673ffffffffffffffffffffffffffffffffffffffff168152602001908152602001600020600101600360008873ffffffffffffffffffffffffffffffffffffffff1673ffffffffffffffffffffffffffffffffffffffff168152602001908152602001600020600201600360008973ffffffffffffffffffffffffffffffffffffffff1673ffffffffffffffffffffffffffffffffffffffff16815260200190815260200160002060080183805461065290611c81565b80601f016020809104026020016040519081016040528092919081815260200182805461067e90611c81565b80156106cb5780601f106106a0576101008083540402835291602001916106cb565b820191906000526020600020905b8154815290600101906020018083116106ae57829003601f168201915b505050505093508280546106de90611c81565b80601f016020809104026020016040519081016040528092919081815260200182805461070a90611c81565b80156107575780601f1061072c57610100808354040283529160200191610757565b820191906000526020600020905b81548152906001019060200180831161073a57829003601f168201915b5050505050925081805461076a90611c81565b80601f016020809104026020016040519081016040528092919081815260200182805461079690611c81565b80156107e35780601f106107b8576101008083540402835291602001916107e3565b820191906000526020600020905b8154815290600101906020018083116107c657829003601f168201915b505050505091508080546107f690611c81565b80601f016020809104026020016040519081016040528092919081815260200182805461082290611c81565b801561086f5780601f106108445761010080835404028352916020019161086f565b820191906000526020600020905b81548152906001019060200180831161085257829003601f168201915b5050505050905093509350935093509193509193565b6060600360008373ffffffffffffffffffffffffffffffffffffffff1673ffffffffffffffffffffffffffffffffffffffff16815260200190815260200160002060000180546108d490611c81565b80601f016020809104026020016040519081016040528092919081815260200182805461090090611c81565b801561094d5780601f106109225761010080835404028352916020019161094d565b820191906000526020600020905b81548152906001019060200180831161093057829003601f168201915b50505050509050919050565b6060610963611512565b84816000018190525083816020018190525082816040018190525080600360003373ffffffffffffffffffffffffffffffffffffffff1673ffffffffffffffffffffffffffffffffffffffff16815260200190815260200160002060008201518160000190816109d39190611e5e565b5060208201518160010190816109e99190611e5e565b5060408201518160020190816109ff9190611e5e565b506060820151816003019081610a159190611e5e565b506080820151816004019080519060200190610a3292919061155e565b5060a0820151816005019080519060200190610a4f9291906115e8565b5060c0820151816006019081610a659190611e5e565b5060e0820151816007019081610a7b9190611e5e565b50610100820151816008019081610a929190611e5e565b5090505060026000815480929190610aa990611f5f565b91905055506001600560003373ffffffffffffffffffffffffffffffffffffffff1673ffffffffffffffffffffffffffffffffffffffff16815260200190815260200160002060006101000a81548160ff0219169083151502179055507f2dd0dbde0b541d654cbad7f473661699639a8db7f1f8150566180d8c7ba78e3533604051610b359190612019565b60405180910390a16040518060400160405280601d81526020017f53747564656e7420526567697374726174696f6e20636f6d706c6574650000008152509150509392505050565b606081600360003373ffffffffffffffffffffffffffffffffffffffff1673ffffffffffffffffffffffffffffffffffffffff1681526020019081526020016000206006019081610bce9190611e5e565b506040518060400160405280601c81526020017f495046532068617368206164646564207375636365737366756c6c79000000008152509050919050565b6060600360003373ffffffffffffffffffffffffffffffffffffffff1673ffffffffffffffffffffffffffffffffffffffff1681526020019081526020016000206006018054610c5b90611c81565b80601f0160208091040260200160405190810160405280929190818152602001828054610c8790611c81565b8015610cd45780601f10610ca957610100808354040283529160200191610cd4565b820191906000526020600020905b815481529060010190602001808311610cb757829003601f168201915b5050505050905090565b606081600360003373ffffffffffffffffffffffffffffffffffffffff1673ffffffffffffffffffffffffffffffffffffffff1681526020019081526020016000206007019081610d2f9190611e5e565b506040518060400160405280601c81526020017f495046532068617368206164646564207375636365737366756c6c79000000008152509050919050565b6060600360003373ffffffffffffffffffffffffffffffffffffffff1673ffffffffffffffffffffffffffffffffffffffff1681526020019081526020016000206007018054610dbc90611c81565b80601f0160208091040260200160405190810160405280929190818152602001828054610de890611c81565b8015610e355780601f10610e0a57610100808354040283529160200191610e35565b820191906000526020600020905b815481529060010190602001808311610e1857829003601f168201915b5050505050905090565b6003602052806000526040600020600091509050806000018054610e6290611c81565b80601f0160208091040260200160405190810160405280929190818152602001828054610e8e90611c81565b8015610edb5780601f10610eb057610100808354040283529160200191610edb565b820191906000526020600020905b815481529060010190602001808311610ebe57829003601f168201915b505050505090806001018054610ef090611c81565b80601f0160208091040260200160405190810160405280929190818152602001828054610f1c90611c81565b8015610f695780601f10610f3e57610100808354040283529160200191610f69565b820191906000526020600020905b815481529060010190602001808311610f4c57829003601f168201915b505050505090806002018054610f7e90611c81565b80601f0160208091040260200160405190810160405280929190818152602001828054610faa90611c81565b8015610ff75780601f10610fcc57610100808354040283529160200191610ff7565b820191906000526020600020905b815481529060010190602001808311610fda57829003601f168201915b50505050509080600301805461100c90611c81565b80601f016020809104026020016040519081016040528092919081815260200182805461103890611c81565b80156110855780601f1061105a57610100808354040283529160200191611085565b820191906000526020600020905b81548152906001019060200180831161106857829003601f168201915b50505050509080600601805461109a90611c81565b80601f01602080910402602001604051908101604052809291908181526020018280546110c690611c81565b80156111135780601f106110e857610100808354040283529160200191611113565b820191906000526020600020905b8154815290600101906020018083116110f657829003601f168201915b50505050509080600701805461112890611c81565b80601f016020809104026020016040519081016040528092919081815260200182805461115490611c81565b80156111a15780601f10611176576101008083540402835291602001916111a1565b820191906000526020600020905b81548152906001019060200180831161118457829003601f168201915b5050505050908060080180546111b690611c81565b80601f01602080910402602001604051908101604052809291908181526020018280546111e290611c81565b801561122f5780601f106112045761010080835404028352916020019161122f565b820191906000526020600020905b81548152906001019060200180831161121257829003601f168201915b5050505050905087565b6060600360008473ffffffffffffffffffffffffffffffffffffffff1673ffffffffffffffffffffffffffffffffffffffff1681526020019081526020016000206005018290806001815401808255809150506001900390600052602060002001600090919091909150556040518060400160405280600f81526020017f416464656420636f757273652069640000000000000000000000000000000000815250905092915050565b60046020528060005260406000206000915054906101000a900460ff1681565b606060001515600560008473ffffffffffffffffffffffffffffffffffffffff1673ffffffffffffffffffffffffffffffffffffffff16815260200190815260200160002060009054906101000a900460ff16151514611397576040517f08c379a000000000000000000000000000000000000000000000000000000000815260040161138e906120b9565b60405180910390fd5b6001600560008473ffffffffffffffffffffffffffffffffffffffff1673ffffffffffffffffffffffffffffffffffffffff16815260200190815260200160002060006101000a81548160ff0219169083151502179055507f5a2a28d0708bd1dc5a38513de612a87bee6f714881097828fd8c036e68e4386a8260405161141e919061214b565b60405180910390a16040518060400160405280600e81526020017f416363657373206772616e7465640000000000000000000000000000000000008152509050919050565b606081600360003373ffffffffffffffffffffffffffffffffffffffff1673ffffffffffffffffffffffffffffffffffffffff16815260200190815260200160002060080190816114b49190611e5e565b506040518060400160405280601c81526020017f495046532068617368206164646564207375636365737366756c6c79000000008152509050919050565b60056020528060005260406000206000915054906101000a900460ff1681565b6040518061012001604052806060815260200160608152602001606081526020016060815260200160608152602001606081526020016060815260200160608152602001606081525090565b8280548282559060005260206000209081019282156115d7579160200282015b828111156115d65782518260006101000a81548173ffffffffffffffffffffffffffffffffffffffff021916908373ffffffffffffffffffffffffffffffffffffffff1602179055509160200191906001019061157e565b5b5090506115e49190611635565b5090565b828054828255906000526020600020908101928215611624579160200282015b82811115611623578251825591602001919060010190611608565b5b5090506116319190611652565b5090565b5b8082111561164e576000816000905550600101611636565b5090565b5b8082111561166b576000816000905550600101611653565b5090565b6000604051905090565b600080fd5b600080fd5b600073ffffffffffffffffffffffffffffffffffffffff82169050919050565b60006116ae82611683565b9050919050565b6116be816116a3565b81146116c957600080fd5b50565b6000813590506116db816116b5565b92915050565b6000602082840312156116f7576116f6611679565b5b6000611705848285016116cc565b91505092915050565b60008115159050919050565b6117238161170e565b82525050565b600060208201905061173e600083018461171a565b92915050565b600081519050919050565b600082825260208201905092915050565b60005b8381101561177e578082015181840152602081019050611763565b8381111561178d576000848401525b50505050565b6000601f19601f8301169050919050565b60006117af82611744565b6117b9818561174f565b93506117c9818560208601611760565b6117d281611793565b840191505092915050565b600060208201905081810360008301526117f781846117a4565b905092915050565b6000819050919050565b611812816117ff565b811461181d57600080fd5b50565b60008135905061182f81611809565b92915050565b60006020828403121561184b5761184a611679565b5b600061185984828501611820565b91505092915050565b61186b816116a3565b82525050565b60006020820190506118866000830184611862565b92915050565b611895816117ff565b82525050565b60006020820190506118b0600083018461188c565b92915050565b600060808201905081810360008301526118d081876117a4565b905081810360208301526118e481866117a4565b905081810360408301526118f881856117a4565b9050818103606083015261190c81846117a4565b905095945050505050565b600080fd5b600080fd5b7f4e487b7100000000000000000000000000000000000000000000000000000000600052604160045260246000fd5b61195982611793565b810181811067ffffffffffffffff8211171561197857611977611921565b5b80604052505050565b600061198b61166f565b90506119978282611950565b919050565b600067ffffffffffffffff8211156119b7576119b6611921565b5b6119c082611793565b9050602081019050919050565b82818337600083830152505050565b60006119ef6119ea8461199c565b611981565b905082815260208101848484011115611a0b57611a0a61191c565b5b611a168482856119cd565b509392505050565b600082601f830112611a3357611a32611917565b5b8135611a438482602086016119dc565b91505092915050565b600080600060608486031215611a6557611a64611679565b5b600084013567ffffffffffffffff811115611a8357611a8261167e565b5b611a8f86828701611a1e565b935050602084013567ffffffffffffffff811115611ab057611aaf61167e565b5b611abc86828701611a1e565b925050604084013567ffffffffffffffff811115611add57611adc61167e565b5b611ae986828701611a1e565b9150509250925092565b600060208284031215611b0957611b08611679565b5b600082013567ffffffffffffffff811115611b2757611b2661167e565b5b611b3384828501611a1e565b91505092915050565b600060e0820190508181036000830152611b56818a6117a4565b90508181036020830152611b6a81896117a4565b90508181036040830152611b7e81886117a4565b90508181036060830152611b9281876117a4565b90508181036080830152611ba681866117a4565b905081810360a0830152611bba81856117a4565b905081810360c0830152611bce81846117a4565b905098975050505050505050565b6000819050919050565b611bef81611bdc565b8114611bfa57600080fd5b50565b600081359050611c0c81611be6565b92915050565b60008060408385031215611c2957611c28611679565b5b6000611c37858286016116cc565b9250506020611c4885828601611bfd565b9150509250929050565b7f4e487b7100000000000000000000000000000000000000000000000000000000600052602260045260246000fd5b60006002820490506001821680611c9957607f821691505b602082108103611cac57611cab611c52565b5b50919050565b60008190508160005260206000209050919050565b60006020601f8301049050919050565b600082821b905092915050565b600060088302611d147fffffffffffffffffffffffffffffffffffffffffffffffffffffffffffffffff82611cd7565b611d1e8683611cd7565b95508019841693508086168417925050509392505050565b6000819050919050565b6000611d5b611d56611d51846117ff565b611d36565b6117ff565b9050919050565b6000819050919050565b611d7583611d40565b611d89611d8182611d62565b848454611ce4565b825550505050565b600090565b611d9e611d91565b611da9818484611d6c565b505050565b5b81811015611dcd57611dc2600082611d96565b600181019050611daf565b5050565b601f821115611e1257611de381611cb2565b611dec84611cc7565b81016020851015611dfb578190505b611e0f611e0785611cc7565b830182611dae565b50505b505050565b600082821c905092915050565b6000611e3560001984600802611e17565b1980831691505092915050565b6000611e4e8383611e24565b9150826002028217905092915050565b611e6782611744565b67ffffffffffffffff811115611e8057611e7f611921565b5b611e8a8254611c81565b611e95828285611dd1565b600060209050601f831160018114611ec85760008415611eb6578287015190505b611ec08582611e42565b865550611f28565b601f198416611ed686611cb2565b60005b82811015611efe57848901518255600182019150602085019450602081019050611ed9565b86831015611f1b5784890151611f17601f891682611e24565b8355505b6001600288020188555050505b505050505050565b7f4e487b7100000000000000000000000000000000000000000000000000000000600052601160045260246000fd5b6000611f6a826117ff565b91507fffffffffffffffffffffffffffffffffffffffffffffffffffffffffffffffff8203611f9c57611f9b611f30565b5b600182019050919050565b7f53747564656e7420686173206265656e2061646465642073756363657373667560008201527f6c6c790000000000000000000000000000000000000000000000000000000000602082015250565b600061200360238361174f565b915061200e82611fa7565b604082019050919050565b600060408201905061202e6000830184611862565b818103602083015261203f81611ff6565b905092915050565b7f41636365737320616c726561647920676976656e20746f20746865207465616360008201527f6865720000000000000000000000000000000000000000000000000000000000602082015250565b60006120a360238361174f565b91506120ae82612047565b604082019050919050565b600060208201905081810360008301526120d281612096565b9050919050565b7f41636365737320676976656e20746f207468652061626f76652061646472657360008201527f7365642074656163686572000000000000000000000000000000000000000000602082015250565b6000612135602b8361174f565b9150612140826120d9565b604082019050919050565b60006040820190506121606000830184611862565b818103602083015261217181612128565b90509291505056fea2646970667358221220c2bfa7530ae66c05d5c619b4c42edb379e37402655bdd45a2b2b19235c6a106964736f6c634300080f0033",
  "immutableReferences": {},
  "source": "// SPDX-License-Identifier: MIT\n\npragma solidity ^0.8.0;\n\ncontract Instructor{\n\n    struct instructor {\n        string name;\n        string designation;\n        string city;\n        string email;\n        address[] studentaccessList;\n        int256[] courses_id;\n        string about_hash;\n        string prof_pic_hash;\n        //address[] certAccessList;\n        string record_hash;\n        \n    }\n\n    address owner_p;\n    address[] public p_List;\n    uint public instructorsCount;\n\n  //  mapping (address => student) public instructorInfo;\n  mapping (address => instructor) public instructorInfo;\n\n    mapping (address => bool) public students;\n     \n    mapping (address => bool) public teachers;\n\n    mapping (address => bool) public university;\n\n  //  mapping(address => mapping(string => string)) prescriptions;\n\n    event detailsAdded(address _student, string message);\n    event accessGiven(address _teacher, string message);\n    event accessRevoked(address _teacher, string message);\n    event prescrAdded(address _teacher, string message);\n\n     modifier only_owner(){\n        require(owner_p == msg.sender);\n        _;\n    }\n\n    constructor() {\n        owner_p = msg.sender;\n        //studentsCount = 0;\n    }\n    \n    function addDetails(string memory _name, string memory _des, string memory _city) public returns (string memory)\n    {\n        instructor memory p;\n        p.name = _name;\n        p.designation = _des;\n        p.city = _city;\n        instructorInfo[msg.sender] = p;\n        //p_List.push(msg.sender)-1;\n        //p_List[studentsCount] = msg.sender;\n        instructorsCount++;\n        teachers[msg.sender] = true;\n\n        emit detailsAdded(msg.sender, \"Student has been added successfully\");\n        return \"Student Registration complete\";\n    }\n\n    function addCourseID(address e_id,int256 _c_id) public returns (string memory){\n        instructorInfo[e_id].courses_id.push(_c_id);\n        return \"Added course id\";\n    }\n\n    function getinstrDet(address paddr) view public returns (string memory, string memory, string memory, string memory) {\n        return (instructorInfo[paddr].name,instructorInfo[paddr].designation,instructorInfo[paddr].city,instructorInfo[paddr].record_hash);\n    }\n    \n    function giveAccess(address _teacher_address) public returns (string memory) {\n       \n        require(teachers[_teacher_address] == false, \"Access already given to the teacher\");\n        teachers[_teacher_address] = true;\n        //instructorInfo[msg.sender].teacherAccessList.push(_teacher_address)-1;\n        //an event can be added\n        emit accessGiven(_teacher_address, \"Access given to the above addressed teacher\");\n        return \"Access granted\";\n    }\n    \n    function getInstrName(address e_id) public view returns(string memory) {\n        return instructorInfo[e_id].name;\n    }\n    // //only owner is removed temporarily\n    // function revokeAccess(address _teacher_address) public returns (string memory) {\n       \n    //     //if(teachers[_teacher_address]){\n    //     //    teachers[_teacher_address] = false;\n    //     //}\n    //     require(teachers[_teacher_address] == true, \"The teacher doesn't have any access\");\n    //     teachers[_teacher_address] = false;\n    //     instructorInfo[msg.sender].teacherAccessList.pop();\n    //     //can add an event\n    //     emit accessRevoked(_teacher_address, \"Access has been revoked from the teacher\");\n    //     return \"Access is revoked\";\n    // }\n\n    // function getAccessList(address paddr) view public returns (address[] memory){\n    //     return instructorInfo[paddr].teacherAccessList;\n    // }\n\n//     /*function getPhAccessList(address paddr) view public returns (address[] memory){\n//         return instructorInfo[paddr].prescAccessList;\n//     }*/\n\n//     /*function getHash(address paddr, address _teacher_address) public view returns (string memory) {\n//         require(teachers[_teacher_address] == true, \"The teacher doesn't have any access\");\n//         return instructorInfo[paddr].record_hash;\n//     }\n\n//    /* function addPrescriptions(address daddr, string memory disease_name, string memory medications) public returns(string memory){\n//         require(teachers[daddr] == true, \"The teacher doesn't have the permission to give out prescriptions\");\n//         prescriptions[daddr][disease_name] = medications;\n//         emit prescrAdded(daddr, 'Prescriptions added');\n//         return 'Prescriptions added';\n\n//     }*/\n\n//     /*function giveAccessPrescr(address _pharma_address) public returns (string memory) {\n//         require(pharmacy[_pharma_address] == false, \"Access to the prescriptions already given to the pharmacy\");\n//         pharmacy[_pharma_address] = true;\n//         instructorInfo[msg.sender].prescAccessList.push(_pharma_address)-1;\n//         //an event can be added\n//         emit accessGiven(_pharma_address, \"Access to the prescriptions given to the above addressed pharmacy\");\n//         return \"Access granted\";\n//     }\n\n//     function revokeAccessPrescr(address _pharma_address) public returns (string memory) {\n//         require(pharmacy[_pharma_address] == true, \"This particular pharmacy doesn't have any access\");\n//         pharmacy[_pharma_address] = false;\n//         instructorInfo[msg.sender].prescAccessList.pop();\n//         //can add an event\n//         emit accessRevoked(_pharma_address, \"Access has been revoked from the pharmacy\");\n//         return \"Access is revoked\";\n//     }\n\n//     function getPrescriptions(address _doc_addr, address _ph_addr, string memory _disease_name) public view returns (string memory){\n//          require(pharmacy[_ph_addr] == true, \"The pharmacy doesn't have the permission to access the prescriptions\");\n//          return prescriptions[_doc_addr][_disease_name];   \n//     }*/\n\n//  /*   function setIPFShash(string memory _hash)public returns(string memory){\n//         instructorInfo[msg.sender].record_hash = _hash;\n//         return \"IPFS hash added successfully\";\n\n//     }\n\n     function getIPFSHash() public view returns (string memory) {\n        return instructorInfo[msg.sender].record_hash;\n    }\n\n  \n    function setIPFShash(string memory _hash)public returns(string memory){\n        instructorInfo[msg.sender].record_hash = _hash;\n        return \"IPFS hash added successfully\";\n\n    }\n\n    function setabouthash(string memory _hash)public returns(string memory){\n        instructorInfo[msg.sender].about_hash = _hash;\n        return \"IPFS hash added successfully\";\n\n    }\n\n     function getaboutHash() public view returns (string memory) {\n        return instructorInfo[msg.sender].about_hash;\n    }\n\n     function setprofpichash(string memory _hash)public returns(string memory){\n        instructorInfo[msg.sender].prof_pic_hash = _hash;\n        return \"IPFS hash added successfully\";\n\n    }\n\n     function getprofpictHash() public view returns (string memory) {\n        return instructorInfo[msg.sender].prof_pic_hash;\n    }\n }\n\n// contract Student {\n//     function addDetails(string memory _name, uint _age, string memory _city) public returns (string memory);\n//     function getstudentDet(address paddr) view public returns (string memory, uint, string memory, string memory);\n//     function getAccessList(address paddr) view public returns (address[] memory);\n//     function getHash(address paddr, address _teacher_address) public view returns (string memory);\n//     function setIPFShash(string memory _hash)public returns(string memory);\n\n// }",
  "sourcePath": "/home/jarvis/projects/mtech_proj-main/contracts/Instructor.sol",
  "compiler": {
    "name": "solc",
    "version": "0.8.15+commit.e14f2714.Emscripten.clang"
  },
  "schemaVersion": "3.4.8",
  "updatedAt": "2023-03-23T09:51:27.901Z",
  "networkType": "ethereum",
  "devdoc": {
    "kind": "dev",
    "methods": {},
    "version": 1
  },
  "userdoc": {
    "kind": "user",
    "methods": {},
    "version": 1
  }
}