{
  "contractName": "Marketplace",
  "abi": [
    {
      "inputs": [
        {
          "internalType": "uint256",
          "name": "_feePercent",
          "type": "uint256"
        }
      ],
      "stateMutability": "nonpayable",
      "type": "constructor"
    },
    {
      "anonymous": false,
      "inputs": [
        {
          "indexed": false,
          "internalType": "uint256",
          "name": "_itemId",
          "type": "uint256"
        },
        {
          "indexed": true,
          "internalType": "address",
          "name": "nft",
          "type": "address"
        },
        {
          "indexed": false,
          "internalType": "uint256",
          "name": "_tokenId",
          "type": "uint256"
        },
        {
          "indexed": false,
          "internalType": "uint256",
          "name": "price",
          "type": "uint256"
        },
        {
          "indexed": true,
          "internalType": "address",
          "name": "seller",
          "type": "address"
        },
        {
          "indexed": true,
          "internalType": "address",
          "name": "buyer",
          "type": "address"
        }
      ],
      "name": "Bought",
      "type": "event"
    },
    {
      "anonymous": false,
      "inputs": [
        {
          "indexed": false,
          "internalType": "uint256",
          "name": "_itemId",
          "type": "uint256"
        },
        {
          "indexed": true,
          "internalType": "address",
          "name": "nft",
          "type": "address"
        },
        {
          "indexed": false,
          "internalType": "uint256",
          "name": "_tokenId",
          "type": "uint256"
        },
        {
          "indexed": false,
          "internalType": "uint256",
          "name": "price",
          "type": "uint256"
        },
        {
          "indexed": true,
          "internalType": "address",
          "name": "seller",
          "type": "address"
        }
      ],
      "name": "Offered",
      "type": "event"
    },
    {
      "inputs": [],
      "name": "feeAccount",
      "outputs": [
        {
          "internalType": "address payable",
          "name": "",
          "type": "address"
        }
      ],
      "stateMutability": "view",
      "type": "function",
      "constant": true
    },
    {
      "inputs": [],
      "name": "feePercent",
      "outputs": [
        {
          "internalType": "uint256",
          "name": "",
          "type": "uint256"
        }
      ],
      "stateMutability": "view",
      "type": "function",
      "constant": true
    },
    {
      "inputs": [],
      "name": "itemCount",
      "outputs": [
        {
          "internalType": "uint256",
          "name": "",
          "type": "uint256"
        }
      ],
      "stateMutability": "view",
      "type": "function",
      "constant": true
    },
    {
      "inputs": [
        {
          "internalType": "uint256",
          "name": "",
          "type": "uint256"
        }
      ],
      "name": "items",
      "outputs": [
        {
          "internalType": "uint256",
          "name": "itemId",
          "type": "uint256"
        },
        {
          "internalType": "contract IERC721",
          "name": "nft",
          "type": "address"
        },
        {
          "internalType": "uint256",
          "name": "tokenId",
          "type": "uint256"
        },
        {
          "internalType": "uint256",
          "name": "price",
          "type": "uint256"
        },
        {
          "internalType": "address payable",
          "name": "seller",
          "type": "address"
        },
        {
          "internalType": "bool",
          "name": "sold",
          "type": "bool"
        }
      ],
      "stateMutability": "view",
      "type": "function",
      "constant": true
    },
    {
      "inputs": [
        {
          "internalType": "contract IERC721",
          "name": "_nft",
          "type": "address"
        },
        {
          "internalType": "uint256",
          "name": "_tokenId",
          "type": "uint256"
        },
        {
          "internalType": "uint256",
          "name": "_price",
          "type": "uint256"
        }
      ],
      "name": "makeItems",
      "outputs": [],
      "stateMutability": "nonpayable",
      "type": "function"
    },
    {
      "inputs": [
        {
          "internalType": "uint256",
          "name": "_itemId",
          "type": "uint256"
        }
      ],
      "name": "purchaseItem",
      "outputs": [],
      "stateMutability": "payable",
      "type": "function",
      "payable": true
    },
    {
      "inputs": [
        {
          "internalType": "uint256",
          "name": "_itemId",
          "type": "uint256"
        }
      ],
      "name": "getTotalPrice",
      "outputs": [
        {
          "internalType": "uint256",
          "name": "",
          "type": "uint256"
        }
      ],
      "stateMutability": "view",
      "type": "function",
      "constant": true
    }
  ],
  "bytecode": "0x60c060405234801561001057600080fd5b506040516200116138038062001161833981810160405281019061003491906100b9565b60016000819055503373ffffffffffffffffffffffffffffffffffffffff1660808173ffffffffffffffffffffffffffffffffffffffff16815250508060a08181525050506100e6565b600080fd5b6000819050919050565b61009681610083565b81146100a157600080fd5b50565b6000815190506100b38161008d565b92915050565b6000602082840312156100cf576100ce61007e565b5b60006100dd848285016100a4565b91505092915050565b60805160a0516110476200011a600039600081816104730152610524015260008181610449015261070401526110476000f3fe6080604052600436106100705760003560e01c80637fd6f15c1161004e5780637fd6f15c146100f4578063bfb231d21461011f578063ca7dd37514610161578063d38ea5bf1461019e57610070565b806302d44b501461007557806365e17c9d1461009e5780636bfb0d01146100c9575b600080fd5b34801561008157600080fd5b5061009c60048036038101906100979190610a0d565b6101ba565b005b3480156100aa57600080fd5b506100b3610447565b6040516100c09190610a81565b60405180910390f35b3480156100d557600080fd5b506100de61046b565b6040516100eb9190610aab565b60405180910390f35b34801561010057600080fd5b50610109610471565b6040516101169190610aab565b60405180910390f35b34801561012b57600080fd5b5061014660048036038101906101419190610ac6565b610495565b60405161015896959493929190610b6d565b60405180910390f35b34801561016d57600080fd5b5061018860048036038101906101839190610ac6565b61051e565b6040516101959190610aab565b60405180910390f35b6101b860048036038101906101b39190610ac6565b610581565b005b6101c2610909565b60008111610205576040517f08c379a00000000000000000000000000000000000000000000000000000000081526004016101fc90610c2b565b60405180910390fd5b60018060008282546102179190610c7a565b925050819055508273ffffffffffffffffffffffffffffffffffffffff166323b872dd3330856040518463ffffffff1660e01b815260040161025b93929190610cdf565b600060405180830381600087803b15801561027557600080fd5b505af1158015610289573d6000803e3d6000fd5b505050506040518060c0016040528060015481526020018473ffffffffffffffffffffffffffffffffffffffff1681526020018381526020018281526020013373ffffffffffffffffffffffffffffffffffffffff168152602001600015158152506002600060015481526020019081526020016000206000820151816000015560208201518160010160006101000a81548173ffffffffffffffffffffffffffffffffffffffff021916908373ffffffffffffffffffffffffffffffffffffffff160217905550604082015181600201556060820151816003015560808201518160040160006101000a81548173ffffffffffffffffffffffffffffffffffffffff021916908373ffffffffffffffffffffffffffffffffffffffff16021790555060a08201518160040160146101000a81548160ff0219169083151502179055509050503373ffffffffffffffffffffffffffffffffffffffff168373ffffffffffffffffffffffffffffffffffffffff167f655a0cf9c8db81512be9a76dc1c5ae5380b8816ce6ad659cd61b715e2999d59a600154858560405161043293929190610d16565b60405180910390a3610442610958565b505050565b7f000000000000000000000000000000000000000000000000000000000000000081565b60015481565b7f000000000000000000000000000000000000000000000000000000000000000081565b60026020528060005260406000206000915090508060000154908060010160009054906101000a900473ffffffffffffffffffffffffffffffffffffffff16908060020154908060030154908060040160009054906101000a900473ffffffffffffffffffffffffffffffffffffffff16908060040160149054906101000a900460ff16905086565b600060647f0000000000000000000000000000000000000000000000000000000000000000606461054f9190610d4d565b60026000858152602001908152602001600020600301546105709190610d4d565b61057a9190610dd6565b9050919050565b610589610909565b60006105948261051e565b905060006002600084815260200190815260200160002090506000831180156105bf57506001548311155b6105fe576040517f08c379a00000000000000000000000000000000000000000000000000000000081526004016105f590610e53565b60405180910390fd5b81341015610641576040517f08c379a000000000000000000000000000000000000000000000000000000000815260040161063890610ee5565b60405180910390fd5b8060040160149054906101000a900460ff1615610693576040517f08c379a000000000000000000000000000000000000000000000000000000000815260040161068a90610f51565b60405180910390fd5b8060040160009054906101000a900473ffffffffffffffffffffffffffffffffffffffff1673ffffffffffffffffffffffffffffffffffffffff166108fc82600301549081150290604051600060405180830381858888f19350505050158015610701573d6000803e3d6000fd5b507f000000000000000000000000000000000000000000000000000000000000000073ffffffffffffffffffffffffffffffffffffffff166108fc82600301548461074c9190610f71565b9081150290604051600060405180830381858888f19350505050158015610777573d6000803e3d6000fd5b5060018160040160146101000a81548160ff0219169083151502179055508060010160009054906101000a900473ffffffffffffffffffffffffffffffffffffffff1673ffffffffffffffffffffffffffffffffffffffff166323b872dd303384600201546040518463ffffffff1660e01b81526004016107fa93929190610cdf565b600060405180830381600087803b15801561081457600080fd5b505af1158015610828573d6000803e3d6000fd5b505050503373ffffffffffffffffffffffffffffffffffffffff168160040160009054906101000a900473ffffffffffffffffffffffffffffffffffffffff1673ffffffffffffffffffffffffffffffffffffffff168260010160009054906101000a900473ffffffffffffffffffffffffffffffffffffffff1673ffffffffffffffffffffffffffffffffffffffff167f8b4c9c8a607d67b321582dd8461041b1dc2ceeca70c8b7f37f8e02095cf2e76d86856002015486600301546040516108f493929190610d16565b60405180910390a45050610906610958565b50565b60026000540361094e576040517f08c379a000000000000000000000000000000000000000000000000000000000815260040161094590610ff1565b60405180910390fd5b6002600081905550565b6001600081905550565b600080fd5b600073ffffffffffffffffffffffffffffffffffffffff82169050919050565b600061099282610967565b9050919050565b60006109a482610987565b9050919050565b6109b481610999565b81146109bf57600080fd5b50565b6000813590506109d1816109ab565b92915050565b6000819050919050565b6109ea816109d7565b81146109f557600080fd5b50565b600081359050610a07816109e1565b92915050565b600080600060608486031215610a2657610a25610962565b5b6000610a34868287016109c2565b9350506020610a45868287016109f8565b9250506040610a56868287016109f8565b9150509250925092565b6000610a6b82610967565b9050919050565b610a7b81610a60565b82525050565b6000602082019050610a966000830184610a72565b92915050565b610aa5816109d7565b82525050565b6000602082019050610ac06000830184610a9c565b92915050565b600060208284031215610adc57610adb610962565b5b6000610aea848285016109f8565b91505092915050565b6000819050919050565b6000610b18610b13610b0e84610967565b610af3565b610967565b9050919050565b6000610b2a82610afd565b9050919050565b6000610b3c82610b1f565b9050919050565b610b4c81610b31565b82525050565b60008115159050919050565b610b6781610b52565b82525050565b600060c082019050610b826000830189610a9c565b610b8f6020830188610b43565b610b9c6040830187610a9c565b610ba96060830186610a9c565b610bb66080830185610a72565b610bc360a0830184610b5e565b979650505050505050565b600082825260208201905092915050565b7f7072696365206d7573742062652067726561746572207468616e203000000000600082015250565b6000610c15601c83610bce565b9150610c2082610bdf565b602082019050919050565b60006020820190508181036000830152610c4481610c08565b9050919050565b7f4e487b7100000000000000000000000000000000000000000000000000000000600052601160045260246000fd5b6000610c85826109d7565b9150610c90836109d7565b9250827fffffffffffffffffffffffffffffffffffffffffffffffffffffffffffffffff03821115610cc557610cc4610c4b565b5b828201905092915050565b610cd981610987565b82525050565b6000606082019050610cf46000830186610cd0565b610d016020830185610cd0565b610d0e6040830184610a9c565b949350505050565b6000606082019050610d2b6000830186610a9c565b610d386020830185610a9c565b610d456040830184610a9c565b949350505050565b6000610d58826109d7565b9150610d63836109d7565b9250817fffffffffffffffffffffffffffffffffffffffffffffffffffffffffffffffff0483118215151615610d9c57610d9b610c4b565b5b828202905092915050565b7f4e487b7100000000000000000000000000000000000000000000000000000000600052601260045260246000fd5b6000610de1826109d7565b9150610dec836109d7565b925082610dfc57610dfb610da7565b5b828204905092915050565b7f6974656d20646f65736e27742065786973740000000000000000000000000000600082015250565b6000610e3d601283610bce565b9150610e4882610e07565b602082019050919050565b60006020820190508181036000830152610e6c81610e30565b9050919050565b7f6e6f7420656e6f75676820657468657220746f20636f76657220746865206e6660008201527f7420707269636520616e64206d61726b65742066656500000000000000000000602082015250565b6000610ecf603683610bce565b9150610eda82610e73565b604082019050919050565b60006020820190508181036000830152610efe81610ec2565b9050919050565b7f6974656d20697320616c726561647920736f6c64000000000000000000000000600082015250565b6000610f3b601483610bce565b9150610f4682610f05565b602082019050919050565b60006020820190508181036000830152610f6a81610f2e565b9050919050565b6000610f7c826109d7565b9150610f87836109d7565b925082821015610f9a57610f99610c4b565b5b828203905092915050565b7f5265656e7472616e637947756172643a207265656e7472616e742063616c6c00600082015250565b6000610fdb601f83610bce565b9150610fe682610fa5565b602082019050919050565b6000602082019050818103600083015261100a81610fce565b905091905056fea26469706673582212205a651843db73e54892eae6dbec0e75bc167659ff9c4537e625774df76fd3e23f64736f6c634300080f0033",
  "immutableReferences": {
    "889": [
      {
        "length": 32,
        "start": 1097
      },
      {
        "length": 32,
        "start": 1796
      }
    ],
    "891": [
      {
        "length": 32,
        "start": 1139
      },
      {
        "length": 32,
        "start": 1316
      }
    ]
  },
  "source": "//SPDX-License-Identifier: MIT\n\npragma solidity ^0.8.4;\n\nimport \"../notus-svelte-main/node_modules/@openzeppelin/contracts/token/ERC721/IERC721.sol\";\nimport \"../notus-svelte-main/node_modules/@openzeppelin/contracts/security/ReentrancyGuard.sol\";\n\ncontract Marketplace is ReentrancyGuard {\n    //state variables\n    address payable public immutable feeAccount; //the account that receives fees\n    uint public immutable feePercent; //the fee percentage on sales\n    uint public itemCount;\n\n    struct Item {\n        uint itemId;\n        IERC721 nft; //an instance of the nft contract\n        uint tokenId;\n        uint price;\n        address payable seller;\n        bool sold;\n\n    }\n\n    event Offered(\n        uint _itemId,\n        address indexed nft,\n        uint _tokenId,\n        uint price,\n        address indexed seller\n\n    );\n\n     event Bought(\n        uint _itemId,\n        address indexed nft,\n        uint _tokenId,\n        uint price,\n        address indexed seller,\n        address indexed buyer\n\n    );\n\n\n    //itemId -> Item\n    mapping(uint => Item) public items;\n\n    constructor(uint _feePercent) {\n        feeAccount = payable(msg.sender);\n        feePercent = _feePercent;\n\n    }\n\n    function makeItems(IERC721 _nft, uint _tokenId,uint _price) external nonReentrant {\n        require(_price > 0, \"price must be greater than 0\");\n        //increment itemcount\n        itemCount += 1;\n        //transfer nft\n        _nft.transferFrom(msg.sender, address(this), _tokenId);\n        //add new items to the items mapping\n        items[itemCount] = Item (\n            itemCount,\n            _nft,\n            _tokenId,\n            _price,\n            payable(msg.sender),\n            false\n        );\n\n        emit Offered( itemCount,address(_nft),_tokenId,_price,msg.sender);\n\n    }\n\n    function purchaseItem(uint _itemId) external payable nonReentrant {\n        uint totalPrice = getTotalPrice(_itemId);\n        Item storage item = items[_itemId];\n        require(_itemId > 0 && _itemId <= itemCount, \"item doesn't exist\");\n        require(msg.value >= totalPrice, \"not enough ether to cover the nft price and market fee\");\n        require(!item.sold, \"item is already sold\");\n\n        //pay seller and feeAccount\n        item.seller.transfer(item.price);\n        feeAccount.transfer(totalPrice - item.price);\n\n        //update the item as sold\n        item.sold = true;\n\n        //transfer nft to buyer\n        item.nft.transferFrom(address(this), msg.sender, item.tokenId);\n\n        //emit a bought event\n        emit Bought( _itemId,address(item.nft),item.tokenId, item.price,item.seller,msg.sender);\n    }\n\n    function getTotalPrice(uint _itemId) view public returns(uint){\n        return (items[_itemId].price * ( 100 * feePercent ) / 100);\n    }\n\n}",
  "sourcePath": "/home/jarvis/projects/mtech_proj-main/contracts/Marketplace.sol",
  "compiler": {
    "name": "solc",
    "version": "0.8.15+commit.e14f2714.Emscripten.clang"
  },
  "schemaVersion": "3.4.8",
  "updatedAt": "2023-04-05T09:16:57.596Z",
  "networkType": "ethereum",
  "devdoc": {
    "kind": "dev",
    "methods": {},
    "version": 1
  },
  "userdoc": {
    "kind": "user",
    "methods": {},
    "version": 1
  }
}