{
  "contractName": "NFT",
  "abi": [
    {
      "inputs": [],
      "stateMutability": "nonpayable",
      "type": "constructor"
    },
    {
      "anonymous": false,
      "inputs": [
        {
          "indexed": true,
          "internalType": "address",
          "name": "owner",
          "type": "address"
        },
        {
          "indexed": true,
          "internalType": "address",
          "name": "approved",
          "type": "address"
        },
        {
          "indexed": true,
          "internalType": "uint256",
          "name": "tokenId",
          "type": "uint256"
        }
      ],
      "name": "Approval",
      "type": "event"
    },
    {
      "anonymous": false,
      "inputs": [
        {
          "indexed": true,
          "internalType": "address",
          "name": "owner",
          "type": "address"
        },
        {
          "indexed": true,
          "internalType": "address",
          "name": "operator",
          "type": "address"
        },
        {
          "indexed": false,
          "internalType": "bool",
          "name": "approved",
          "type": "bool"
        }
      ],
      "name": "ApprovalForAll",
      "type": "event"
    },
    {
      "anonymous": false,
      "inputs": [
        {
          "indexed": true,
          "internalType": "address",
          "name": "from",
          "type": "address"
        },
        {
          "indexed": true,
          "internalType": "address",
          "name": "to",
          "type": "address"
        },
        {
          "indexed": true,
          "internalType": "uint256",
          "name": "tokenId",
          "type": "uint256"
        }
      ],
      "name": "Transfer",
      "type": "event"
    },
    {
      "inputs": [
        {
          "internalType": "address",
          "name": "to",
          "type": "address"
        },
        {
          "internalType": "uint256",
          "name": "tokenId",
          "type": "uint256"
        }
      ],
      "name": "approve",
      "outputs": [],
      "stateMutability": "nonpayable",
      "type": "function"
    },
    {
      "inputs": [
        {
          "internalType": "address",
          "name": "owner",
          "type": "address"
        }
      ],
      "name": "balanceOf",
      "outputs": [
        {
          "internalType": "uint256",
          "name": "",
          "type": "uint256"
        }
      ],
      "stateMutability": "view",
      "type": "function",
      "constant": true
    },
    {
      "inputs": [
        {
          "internalType": "uint256",
          "name": "tokenId",
          "type": "uint256"
        }
      ],
      "name": "getApproved",
      "outputs": [
        {
          "internalType": "address",
          "name": "",
          "type": "address"
        }
      ],
      "stateMutability": "view",
      "type": "function",
      "constant": true
    },
    {
      "inputs": [
        {
          "internalType": "address",
          "name": "owner",
          "type": "address"
        },
        {
          "internalType": "address",
          "name": "operator",
          "type": "address"
        }
      ],
      "name": "isApprovedForAll",
      "outputs": [
        {
          "internalType": "bool",
          "name": "",
          "type": "bool"
        }
      ],
      "stateMutability": "view",
      "type": "function",
      "constant": true
    },
    {
      "inputs": [],
      "name": "name",
      "outputs": [
        {
          "internalType": "string",
          "name": "",
          "type": "string"
        }
      ],
      "stateMutability": "view",
      "type": "function",
      "constant": true
    },
    {
      "inputs": [
        {
          "internalType": "uint256",
          "name": "tokenId",
          "type": "uint256"
        }
      ],
      "name": "ownerOf",
      "outputs": [
        {
          "internalType": "address",
          "name": "",
          "type": "address"
        }
      ],
      "stateMutability": "view",
      "type": "function",
      "constant": true
    },
    {
      "inputs": [
        {
          "internalType": "address",
          "name": "from",
          "type": "address"
        },
        {
          "internalType": "address",
          "name": "to",
          "type": "address"
        },
        {
          "internalType": "uint256",
          "name": "tokenId",
          "type": "uint256"
        }
      ],
      "name": "safeTransferFrom",
      "outputs": [],
      "stateMutability": "nonpayable",
      "type": "function"
    },
    {
      "inputs": [
        {
          "internalType": "address",
          "name": "from",
          "type": "address"
        },
        {
          "internalType": "address",
          "name": "to",
          "type": "address"
        },
        {
          "internalType": "uint256",
          "name": "tokenId",
          "type": "uint256"
        },
        {
          "internalType": "bytes",
          "name": "data",
          "type": "bytes"
        }
      ],
      "name": "safeTransferFrom",
      "outputs": [],
      "stateMutability": "nonpayable",
      "type": "function"
    },
    {
      "inputs": [
        {
          "internalType": "address",
          "name": "operator",
          "type": "address"
        },
        {
          "internalType": "bool",
          "name": "approved",
          "type": "bool"
        }
      ],
      "name": "setApprovalForAll",
      "outputs": [],
      "stateMutability": "nonpayable",
      "type": "function"
    },
    {
      "inputs": [
        {
          "internalType": "bytes4",
          "name": "interfaceId",
          "type": "bytes4"
        }
      ],
      "name": "supportsInterface",
      "outputs": [
        {
          "internalType": "bool",
          "name": "",
          "type": "bool"
        }
      ],
      "stateMutability": "view",
      "type": "function",
      "constant": true
    },
    {
      "inputs": [],
      "name": "symbol",
      "outputs": [
        {
          "internalType": "string",
          "name": "",
          "type": "string"
        }
      ],
      "stateMutability": "view",
      "type": "function",
      "constant": true
    },
    {
      "inputs": [],
      "name": "tokenCount",
      "outputs": [
        {
          "internalType": "uint256",
          "name": "",
          "type": "uint256"
        }
      ],
      "stateMutability": "view",
      "type": "function",
      "constant": true
    },
    {
      "inputs": [
        {
          "internalType": "uint256",
          "name": "tokenId",
          "type": "uint256"
        }
      ],
      "name": "tokenURI",
      "outputs": [
        {
          "internalType": "string",
          "name": "",
          "type": "string"
        }
      ],
      "stateMutability": "view",
      "type": "function",
      "constant": true
    },
    {
      "inputs": [
        {
          "internalType": "address",
          "name": "from",
          "type": "address"
        },
        {
          "internalType": "address",
          "name": "to",
          "type": "address"
        },
        {
          "internalType": "uint256",
          "name": "tokenId",
          "type": "uint256"
        }
      ],
      "name": "transferFrom",
      "outputs": [],
      "stateMutability": "nonpayable",
      "type": "function"
    },
    {
      "inputs": [
        {
          "internalType": "string",
          "name": "_tokenURI",
          "type": "string"
        }
      ],
      "name": "mint",
      "outputs": [
        {
          "internalType": "uint256",
          "name": "",
          "type": "uint256"
        }
      ],
      "stateMutability": "nonpayable",
      "type": "function"
    }
  ],
  "bytecode": "0x60806040523480156200001157600080fd5b506040518060400160405280600881526020017f44617070204e46540000000000000000000000000000000000000000000000008152506040518060400160405280600481526020017f444150500000000000000000000000000000000000000000000000000000000081525081600090816200008f919062000324565b508060019081620000a1919062000324565b5050506200040b565b600081519050919050565b7f4e487b7100000000000000000000000000000000000000000000000000000000600052604160045260246000fd5b7f4e487b7100000000000000000000000000000000000000000000000000000000600052602260045260246000fd5b600060028204905060018216806200012c57607f821691505b602082108103620001425762000141620000e4565b5b50919050565b60008190508160005260206000209050919050565b60006020601f8301049050919050565b600082821b905092915050565b600060088302620001ac7fffffffffffffffffffffffffffffffffffffffffffffffffffffffffffffffff826200016d565b620001b886836200016d565b95508019841693508086168417925050509392505050565b6000819050919050565b6000819050919050565b600062000205620001ff620001f984620001d0565b620001da565b620001d0565b9050919050565b6000819050919050565b6200022183620001e4565b6200023962000230826200020c565b8484546200017a565b825550505050565b600090565b6200025062000241565b6200025d81848462000216565b505050565b5b8181101562000285576200027960008262000246565b60018101905062000263565b5050565b601f821115620002d4576200029e8162000148565b620002a9846200015d565b81016020851015620002b9578190505b620002d1620002c8856200015d565b83018262000262565b50505b505050565b600082821c905092915050565b6000620002f960001984600802620002d9565b1980831691505092915050565b6000620003148383620002e6565b9150826002028217905092915050565b6200032f82620000aa565b67ffffffffffffffff8111156200034b576200034a620000b5565b5b62000357825462000113565b6200036482828562000289565b600060209050601f8311600181146200039c576000841562000387578287015190505b62000393858262000306565b86555062000403565b601f198416620003ac8662000148565b60005b82811015620003d657848901518255600182019150602085019450602081019050620003af565b86831015620003f65784890151620003f2601f891682620002e6565b8355505b6001600288020188555050505b505050505050565b612b3d806200041b6000396000f3fe608060405234801561001057600080fd5b50600436106100f55760003560e01c806370a0823111610097578063b88d4fde11610066578063b88d4fde14610284578063c87b56dd146102a0578063d85d3d27146102d0578063e985e9c514610300576100f5565b806370a08231146101fc57806395d89b411461022c5780639f181b5e1461024a578063a22cb46514610268576100f5565b8063095ea7b3116100d3578063095ea7b31461017857806323b872dd1461019457806342842e0e146101b05780636352211e146101cc576100f5565b806301ffc9a7146100fa57806306fdde031461012a578063081812fc14610148575b600080fd5b610114600480360381019061010f91906119bf565b610330565b6040516101219190611a07565b60405180910390f35b610132610412565b60405161013f9190611abb565b60405180910390f35b610162600480360381019061015d9190611b13565b6104a4565b60405161016f9190611b81565b60405180910390f35b610192600480360381019061018d9190611bc8565b6104ea565b005b6101ae60048036038101906101a99190611c08565b610601565b005b6101ca60048036038101906101c59190611c08565b610661565b005b6101e660048036038101906101e19190611b13565b610681565b6040516101f39190611b81565b60405180910390f35b61021660048036038101906102119190611c5b565b610707565b6040516102239190611c97565b60405180910390f35b6102346107be565b6040516102419190611abb565b60405180910390f35b610252610850565b60405161025f9190611c97565b60405180910390f35b610282600480360381019061027d9190611cde565b610856565b005b61029e60048036038101906102999190611e53565b61086c565b005b6102ba60048036038101906102b59190611b13565b6108ce565b6040516102c79190611abb565b60405180910390f35b6102ea60048036038101906102e59190611f77565b6109e0565b6040516102f79190611c97565b60405180910390f35b61031a60048036038101906103159190611fc0565b610a1c565b6040516103279190611a07565b60405180910390f35b60007f80ac58cd000000000000000000000000000000000000000000000000000000007bffffffffffffffffffffffffffffffffffffffffffffffffffffffff1916827bffffffffffffffffffffffffffffffffffffffffffffffffffffffff191614806103fb57507f5b5e139f000000000000000000000000000000000000000000000000000000007bffffffffffffffffffffffffffffffffffffffffffffffffffffffff1916827bffffffffffffffffffffffffffffffffffffffffffffffffffffffff1916145b8061040b575061040a82610ab0565b5b9050919050565b6060600080546104219061202f565b80601f016020809104026020016040519081016040528092919081815260200182805461044d9061202f565b801561049a5780601f1061046f5761010080835404028352916020019161049a565b820191906000526020600020905b81548152906001019060200180831161047d57829003601f168201915b5050505050905090565b60006104af82610b1a565b6004600083815260200190815260200160002060009054906101000a900473ffffffffffffffffffffffffffffffffffffffff169050919050565b60006104f582610681565b90508073ffffffffffffffffffffffffffffffffffffffff168373ffffffffffffffffffffffffffffffffffffffff1603610565576040517f08c379a000000000000000000000000000000000000000000000000000000000815260040161055c906120d2565b60405180910390fd5b8073ffffffffffffffffffffffffffffffffffffffff16610584610b65565b73ffffffffffffffffffffffffffffffffffffffff1614806105b357506105b2816105ad610b65565b610a1c565b5b6105f2576040517f08c379a00000000000000000000000000000000000000000000000000000000081526004016105e990612164565b60405180910390fd5b6105fc8383610b6d565b505050565b61061261060c610b65565b82610c26565b610651576040517f08c379a0000000000000000000000000000000000000000000000000000000008152600401610648906121f6565b60405180910390fd5b61065c838383610cbb565b505050565b61067c8383836040518060200160405280600081525061086c565b505050565b60008061068d83610fb4565b9050600073ffffffffffffffffffffffffffffffffffffffff168173ffffffffffffffffffffffffffffffffffffffff16036106fe576040517f08c379a00000000000000000000000000000000000000000000000000000000081526004016106f590612262565b60405180910390fd5b80915050919050565b60008073ffffffffffffffffffffffffffffffffffffffff168273ffffffffffffffffffffffffffffffffffffffff1603610777576040517f08c379a000000000000000000000000000000000000000000000000000000000815260040161076e906122f4565b60405180910390fd5b600360008373ffffffffffffffffffffffffffffffffffffffff1673ffffffffffffffffffffffffffffffffffffffff168152602001908152602001600020549050919050565b6060600180546107cd9061202f565b80601f01602080910402602001604051908101604052809291908181526020018280546107f99061202f565b80156108465780601f1061081b57610100808354040283529160200191610846565b820191906000526020600020905b81548152906001019060200180831161082957829003601f168201915b5050505050905090565b60075481565b610868610861610b65565b8383610ff1565b5050565b61087d610877610b65565b83610c26565b6108bc576040517f08c379a00000000000000000000000000000000000000000000000000000000081526004016108b3906121f6565b60405180910390fd5b6108c88484848461115d565b50505050565b60606108d982610b1a565b60006006600084815260200190815260200160002080546108f99061202f565b80601f01602080910402602001604051908101604052809291908181526020018280546109259061202f565b80156109725780601f1061094757610100808354040283529160200191610972565b820191906000526020600020905b81548152906001019060200180831161095557829003601f168201915b5050505050905060006109836111b9565b905060008151036109985781925050506109db565b6000825111156109cd5780826040516020016109b5929190612350565b604051602081830303815290604052925050506109db565b6109d6846111d0565b925050505b919050565b6000600760008154809291906109f5906123a3565b9190505550610a0633600754611238565b610a1260075483611256565b6007549050919050565b6000600560008473ffffffffffffffffffffffffffffffffffffffff1673ffffffffffffffffffffffffffffffffffffffff16815260200190815260200160002060008373ffffffffffffffffffffffffffffffffffffffff1673ffffffffffffffffffffffffffffffffffffffff16815260200190815260200160002060009054906101000a900460ff16905092915050565b60007f01ffc9a7000000000000000000000000000000000000000000000000000000007bffffffffffffffffffffffffffffffffffffffffffffffffffffffff1916827bffffffffffffffffffffffffffffffffffffffffffffffffffffffff1916149050919050565b610b23816112c3565b610b62576040517f08c379a0000000000000000000000000000000000000000000000000000000008152600401610b5990612262565b60405180910390fd5b50565b600033905090565b816004600083815260200190815260200160002060006101000a81548173ffffffffffffffffffffffffffffffffffffffff021916908373ffffffffffffffffffffffffffffffffffffffff160217905550808273ffffffffffffffffffffffffffffffffffffffff16610be083610681565b73ffffffffffffffffffffffffffffffffffffffff167f8c5be1e5ebec7d5bd14f71427d1e84f3dd0314c0f7b2291e5b200ac8c7c3b92560405160405180910390a45050565b600080610c3283610681565b90508073ffffffffffffffffffffffffffffffffffffffff168473ffffffffffffffffffffffffffffffffffffffff161480610c745750610c738185610a1c565b5b80610cb257508373ffffffffffffffffffffffffffffffffffffffff16610c9a846104a4565b73ffffffffffffffffffffffffffffffffffffffff16145b91505092915050565b8273ffffffffffffffffffffffffffffffffffffffff16610cdb82610681565b73ffffffffffffffffffffffffffffffffffffffff1614610d31576040517f08c379a0000000000000000000000000000000000000000000000000000000008152600401610d289061245d565b60405180910390fd5b600073ffffffffffffffffffffffffffffffffffffffff168273ffffffffffffffffffffffffffffffffffffffff1603610da0576040517f08c379a0000000000000000000000000000000000000000000000000000000008152600401610d97906124ef565b60405180910390fd5b610dad8383836001611304565b8273ffffffffffffffffffffffffffffffffffffffff16610dcd82610681565b73ffffffffffffffffffffffffffffffffffffffff1614610e23576040517f08c379a0000000000000000000000000000000000000000000000000000000008152600401610e1a9061245d565b60405180910390fd5b6004600082815260200190815260200160002060006101000a81549073ffffffffffffffffffffffffffffffffffffffff02191690556001600360008573ffffffffffffffffffffffffffffffffffffffff1673ffffffffffffffffffffffffffffffffffffffff168152602001908152602001600020600082825403925050819055506001600360008473ffffffffffffffffffffffffffffffffffffffff1673ffffffffffffffffffffffffffffffffffffffff16815260200190815260200160002060008282540192505081905550816002600083815260200190815260200160002060006101000a81548173ffffffffffffffffffffffffffffffffffffffff021916908373ffffffffffffffffffffffffffffffffffffffff160217905550808273ffffffffffffffffffffffffffffffffffffffff168473ffffffffffffffffffffffffffffffffffffffff167fddf252ad1be2c89b69c2b068fc378daa952ba7f163c4a11628f55a4df523b3ef60405160405180910390a4610faf838383600161130a565b505050565b60006002600083815260200190815260200160002060009054906101000a900473ffffffffffffffffffffffffffffffffffffffff169050919050565b8173ffffffffffffffffffffffffffffffffffffffff168373ffffffffffffffffffffffffffffffffffffffff160361105f576040517f08c379a00000000000000000000000000000000000000000000000000000000081526004016110569061255b565b60405180910390fd5b80600560008573ffffffffffffffffffffffffffffffffffffffff1673ffffffffffffffffffffffffffffffffffffffff16815260200190815260200160002060008473ffffffffffffffffffffffffffffffffffffffff1673ffffffffffffffffffffffffffffffffffffffff16815260200190815260200160002060006101000a81548160ff0219169083151502179055508173ffffffffffffffffffffffffffffffffffffffff168373ffffffffffffffffffffffffffffffffffffffff167f17307eab39ab6107e8899845ad3d59bd9653f200f220920489ca2b5937696c31836040516111509190611a07565b60405180910390a3505050565b611168848484610cbb565b61117484848484611310565b6111b3576040517f08c379a00000000000000000000000000000000000000000000000000000000081526004016111aa906125ed565b60405180910390fd5b50505050565b606060405180602001604052806000815250905090565b60606111db82610b1a565b60006111e56111b9565b905060008151116112055760405180602001604052806000815250611230565b8061120f84611497565b604051602001611220929190612350565b6040516020818303038152906040525b915050919050565b611252828260405180602001604052806000815250611565565b5050565b61125f826112c3565b61129e576040517f08c379a00000000000000000000000000000000000000000000000000000000081526004016112959061267f565b60405180910390fd5b806006600084815260200190815260200160002090816112be919061284b565b505050565b60008073ffffffffffffffffffffffffffffffffffffffff166112e583610fb4565b73ffffffffffffffffffffffffffffffffffffffff1614159050919050565b50505050565b50505050565b60006113318473ffffffffffffffffffffffffffffffffffffffff166115c0565b1561148a578373ffffffffffffffffffffffffffffffffffffffff1663150b7a0261135a610b65565b8786866040518563ffffffff1660e01b815260040161137c9493929190612972565b6020604051808303816000875af19250505080156113b857506040513d601f19601f820116820180604052508101906113b591906129d3565b60015b61143a573d80600081146113e8576040519150601f19603f3d011682016040523d82523d6000602084013e6113ed565b606091505b506000815103611432576040517f08c379a0000000000000000000000000000000000000000000000000000000008152600401611429906125ed565b60405180910390fd5b805181602001fd5b63150b7a0260e01b7bffffffffffffffffffffffffffffffffffffffffffffffffffffffff1916817bffffffffffffffffffffffffffffffffffffffffffffffffffffffff19161491505061148f565b600190505b949350505050565b6060600060016114a6846115e3565b01905060008167ffffffffffffffff8111156114c5576114c4611d28565b5b6040519080825280601f01601f1916602001820160405280156114f75781602001600182028036833780820191505090505b509050600082602001820190505b60011561155a578080600190039150507f3031323334353637383961626364656600000000000000000000000000000000600a86061a8153600a858161154e5761154d612a00565b5b04945060008503611505575b819350505050919050565b61156f8383611736565b61157c6000848484611310565b6115bb576040517f08c379a00000000000000000000000000000000000000000000000000000000081526004016115b2906125ed565b60405180910390fd5b505050565b6000808273ffffffffffffffffffffffffffffffffffffffff163b119050919050565b600080600090507a184f03e93ff9f4daa797ed6e38ed64bf6a1f0100000000000000008310611641577a184f03e93ff9f4daa797ed6e38ed64bf6a1f010000000000000000838161163757611636612a00565b5b0492506040810190505b6d04ee2d6d415b85acef8100000000831061167e576d04ee2d6d415b85acef8100000000838161167457611673612a00565b5b0492506020810190505b662386f26fc1000083106116ad57662386f26fc1000083816116a3576116a2612a00565b5b0492506010810190505b6305f5e10083106116d6576305f5e10083816116cc576116cb612a00565b5b0492506008810190505b61271083106116fb5761271083816116f1576116f0612a00565b5b0492506004810190505b6064831061171e576064838161171457611713612a00565b5b0492506002810190505b600a831061172d576001810190505b80915050919050565b600073ffffffffffffffffffffffffffffffffffffffff168273ffffffffffffffffffffffffffffffffffffffff16036117a5576040517f08c379a000000000000000000000000000000000000000000000000000000000815260040161179c90612a7b565b60405180910390fd5b6117ae816112c3565b156117ee576040517f08c379a00000000000000000000000000000000000000000000000000000000081526004016117e590612ae7565b60405180910390fd5b6117fc600083836001611304565b611805816112c3565b15611845576040517f08c379a000000000000000000000000000000000000000000000000000000000815260040161183c90612ae7565b60405180910390fd5b6001600360008473ffffffffffffffffffffffffffffffffffffffff1673ffffffffffffffffffffffffffffffffffffffff16815260200190815260200160002060008282540192505081905550816002600083815260200190815260200160002060006101000a81548173ffffffffffffffffffffffffffffffffffffffff021916908373ffffffffffffffffffffffffffffffffffffffff160217905550808273ffffffffffffffffffffffffffffffffffffffff16600073ffffffffffffffffffffffffffffffffffffffff167fddf252ad1be2c89b69c2b068fc378daa952ba7f163c4a11628f55a4df523b3ef60405160405180910390a461194f60008383600161130a565b5050565b6000604051905090565b600080fd5b600080fd5b60007fffffffff0000000000000000000000000000000000000000000000000000000082169050919050565b61199c81611967565b81146119a757600080fd5b50565b6000813590506119b981611993565b92915050565b6000602082840312156119d5576119d461195d565b5b60006119e3848285016119aa565b91505092915050565b60008115159050919050565b611a01816119ec565b82525050565b6000602082019050611a1c60008301846119f8565b92915050565b600081519050919050565b600082825260208201905092915050565b60005b83811015611a5c578082015181840152602081019050611a41565b83811115611a6b576000848401525b50505050565b6000601f19601f8301169050919050565b6000611a8d82611a22565b611a978185611a2d565b9350611aa7818560208601611a3e565b611ab081611a71565b840191505092915050565b60006020820190508181036000830152611ad58184611a82565b905092915050565b6000819050919050565b611af081611add565b8114611afb57600080fd5b50565b600081359050611b0d81611ae7565b92915050565b600060208284031215611b2957611b2861195d565b5b6000611b3784828501611afe565b91505092915050565b600073ffffffffffffffffffffffffffffffffffffffff82169050919050565b6000611b6b82611b40565b9050919050565b611b7b81611b60565b82525050565b6000602082019050611b966000830184611b72565b92915050565b611ba581611b60565b8114611bb057600080fd5b50565b600081359050611bc281611b9c565b92915050565b60008060408385031215611bdf57611bde61195d565b5b6000611bed85828601611bb3565b9250506020611bfe85828601611afe565b9150509250929050565b600080600060608486031215611c2157611c2061195d565b5b6000611c2f86828701611bb3565b9350506020611c4086828701611bb3565b9250506040611c5186828701611afe565b9150509250925092565b600060208284031215611c7157611c7061195d565b5b6000611c7f84828501611bb3565b91505092915050565b611c9181611add565b82525050565b6000602082019050611cac6000830184611c88565b92915050565b611cbb816119ec565b8114611cc657600080fd5b50565b600081359050611cd881611cb2565b92915050565b60008060408385031215611cf557611cf461195d565b5b6000611d0385828601611bb3565b9250506020611d1485828601611cc9565b9150509250929050565b600080fd5b600080fd5b7f4e487b7100000000000000000000000000000000000000000000000000000000600052604160045260246000fd5b611d6082611a71565b810181811067ffffffffffffffff82111715611d7f57611d7e611d28565b5b80604052505050565b6000611d92611953565b9050611d9e8282611d57565b919050565b600067ffffffffffffffff821115611dbe57611dbd611d28565b5b611dc782611a71565b9050602081019050919050565b82818337600083830152505050565b6000611df6611df184611da3565b611d88565b905082815260208101848484011115611e1257611e11611d23565b5b611e1d848285611dd4565b509392505050565b600082601f830112611e3a57611e39611d1e565b5b8135611e4a848260208601611de3565b91505092915050565b60008060008060808587031215611e6d57611e6c61195d565b5b6000611e7b87828801611bb3565b9450506020611e8c87828801611bb3565b9350506040611e9d87828801611afe565b925050606085013567ffffffffffffffff811115611ebe57611ebd611962565b5b611eca87828801611e25565b91505092959194509250565b600067ffffffffffffffff821115611ef157611ef0611d28565b5b611efa82611a71565b9050602081019050919050565b6000611f1a611f1584611ed6565b611d88565b905082815260208101848484011115611f3657611f35611d23565b5b611f41848285611dd4565b509392505050565b600082601f830112611f5e57611f5d611d1e565b5b8135611f6e848260208601611f07565b91505092915050565b600060208284031215611f8d57611f8c61195d565b5b600082013567ffffffffffffffff811115611fab57611faa611962565b5b611fb784828501611f49565b91505092915050565b60008060408385031215611fd757611fd661195d565b5b6000611fe585828601611bb3565b9250506020611ff685828601611bb3565b9150509250929050565b7f4e487b7100000000000000000000000000000000000000000000000000000000600052602260045260246000fd5b6000600282049050600182168061204757607f821691505b60208210810361205a57612059612000565b5b50919050565b7f4552433732313a20617070726f76616c20746f2063757272656e74206f776e6560008201527f7200000000000000000000000000000000000000000000000000000000000000602082015250565b60006120bc602183611a2d565b91506120c782612060565b604082019050919050565b600060208201905081810360008301526120eb816120af565b9050919050565b7f4552433732313a20617070726f76652063616c6c6572206973206e6f7420746f60008201527f6b656e206f776e6572206f7220617070726f76656420666f7220616c6c000000602082015250565b600061214e603d83611a2d565b9150612159826120f2565b604082019050919050565b6000602082019050818103600083015261217d81612141565b9050919050565b7f4552433732313a2063616c6c6572206973206e6f7420746f6b656e206f776e6560008201527f72206f7220617070726f76656400000000000000000000000000000000000000602082015250565b60006121e0602d83611a2d565b91506121eb82612184565b604082019050919050565b6000602082019050818103600083015261220f816121d3565b9050919050565b7f4552433732313a20696e76616c696420746f6b656e2049440000000000000000600082015250565b600061224c601883611a2d565b915061225782612216565b602082019050919050565b6000602082019050818103600083015261227b8161223f565b9050919050565b7f4552433732313a2061646472657373207a65726f206973206e6f74206120766160008201527f6c6964206f776e65720000000000000000000000000000000000000000000000602082015250565b60006122de602983611a2d565b91506122e982612282565b604082019050919050565b6000602082019050818103600083015261230d816122d1565b9050919050565b600081905092915050565b600061232a82611a22565b6123348185612314565b9350612344818560208601611a3e565b80840191505092915050565b600061235c828561231f565b9150612368828461231f565b91508190509392505050565b7f4e487b7100000000000000000000000000000000000000000000000000000000600052601160045260246000fd5b60006123ae82611add565b91507fffffffffffffffffffffffffffffffffffffffffffffffffffffffffffffffff82036123e0576123df612374565b5b600182019050919050565b7f4552433732313a207472616e736665722066726f6d20696e636f72726563742060008201527f6f776e6572000000000000000000000000000000000000000000000000000000602082015250565b6000612447602583611a2d565b9150612452826123eb565b604082019050919050565b600060208201905081810360008301526124768161243a565b9050919050565b7f4552433732313a207472616e7366657220746f20746865207a65726f2061646460008201527f7265737300000000000000000000000000000000000000000000000000000000602082015250565b60006124d9602483611a2d565b91506124e48261247d565b604082019050919050565b60006020820190508181036000830152612508816124cc565b9050919050565b7f4552433732313a20617070726f766520746f2063616c6c657200000000000000600082015250565b6000612545601983611a2d565b91506125508261250f565b602082019050919050565b6000602082019050818103600083015261257481612538565b9050919050565b7f4552433732313a207472616e7366657220746f206e6f6e20455243373231526560008201527f63656976657220696d706c656d656e7465720000000000000000000000000000602082015250565b60006125d7603283611a2d565b91506125e28261257b565b604082019050919050565b60006020820190508181036000830152612606816125ca565b9050919050565b7f45524337323155524953746f726167653a2055524920736574206f66206e6f6e60008201527f6578697374656e7420746f6b656e000000000000000000000000000000000000602082015250565b6000612669602e83611a2d565b91506126748261260d565b604082019050919050565b600060208201905081810360008301526126988161265c565b9050919050565b60008190508160005260206000209050919050565b60006020601f8301049050919050565b600082821b905092915050565b6000600883026127017fffffffffffffffffffffffffffffffffffffffffffffffffffffffffffffffff826126c4565b61270b86836126c4565b95508019841693508086168417925050509392505050565b6000819050919050565b600061274861274361273e84611add565b612723565b611add565b9050919050565b6000819050919050565b6127628361272d565b61277661276e8261274f565b8484546126d1565b825550505050565b600090565b61278b61277e565b612796818484612759565b505050565b5b818110156127ba576127af600082612783565b60018101905061279c565b5050565b601f8211156127ff576127d08161269f565b6127d9846126b4565b810160208510156127e8578190505b6127fc6127f4856126b4565b83018261279b565b50505b505050565b600082821c905092915050565b600061282260001984600802612804565b1980831691505092915050565b600061283b8383612811565b9150826002028217905092915050565b61285482611a22565b67ffffffffffffffff81111561286d5761286c611d28565b5b612877825461202f565b6128828282856127be565b600060209050601f8311600181146128b557600084156128a3578287015190505b6128ad858261282f565b865550612915565b601f1984166128c38661269f565b60005b828110156128eb578489015182556001820191506020850194506020810190506128c6565b868310156129085784890151612904601f891682612811565b8355505b6001600288020188555050505b505050505050565b600081519050919050565b600082825260208201905092915050565b60006129448261291d565b61294e8185612928565b935061295e818560208601611a3e565b61296781611a71565b840191505092915050565b60006080820190506129876000830187611b72565b6129946020830186611b72565b6129a16040830185611c88565b81810360608301526129b38184612939565b905095945050505050565b6000815190506129cd81611993565b92915050565b6000602082840312156129e9576129e861195d565b5b60006129f7848285016129be565b91505092915050565b7f4e487b7100000000000000000000000000000000000000000000000000000000600052601260045260246000fd5b7f4552433732313a206d696e7420746f20746865207a65726f2061646472657373600082015250565b6000612a65602083611a2d565b9150612a7082612a2f565b602082019050919050565b60006020820190508181036000830152612a9481612a58565b9050919050565b7f4552433732313a20746f6b656e20616c7265616479206d696e74656400000000600082015250565b6000612ad1601c83611a2d565b9150612adc82612a9b565b602082019050919050565b60006020820190508181036000830152612b0081612ac4565b905091905056fea264697066735822122042ff048ab60660c63c40d7b3c860409439d96c9317ccddc6b720f0e8ccd01f7164736f6c634300080f0033",
  "immutableReferences": {},
  "source": "//SPDX-License-Identifier: MIT\n\npragma solidity ^0.8.4;\n\nimport \"../notus-svelte-main/node_modules/@openzeppelin/contracts/token/ERC721/extensions/ERC721URIStorage.sol\";\n\ncontract NFT is ERC721URIStorage {\n    uint public tokenCount;\n\n    constructor() ERC721(\"Dapp NFT\", \"DAPP\") {}\n\n    function mint(string memory _tokenURI) external returns (uint){\n        tokenCount++;\n        _safeMint(msg.sender, tokenCount);\n        _setTokenURI(tokenCount, _tokenURI);\n        return tokenCount;\n\n    }\n\n}",
  "sourcePath": "/home/jarvis/projects/mtech_proj-main/contracts/NFT.sol",
  "compiler": {
    "name": "solc",
    "version": "0.8.15+commit.e14f2714.Emscripten.clang"
  },
  "schemaVersion": "3.4.8",
  "updatedAt": "2023-04-05T09:16:57.587Z",
  "networkType": "ethereum",
  "devdoc": {
    "kind": "dev",
    "methods": {
      "approve(address,uint256)": {
        "details": "See {IERC721-approve}."
      },
      "balanceOf(address)": {
        "details": "See {IERC721-balanceOf}."
      },
      "getApproved(uint256)": {
        "details": "See {IERC721-getApproved}."
      },
      "isApprovedForAll(address,address)": {
        "details": "See {IERC721-isApprovedForAll}."
      },
      "name()": {
        "details": "See {IERC721Metadata-name}."
      },
      "ownerOf(uint256)": {
        "details": "See {IERC721-ownerOf}."
      },
      "safeTransferFrom(address,address,uint256)": {
        "details": "See {IERC721-safeTransferFrom}."
      },
      "safeTransferFrom(address,address,uint256,bytes)": {
        "details": "See {IERC721-safeTransferFrom}."
      },
      "setApprovalForAll(address,bool)": {
        "details": "See {IERC721-setApprovalForAll}."
      },
      "supportsInterface(bytes4)": {
        "details": "See {IERC165-supportsInterface}."
      },
      "symbol()": {
        "details": "See {IERC721Metadata-symbol}."
      },
      "tokenURI(uint256)": {
        "details": "See {IERC721Metadata-tokenURI}."
      },
      "transferFrom(address,address,uint256)": {
        "details": "See {IERC721-transferFrom}."
      }
    },
    "version": 1
  },
  "userdoc": {
    "kind": "user",
    "methods": {},
    "version": 1
  }
}