{
  "contractName": "RBAC",
  "abi": [
    {
      "inputs": [],
      "stateMutability": "nonpayable",
      "type": "constructor"
    },
    {
      "anonymous": false,
      "inputs": [
        {
          "indexed": false,
          "internalType": "address",
          "name": "account",
          "type": "address"
        },
        {
          "indexed": false,
          "internalType": "uint256",
          "name": "role",
          "type": "uint256"
        }
      ],
      "name": "BearerAdded",
      "type": "event"
    },
    {
      "anonymous": false,
      "inputs": [
        {
          "indexed": false,
          "internalType": "address",
          "name": "account",
          "type": "address"
        },
        {
          "indexed": false,
          "internalType": "uint256",
          "name": "role",
          "type": "uint256"
        }
      ],
      "name": "BearerRemoved",
      "type": "event"
    },
    {
      "anonymous": false,
      "inputs": [
        {
          "indexed": false,
          "internalType": "uint256",
          "name": "role",
          "type": "uint256"
        }
      ],
      "name": "RoleCreated",
      "type": "event"
    },
    {
      "inputs": [
        {
          "internalType": "uint256",
          "name": "",
          "type": "uint256"
        }
      ],
      "name": "roles",
      "outputs": [
        {
          "internalType": "string",
          "name": "description",
          "type": "string"
        },
        {
          "internalType": "uint256",
          "name": "admin",
          "type": "uint256"
        }
      ],
      "stateMutability": "view",
      "type": "function"
    },
    {
      "inputs": [
        {
          "internalType": "string",
          "name": "_roleDescription",
          "type": "string"
        }
      ],
      "name": "addRootRole",
      "outputs": [
        {
          "internalType": "uint256",
          "name": "",
          "type": "uint256"
        }
      ],
      "stateMutability": "nonpayable",
      "type": "function"
    },
    {
      "inputs": [
        {
          "internalType": "string",
          "name": "_roleDescription",
          "type": "string"
        },
        {
          "internalType": "uint256",
          "name": "_admin",
          "type": "uint256"
        }
      ],
      "name": "addRole",
      "outputs": [
        {
          "internalType": "uint256",
          "name": "",
          "type": "uint256"
        }
      ],
      "stateMutability": "nonpayable",
      "type": "function"
    },
    {
      "inputs": [],
      "name": "totalRoles",
      "outputs": [
        {
          "internalType": "uint256",
          "name": "",
          "type": "uint256"
        }
      ],
      "stateMutability": "view",
      "type": "function"
    },
    {
      "inputs": [
        {
          "internalType": "address",
          "name": "_account",
          "type": "address"
        },
        {
          "internalType": "uint256",
          "name": "_role",
          "type": "uint256"
        }
      ],
      "name": "hasRole",
      "outputs": [
        {
          "internalType": "bool",
          "name": "",
          "type": "bool"
        }
      ],
      "stateMutability": "view",
      "type": "function"
    },
    {
      "inputs": [
        {
          "internalType": "address",
          "name": "_account",
          "type": "address"
        },
        {
          "internalType": "uint256",
          "name": "_role",
          "type": "uint256"
        }
      ],
      "name": "addBearer",
      "outputs": [],
      "stateMutability": "nonpayable",
      "type": "function"
    },
    {
      "inputs": [
        {
          "internalType": "address",
          "name": "_account",
          "type": "address"
        },
        {
          "internalType": "uint256",
          "name": "_role",
          "type": "uint256"
        }
      ],
      "name": "removeBearer",
      "outputs": [],
      "stateMutability": "nonpayable",
      "type": "function"
    },
    {
      "inputs": [
        {
          "internalType": "uint256",
          "name": "_univ_ID",
          "type": "uint256"
        }
      ],
      "name": "addStudentRole",
      "outputs": [
        {
          "internalType": "uint256",
          "name": "",
          "type": "uint256"
        }
      ],
      "stateMutability": "nonpayable",
      "type": "function"
    },
    {
      "inputs": [
        {
          "internalType": "address",
          "name": "studentaddr",
          "type": "address"
        },
        {
          "internalType": "uint256",
          "name": "_studRole_ID",
          "type": "uint256"
        }
      ],
      "name": "assignStudentRole",
      "outputs": [],
      "stateMutability": "nonpayable",
      "type": "function"
    },
    {
      "inputs": [
        {
          "internalType": "uint256",
          "name": "_univ_ID",
          "type": "uint256"
        }
      ],
      "name": "addInstructorRole",
      "outputs": [
        {
          "internalType": "uint256",
          "name": "",
          "type": "uint256"
        }
      ],
      "stateMutability": "nonpayable",
      "type": "function"
    },
    {
      "inputs": [
        {
          "internalType": "address",
          "name": "instr_addr",
          "type": "address"
        },
        {
          "internalType": "uint256",
          "name": "_instr_RoleID",
          "type": "uint256"
        }
      ],
      "name": "assignInstructorRole",
      "outputs": [],
      "stateMutability": "nonpayable",
      "type": "function"
    },
    {
      "inputs": [
        {
          "internalType": "address",
          "name": "studentaddr",
          "type": "address"
        },
        {
          "internalType": "uint256",
          "name": "_studRole_ID",
          "type": "uint256"
        }
      ],
      "name": "check_student",
      "outputs": [
        {
          "internalType": "bool",
          "name": "",
          "type": "bool"
        }
      ],
      "stateMutability": "view",
      "type": "function"
    },
    {
      "inputs": [
        {
          "internalType": "address",
          "name": "instraddr",
          "type": "address"
        },
        {
          "internalType": "uint256",
          "name": "_instrRole_ID",
          "type": "uint256"
        }
      ],
      "name": "check_instr",
      "outputs": [
        {
          "internalType": "bool",
          "name": "",
          "type": "bool"
        }
      ],
      "stateMutability": "view",
      "type": "function"
    }
  ],
  "bytecode": "0x60806040526000805534801561001457600080fd5b506116bb806100246000396000f3fe608060405234801561001057600080fd5b50600436106100cf5760003560e01c8063a02be7711161008c578063c86ba0c111610066578063c86ba0c11461024b578063e539de2a1461027b578063e65cd6e314610297578063f6169705146102b3576100cf565b8063a02be771146101ba578063bfda4a49146101ea578063c07d83451461021b576100cf565b80633e388a10146100d45780633e9d20df146101045780635c97f4a214610120578063790e118c146101505780637c6280021461016e57806380fce6a51461019e575b600080fd5b6100ee60048036038101906100e99190610b79565b6102e3565b6040516100fb9190610bd4565b60405180910390f35b61011e60048036038101906101199190610b79565b610338565b005b61013a60048036038101906101359190610b79565b610346565b6040516101479190610bd4565b60405180910390f35b6101586103d0565b6040516101659190610bfe565b60405180910390f35b61018860048036038101906101839190610c19565b6103e8565b6040516101959190610bfe565b60405180910390f35b6101b860048036038101906101b39190610b79565b610435565b005b6101d460048036038101906101cf9190610d8c565b6105eb565b6040516101e19190610bfe565b60405180910390f35b61020460048036038101906101ff9190610c19565b6106e8565b604051610212929190610e70565b60405180910390f35b61023560048036038101906102309190610c19565b6107a4565b6040516102429190610bfe565b60405180910390f35b61026560048036038101906102609190610b79565b6107f1565b6040516102729190610bd4565b60405180910390f35b61029560048036038101906102909190610b79565b610846565b005b6102b160048036038101906102ac9190610b79565b610854565b005b6102cd60048036038101906102c89190610ea0565b610a01565b6040516102da9190610bfe565b60405180910390f35b60006102ef8383610346565b61032e576040517f08c379a000000000000000000000000000000000000000000000000000000000815260040161032590610f5b565b60405180910390fd5b6001905092915050565b6103428282610435565b5050565b6000600180549050821080156103c857506001828154811061036b5761036a610f7b565b5b906000526020600020906003020160020160008473ffffffffffffffffffffffffffffffffffffffff1673ffffffffffffffffffffffffffffffffffffffff16815260200190815260200160002060009054906101000a900460ff165b905092915050565b6000600180805490506103e39190610fd9565b905090565b60008061042a6040518060400160405280600f81526020017f494e5354525543544f525f524f4c450000000000000000000000000000000000815250846105eb565b905080915050919050565b600180549050811061047c576040517f08c379a000000000000000000000000000000000000000000000000000000000815260040161047390611059565b60405180910390fd5b6104ab336001838154811061049457610493610f7b565b5b906000526020600020906003020160010154610346565b6104ea576040517f08c379a00000000000000000000000000000000000000000000000000000000081526004016104e1906110c5565b60405180910390fd5b6104f48282610346565b15610534576040517f08c379a000000000000000000000000000000000000000000000000000000000815260040161052b90611131565b60405180910390fd5b600180828154811061054957610548610f7b565b5b906000526020600020906003020160020160008473ffffffffffffffffffffffffffffffffffffffff1673ffffffffffffffffffffffffffffffffffffffff16815260200190815260200160002060006101000a81548160ff0219169083151502179055507fd81f2841f8b3997e1937995d307db36db75c385165bbad7916db26732d8ccb1782826040516105df929190611160565b60405180910390a15050565b6000600180549050821115610635576040517f08c379a000000000000000000000000000000000000000000000000000000000815260040161062c906111d5565b60405180910390fd5b6000600160008081548092919061064b906111f5565b91905055815481106106605761065f610f7b565b5b90600052602060002090600302019050838160000190816106819190611449565b508281600101819055507f5ae7bf8c4c39be741ec8e27386e1453106504ca4b4351e28065a5ca97415d43060016000546106bb9190610fd9565b6040516106c89190610bfe565b60405180910390a160016000546106df9190610fd9565b91505092915050565b600181815481106106f857600080fd5b906000526020600020906003020160009150905080600001805461071b9061126c565b80601f01602080910402602001604051908101604052809291908181526020018280546107479061126c565b80156107945780601f1061076957610100808354040283529160200191610794565b820191906000526020600020905b81548152906001019060200180831161077757829003601f168201915b5050505050908060010154905082565b6000806107e66040518060400160405280600c81526020017f53545544454e545f524f4c450000000000000000000000000000000000000000815250846105eb565b905080915050919050565b60006107fd8383610346565b61083c576040517f08c379a00000000000000000000000000000000000000000000000000000000081526004016108339061158d565b60405180910390fd5b6001905092915050565b6108508282610435565b5050565b600180549050811061089b576040517f08c379a000000000000000000000000000000000000000000000000000000000815260040161089290611059565b60405180910390fd5b6108ca33600183815481106108b3576108b2610f7b565b5b906000526020600020906003020160010154610346565b610909576040517f08c379a0000000000000000000000000000000000000000000000000000000008152600401610900906115f9565b60405180910390fd5b6109138282610346565b610952576040517f08c379a000000000000000000000000000000000000000000000000000000000815260040161094990611665565b60405180910390fd5b6001818154811061096657610965610f7b565b5b906000526020600020906003020160020160008373ffffffffffffffffffffffffffffffffffffffff1673ffffffffffffffffffffffffffffffffffffffff16815260200190815260200160002060006101000a81549060ff02191690557f18dd68c3b9a992261fefcaa58c659f0a628d54692027be4c0662c2365fbb819a82826040516109f5929190611160565b60405180910390a15050565b600080610a13836001805490506105eb565b90506001808281548110610a2a57610a29610f7b565b5b906000526020600020906003020160020160003373ffffffffffffffffffffffffffffffffffffffff1673ffffffffffffffffffffffffffffffffffffffff16815260200190815260200160002060006101000a81548160ff0219169083151502179055507fd81f2841f8b3997e1937995d307db36db75c385165bbad7916db26732d8ccb173382604051610ac0929190611160565b60405180910390a180915050919050565b6000604051905090565b600080fd5b600080fd5b600073ffffffffffffffffffffffffffffffffffffffff82169050919050565b6000610b1082610ae5565b9050919050565b610b2081610b05565b8114610b2b57600080fd5b50565b600081359050610b3d81610b17565b92915050565b6000819050919050565b610b5681610b43565b8114610b6157600080fd5b50565b600081359050610b7381610b4d565b92915050565b60008060408385031215610b9057610b8f610adb565b5b6000610b9e85828601610b2e565b9250506020610baf85828601610b64565b9150509250929050565b60008115159050919050565b610bce81610bb9565b82525050565b6000602082019050610be96000830184610bc5565b92915050565b610bf881610b43565b82525050565b6000602082019050610c136000830184610bef565b92915050565b600060208284031215610c2f57610c2e610adb565b5b6000610c3d84828501610b64565b91505092915050565b600080fd5b600080fd5b6000601f19601f8301169050919050565b7f4e487b7100000000000000000000000000000000000000000000000000000000600052604160045260246000fd5b610c9982610c50565b810181811067ffffffffffffffff82111715610cb857610cb7610c61565b5b80604052505050565b6000610ccb610ad1565b9050610cd78282610c90565b919050565b600067ffffffffffffffff821115610cf757610cf6610c61565b5b610d0082610c50565b9050602081019050919050565b82818337600083830152505050565b6000610d2f610d2a84610cdc565b610cc1565b905082815260208101848484011115610d4b57610d4a610c4b565b5b610d56848285610d0d565b509392505050565b600082601f830112610d7357610d72610c46565b5b8135610d83848260208601610d1c565b91505092915050565b60008060408385031215610da357610da2610adb565b5b600083013567ffffffffffffffff811115610dc157610dc0610ae0565b5b610dcd85828601610d5e565b9250506020610dde85828601610b64565b9150509250929050565b600081519050919050565b600082825260208201905092915050565b60005b83811015610e22578082015181840152602081019050610e07565b83811115610e31576000848401525b50505050565b6000610e4282610de8565b610e4c8185610df3565b9350610e5c818560208601610e04565b610e6581610c50565b840191505092915050565b60006040820190508181036000830152610e8a8185610e37565b9050610e996020830184610bef565b9392505050565b600060208284031215610eb657610eb5610adb565b5b600082013567ffffffffffffffff811115610ed457610ed3610ae0565b5b610ee084828501610d5e565b91505092915050565b7f54686973204163636f756e74206973206e6f74206120626561726572206f662060008201527f53545544454e545f524f4c452e00000000000000000000000000000000000000602082015250565b6000610f45602d83610df3565b9150610f5082610ee9565b604082019050919050565b60006020820190508181036000830152610f7481610f38565b9050919050565b7f4e487b7100000000000000000000000000000000000000000000000000000000600052603260045260246000fd5b7f4e487b7100000000000000000000000000000000000000000000000000000000600052601160045260246000fd5b6000610fe482610b43565b9150610fef83610b43565b92508282101561100257611001610faa565b5b828203905092915050565b7f526f6c6520646f65736e27742065786973742e00000000000000000000000000600082015250565b6000611043601383610df3565b915061104e8261100d565b602082019050919050565b6000602082019050818103600083015261107281611036565b9050919050565b7f557365722063616e27742061646420626561726572732e000000000000000000600082015250565b60006110af601783610df3565b91506110ba82611079565b602082019050919050565b600060208201905081810360008301526110de816110a2565b9050919050565b7f4163636f756e7420697320626561726572206f6620726f6c652e000000000000600082015250565b600061111b601a83610df3565b9150611126826110e5565b602082019050919050565b6000602082019050818103600083015261114a8161110e565b9050919050565b61115a81610b05565b82525050565b60006040820190506111756000830185611151565b6111826020830184610bef565b9392505050565b7f41646d696e20726f6c6520646f65736e27742065786973742e00000000000000600082015250565b60006111bf601983610df3565b91506111ca82611189565b602082019050919050565b600060208201905081810360008301526111ee816111b2565b9050919050565b600061120082610b43565b91507fffffffffffffffffffffffffffffffffffffffffffffffffffffffffffffffff820361123257611231610faa565b5b600182019050919050565b7f4e487b7100000000000000000000000000000000000000000000000000000000600052602260045260246000fd5b6000600282049050600182168061128457607f821691505b6020821081036112975761129661123d565b5b50919050565b60008190508160005260206000209050919050565b60006020601f8301049050919050565b600082821b905092915050565b6000600883026112ff7fffffffffffffffffffffffffffffffffffffffffffffffffffffffffffffffff826112c2565b61130986836112c2565b95508019841693508086168417925050509392505050565b6000819050919050565b600061134661134161133c84610b43565b611321565b610b43565b9050919050565b6000819050919050565b6113608361132b565b61137461136c8261134d565b8484546112cf565b825550505050565b600090565b61138961137c565b611394818484611357565b505050565b5b818110156113b8576113ad600082611381565b60018101905061139a565b5050565b601f8211156113fd576113ce8161129d565b6113d7846112b2565b810160208510156113e6578190505b6113fa6113f2856112b2565b830182611399565b50505b505050565b600082821c905092915050565b600061142060001984600802611402565b1980831691505092915050565b6000611439838361140f565b9150826002028217905092915050565b61145282610de8565b67ffffffffffffffff81111561146b5761146a610c61565b5b611475825461126c565b6114808282856113bc565b600060209050601f8311600181146114b357600084156114a1578287015190505b6114ab858261142d565b865550611513565b601f1984166114c18661129d565b60005b828110156114e9578489015182556001820191506020850194506020810190506114c4565b868310156115065784890151611502601f89168261140f565b8355505b6001600288020188555050505b505050505050565b7f54686973204163636f756e74206973206e6f74206120626561726572206f662060008201527f494e5354525543544f525f524f4c452e00000000000000000000000000000000602082015250565b6000611577603083610df3565b91506115828261151b565b604082019050919050565b600060208201905081810360008301526115a68161156a565b9050919050565b7f557365722063616e27742072656d6f766520626561726572732e000000000000600082015250565b60006115e3601a83610df3565b91506115ee826115ad565b602082019050919050565b60006020820190508181036000830152611612816115d6565b9050919050565b7f4163636f756e74206973206e6f7420626561726572206f6620726f6c652e0000600082015250565b600061164f601e83610df3565b915061165a82611619565b602082019050919050565b6000602082019050818103600083015261167e81611642565b905091905056fea2646970667358221220819da09d670f7ff60246d5f8d34b4da38e2c85140bd285e818745e3fd937a7b264736f6c634300080f0033",
  "immutableReferences": {},
  "source": "// SPDX-License-Identifier: MIT\npragma solidity ^0.8.0;\n\n\ncontract RBAC {\n  event RoleCreated(uint256 role);\n  event BearerAdded(address account, uint256 role);\n  event BearerRemoved(address account, uint256 role);  uint256 constant NO_ROLE = 0;  \n     struct Role {\n    string description;\n    uint256 admin;\n    mapping (address => bool) bearers;\n  }  \n   uint no_roles = 0;\n  Role[] public roles;  \n  \n  constructor() {\n  // addRootRole(\"NO_ROLE\");\n  } \n\n\n  function addRootRole(string memory _roleDescription)\n    public \n    returns(uint256)\n  {\n    uint256 role = addRole(_roleDescription, roles.length);\n    roles[role].bearers[msg.sender] = true;\n    emit BearerAdded(msg.sender, role);\n    return role;\n  } \n\n\n  function addRole(string memory _roleDescription, uint256 _admin)\n    public\n    returns(uint256)\n  {\n    require(_admin <= roles.length, \"Admin role doesn't exist.\");\n   /*uint256 role = roles.push(\n      Role({\n        description: _roleDescription,\n        admin: _admin\n      })\n    ) - 1;*/\n    Role storage role = roles[no_roles++];\n    role.description = _roleDescription;\n    role.admin = _admin;\n    emit RoleCreated(no_roles-1);\n    return no_roles-1;\n  }  \n\n  function totalRoles()\n    public\n    view\n    returns(uint256)\n  {\n    return roles.length - 1;\n  }  \n\n\n  function hasRole(address _account, uint256 _role)\n    public\n    view\n    returns(bool)\n  {\n    return _role < roles.length && roles[_role].bearers[_account];\n  }  \n  \n\n  function addBearer(address _account, uint256 _role)\n    public\n  {\n    require(\n      _role < roles.length,\n      \"Role doesn't exist.\"\n    );\n    require(\n      hasRole(msg.sender, roles[_role].admin),\n      \"User can't add bearers.\"\n    );\n    require(\n      !hasRole(_account, _role),\n      \"Account is bearer of role.\"\n    );    roles[_role].bearers[_account] = true;\n    emit BearerAdded(_account, _role);\n  } \n\n   \n  function removeBearer(address _account, uint256 _role)\n    public\n  {\n    require(\n      _role < roles.length,\n      \"Role doesn't exist.\"\n    );\n    require(\n      hasRole(msg.sender, roles[_role].admin),\n      \"User can't remove bearers.\"\n    );\n    require(\n      hasRole(_account, _role),\n      \"Account is not bearer of role.\"\n    );    delete roles[_role].bearers[_account];\n    emit BearerRemoved(_account, _role);\n  }\n   \n    function addStudentRole(uint256 _univ_ID) public returns (uint256){\n        uint256 studRole_ID = addRole(\"STUDENT_ROLE\", _univ_ID);\n        return studRole_ID;\n    }\n  \n\n  function assignStudentRole(address studentaddr, uint256 _studRole_ID) public{\n            addBearer(studentaddr, _studRole_ID);\n    }\n\n   function addInstructorRole(uint256 _univ_ID) public returns (uint256){\n        uint256 instr_RoleID = addRole(\"INSTRUCTOR_ROLE\", _univ_ID);\n        return instr_RoleID;\n    }\n  \n\n  function assignInstructorRole(address instr_addr, uint256 _instr_RoleID) public{\n            addBearer(instr_addr, _instr_RoleID);\n    }\n\n    function check_student(address studentaddr,uint256 _studRole_ID) public view returns(bool)\n     {    require(hasRole(studentaddr, _studRole_ID),\"This Account is not a bearer of STUDENT_ROLE.\");\n    return true;\n    }\n\n     function check_instr(address instraddr,uint256 _instrRole_ID) public view returns(bool)\n     {    require(hasRole(instraddr, _instrRole_ID),\"This Account is not a bearer of INSTRUCTOR_ROLE.\");\n    return true;\n    }\n\n\n\n}",
  "sourcePath": "/home/jarvis/projects/mtech_proj-main/contracts/RBAC.sol",
  "compiler": {
    "name": "solc",
    "version": "0.8.15+commit.e14f2714.Emscripten.clang"
  },
  "schemaVersion": "3.4.8",
  "updatedAt": "2023-02-07T05:05:59.896Z",
  "devdoc": {
    "kind": "dev",
    "methods": {},
    "version": 1
  },
  "userdoc": {
    "kind": "user",
    "methods": {},
    "version": 1
  }
}