{
  "contractName": "RoleAssign",
  "abi": [
    {
      "inputs": [],
      "stateMutability": "nonpayable",
      "type": "constructor"
    },
    {
      "anonymous": false,
      "inputs": [
        {
          "indexed": true,
          "internalType": "bytes32",
          "name": "role",
          "type": "bytes32"
        },
        {
          "indexed": true,
          "internalType": "bytes32",
          "name": "previousAdminRole",
          "type": "bytes32"
        },
        {
          "indexed": true,
          "internalType": "bytes32",
          "name": "newAdminRole",
          "type": "bytes32"
        }
      ],
      "name": "RoleAdminChanged",
      "type": "event"
    },
    {
      "anonymous": false,
      "inputs": [
        {
          "indexed": true,
          "internalType": "bytes32",
          "name": "role",
          "type": "bytes32"
        },
        {
          "indexed": true,
          "internalType": "address",
          "name": "account",
          "type": "address"
        },
        {
          "indexed": true,
          "internalType": "address",
          "name": "sender",
          "type": "address"
        }
      ],
      "name": "RoleGranted",
      "type": "event"
    },
    {
      "anonymous": false,
      "inputs": [
        {
          "indexed": true,
          "internalType": "bytes32",
          "name": "role",
          "type": "bytes32"
        },
        {
          "indexed": true,
          "internalType": "address",
          "name": "account",
          "type": "address"
        },
        {
          "indexed": true,
          "internalType": "address",
          "name": "sender",
          "type": "address"
        }
      ],
      "name": "RoleRevoked",
      "type": "event"
    },
    {
      "anonymous": false,
      "inputs": [
        {
          "indexed": false,
          "internalType": "address",
          "name": "_addr",
          "type": "address"
        },
        {
          "indexed": false,
          "internalType": "string",
          "name": "message",
          "type": "string"
        }
      ],
      "name": "detailsAdded",
      "type": "event"
    },
    {
      "inputs": [],
      "name": "COMPANY_ROLE",
      "outputs": [
        {
          "internalType": "bytes32",
          "name": "",
          "type": "bytes32"
        }
      ],
      "stateMutability": "view",
      "type": "function",
      "constant": true
    },
    {
      "inputs": [],
      "name": "DEFAULT_ADMIN_ROLE",
      "outputs": [
        {
          "internalType": "bytes32",
          "name": "",
          "type": "bytes32"
        }
      ],
      "stateMutability": "view",
      "type": "function",
      "constant": true
    },
    {
      "inputs": [],
      "name": "INSTRUCTOR_ROLE",
      "outputs": [
        {
          "internalType": "bytes32",
          "name": "",
          "type": "bytes32"
        }
      ],
      "stateMutability": "view",
      "type": "function",
      "constant": true
    },
    {
      "inputs": [],
      "name": "STUDENT_ROLE",
      "outputs": [
        {
          "internalType": "bytes32",
          "name": "",
          "type": "bytes32"
        }
      ],
      "stateMutability": "view",
      "type": "function",
      "constant": true
    },
    {
      "inputs": [],
      "name": "UNIVERSITY_ROLE",
      "outputs": [
        {
          "internalType": "bytes32",
          "name": "",
          "type": "bytes32"
        }
      ],
      "stateMutability": "view",
      "type": "function",
      "constant": true
    },
    {
      "inputs": [
        {
          "internalType": "bytes32",
          "name": "role",
          "type": "bytes32"
        }
      ],
      "name": "getRoleAdmin",
      "outputs": [
        {
          "internalType": "bytes32",
          "name": "",
          "type": "bytes32"
        }
      ],
      "stateMutability": "view",
      "type": "function",
      "constant": true
    },
    {
      "inputs": [
        {
          "internalType": "bytes32",
          "name": "role",
          "type": "bytes32"
        },
        {
          "internalType": "address",
          "name": "account",
          "type": "address"
        }
      ],
      "name": "grantRole",
      "outputs": [],
      "stateMutability": "nonpayable",
      "type": "function"
    },
    {
      "inputs": [
        {
          "internalType": "bytes32",
          "name": "role",
          "type": "bytes32"
        },
        {
          "internalType": "address",
          "name": "account",
          "type": "address"
        }
      ],
      "name": "hasRole",
      "outputs": [
        {
          "internalType": "bool",
          "name": "",
          "type": "bool"
        }
      ],
      "stateMutability": "view",
      "type": "function",
      "constant": true
    },
    {
      "inputs": [
        {
          "internalType": "bytes32",
          "name": "role",
          "type": "bytes32"
        },
        {
          "internalType": "address",
          "name": "account",
          "type": "address"
        }
      ],
      "name": "renounceRole",
      "outputs": [],
      "stateMutability": "nonpayable",
      "type": "function"
    },
    {
      "inputs": [
        {
          "internalType": "bytes32",
          "name": "role",
          "type": "bytes32"
        },
        {
          "internalType": "address",
          "name": "account",
          "type": "address"
        }
      ],
      "name": "revokeRole",
      "outputs": [],
      "stateMutability": "nonpayable",
      "type": "function"
    },
    {
      "inputs": [],
      "name": "studentscount",
      "outputs": [
        {
          "internalType": "uint256",
          "name": "",
          "type": "uint256"
        }
      ],
      "stateMutability": "view",
      "type": "function",
      "constant": true
    },
    {
      "inputs": [
        {
          "internalType": "bytes4",
          "name": "interfaceId",
          "type": "bytes4"
        }
      ],
      "name": "supportsInterface",
      "outputs": [
        {
          "internalType": "bool",
          "name": "",
          "type": "bool"
        }
      ],
      "stateMutability": "view",
      "type": "function",
      "constant": true
    },
    {
      "inputs": [],
      "name": "teacherscount",
      "outputs": [
        {
          "internalType": "uint256",
          "name": "",
          "type": "uint256"
        }
      ],
      "stateMutability": "view",
      "type": "function",
      "constant": true
    },
    {
      "inputs": [
        {
          "internalType": "address",
          "name": "student",
          "type": "address"
        }
      ],
      "name": "assignStudentRole",
      "outputs": [
        {
          "internalType": "bool",
          "name": "success",
          "type": "bool"
        }
      ],
      "stateMutability": "nonpayable",
      "type": "function"
    },
    {
      "inputs": [
        {
          "internalType": "address",
          "name": "teacher",
          "type": "address"
        }
      ],
      "name": "assignTeacherRole",
      "outputs": [
        {
          "internalType": "bool",
          "name": "success",
          "type": "bool"
        }
      ],
      "stateMutability": "nonpayable",
      "type": "function"
    },
    {
      "inputs": [
        {
          "internalType": "address",
          "name": "university",
          "type": "address"
        }
      ],
      "name": "assignUniversityRole",
      "outputs": [
        {
          "internalType": "bool",
          "name": "success",
          "type": "bool"
        }
      ],
      "stateMutability": "nonpayable",
      "type": "function"
    },
    {
      "inputs": [
        {
          "internalType": "address",
          "name": "company",
          "type": "address"
        }
      ],
      "name": "assignCompanyRole",
      "outputs": [
        {
          "internalType": "bool",
          "name": "success",
          "type": "bool"
        }
      ],
      "stateMutability": "nonpayable",
      "type": "function"
    },
    {
      "inputs": [
        {
          "internalType": "address",
          "name": "studentaddr",
          "type": "address"
        },
        {
          "internalType": "string",
          "name": "_name",
          "type": "string"
        },
        {
          "internalType": "string",
          "name": "_email",
          "type": "string"
        }
      ],
      "name": "studRegistration",
      "outputs": [
        {
          "internalType": "string",
          "name": "",
          "type": "string"
        }
      ],
      "stateMutability": "nonpayable",
      "type": "function"
    },
    {
      "inputs": [
        {
          "internalType": "address",
          "name": "teacher_addr",
          "type": "address"
        },
        {
          "internalType": "string",
          "name": "_name",
          "type": "string"
        },
        {
          "internalType": "string",
          "name": "_email",
          "type": "string"
        }
      ],
      "name": "teacherRegistration",
      "outputs": [
        {
          "internalType": "string",
          "name": "",
          "type": "string"
        }
      ],
      "stateMutability": "nonpayable",
      "type": "function"
    },
    {
      "inputs": [
        {
          "internalType": "address",
          "name": "pub_key",
          "type": "address"
        }
      ],
      "name": "check_admin",
      "outputs": [
        {
          "internalType": "bool",
          "name": "",
          "type": "bool"
        }
      ],
      "stateMutability": "view",
      "type": "function",
      "constant": true
    },
    {
      "inputs": [
        {
          "internalType": "address",
          "name": "pub_key",
          "type": "address"
        }
      ],
      "name": "check_student",
      "outputs": [
        {
          "internalType": "bool",
          "name": "",
          "type": "bool"
        }
      ],
      "stateMutability": "view",
      "type": "function",
      "constant": true
    }
  ],
  "bytecode": "0x60806040523480156200001157600080fd5b50620000276000801b336200002d60201b60201c565b620001a6565b6200003f82826200004360201b60201c565b5050565b6200005582826200013460201b60201c565b6200013057600160008084815260200190815260200160002060000160008373ffffffffffffffffffffffffffffffffffffffff1673ffffffffffffffffffffffffffffffffffffffff16815260200190815260200160002060006101000a81548160ff021916908315150217905550620000d56200019e60201b60201c565b73ffffffffffffffffffffffffffffffffffffffff168173ffffffffffffffffffffffffffffffffffffffff16837f2f8788117e7eff1d82e926ec794901d17c78024a50270940304540a733656f0d60405160405180910390a45b5050565b600080600084815260200190815260200160002060000160008373ffffffffffffffffffffffffffffffffffffffff1673ffffffffffffffffffffffffffffffffffffffff16815260200190815260200160002060009054906101000a900460ff16905092915050565b600033905090565b611bbf80620001b66000396000f3fe608060405234801561001057600080fd5b50600436106101375760003560e01c806346a5dee2116100b8578063a1b7e90e1161007c578063a1b7e90e1461038a578063a217fddf146103ba578063d403044d146103d8578063d547741f14610408578063f7be43fb14610424578063f7c891401461044257610137565b806346a5dee2146102be5780637166ce34146102ee57806375aad7811461031e5780638bcf979c1461033c57806391d148541461035a57610137565b80632f2ff15d116100ff5780632f2ff15d146102085780632fd10ba51461022457806336568abe146102545780633d1784141461027057806345d0358a1461028e57610137565b806301ffc9a71461013c578063177d9c3c1461016c5780631c9ee11a1461018a578063248a9ca3146101a85780632bba51b0146101d8575b600080fd5b6101566004803603810190610151919061115f565b610472565b60405161016391906111a7565b60405180910390f35b6101746104ec565b60405161018191906111db565b60405180910390f35b6101926104f2565b60405161019f919061120f565b60405180910390f35b6101c260048036038101906101bd9190611256565b610516565b6040516101cf919061120f565b60405180910390f35b6101f260048036038101906101ed91906112e1565b610535565b6040516101ff91906111a7565b60405180910390f35b610222600480360381019061021d919061130e565b6105a9565b005b61023e600480360381019061023991906112e1565b6105ca565b60405161024b91906111a7565b60405180910390f35b61026e6004803603810190610269919061130e565b61060d565b005b610278610690565b604051610285919061120f565b60405180910390f35b6102a860048036038101906102a39190611494565b6106b4565b6040516102b591906115a7565b60405180910390f35b6102d860048036038101906102d39190611494565b610800565b6040516102e591906115a7565b60405180910390f35b610308600480360381019061030391906112e1565b61094c565b60405161031591906111a7565b60405180910390f35b61032661098f565b60405161033391906111db565b60405180910390f35b610344610995565b604051610351919061120f565b60405180910390f35b610374600480360381019061036f919061130e565b6109b9565b60405161038191906111a7565b60405180910390f35b6103a4600480360381019061039f91906112e1565b610a23565b6040516103b191906111a7565b60405180910390f35b6103c2610a66565b6040516103cf919061120f565b60405180910390f35b6103f260048036038101906103ed91906112e1565b610a6d565b6040516103ff91906111a7565b60405180910390f35b610422600480360381019061041d919061130e565b610a83565b005b61042c610aa4565b604051610439919061120f565b60405180910390f35b61045c600480360381019061045791906112e1565b610ac8565b60405161046991906111a7565b60405180910390f35b60007f7965db0b000000000000000000000000000000000000000000000000000000007bffffffffffffffffffffffffffffffffffffffffffffffffffffffff1916827bffffffffffffffffffffffffffffffffffffffffffffffffffffffff191614806104e557506104e482610b42565b5b9050919050565b60025481565b7f9e1688b53537f356172ce07f39e129155063957163c5f9462d4d9e55b228b06c81565b6000806000838152602001908152602001600020600101549050919050565b60006105617f36a5c4aaacb6b388bbd448bf11096b7dafc5652bcc9046084fd0e95b1fb0b2cc836109b9565b6105a0576040517f08c379a000000000000000000000000000000000000000000000000000000000815260040161059790611615565b60405180910390fd5b60019050919050565b6105b282610516565b6105bb81610bac565b6105c58383610bc0565b505050565b60008060001b6105d981610bac565b6106037fae4a0595970935aa5495afbbb72e5f1f6ff1062766b4a3028c0c9b7d5cf7e34584610ca0565b6001915050919050565b610615610cae565b73ffffffffffffffffffffffffffffffffffffffff168173ffffffffffffffffffffffffffffffffffffffff1614610682576040517f08c379a0000000000000000000000000000000000000000000000000000000008152600401610679906116a7565b60405180910390fd5b61068c8282610cb6565b5050565b7f5bb0bf1fabd5e975fc7a4520766d9e86e0eb281f8c7c44fcd3dfe60a11e786ca81565b60606106e07f36a5c4aaacb6b388bbd448bf11096b7dafc5652bcc9046084fd0e95b1fb0b2cc856109b9565b61071f576040517f08c379a000000000000000000000000000000000000000000000000000000000815260040161071690611615565b60405180910390fd5b610727611085565b83816000018190525082816020018190525084816040019073ffffffffffffffffffffffffffffffffffffffff16908173ffffffffffffffffffffffffffffffffffffffff168152505060016000815480929190610784906116f6565b91905055507f2dd0dbde0b541d654cbad7f473661699639a8db7f1f8150566180d8c7ba78e35856040516107b891906117bf565b60405180910390a16040518060400160405280601d81526020017f53747564656e7420526567697374726174696f6e20636f6d706c6574650000008152509150509392505050565b606061082c7fae4a0595970935aa5495afbbb72e5f1f6ff1062766b4a3028c0c9b7d5cf7e345856109b9565b61086b576040517f08c379a000000000000000000000000000000000000000000000000000000000815260040161086290611615565b60405180910390fd5b6108736110bc565b83816000018190525082816020018190525084816040019073ffffffffffffffffffffffffffffffffffffffff16908173ffffffffffffffffffffffffffffffffffffffff1681525050600260008154809291906108d0906116f6565b91905055507f2dd0dbde0b541d654cbad7f473661699639a8db7f1f8150566180d8c7ba78e3585604051610904919061185f565b60405180910390a16040518060400160405280601d81526020017f53747564656e7420526567697374726174696f6e20636f6d706c6574650000008152509150509392505050565b60008060001b61095b81610bac565b6109857f5bb0bf1fabd5e975fc7a4520766d9e86e0eb281f8c7c44fcd3dfe60a11e786ca84610ca0565b6001915050919050565b60015481565b7fae4a0595970935aa5495afbbb72e5f1f6ff1062766b4a3028c0c9b7d5cf7e34581565b600080600084815260200190815260200160002060000160008373ffffffffffffffffffffffffffffffffffffffff1673ffffffffffffffffffffffffffffffffffffffff16815260200190815260200160002060009054906101000a900460ff16905092915050565b60008060001b610a3281610bac565b610a5c7f9e1688b53537f356172ce07f39e129155063957163c5f9462d4d9e55b228b06c84610ca0565b6001915050919050565b6000801b81565b6000610a7c6000801b836109b9565b9050919050565b610a8c82610516565b610a9581610bac565b610a9f8383610cb6565b505050565b7f36a5c4aaacb6b388bbd448bf11096b7dafc5652bcc9046084fd0e95b1fb0b2cc81565b60008060001b610ad781610bac565b610b017f36a5c4aaacb6b388bbd448bf11096b7dafc5652bcc9046084fd0e95b1fb0b2cc84610ca0565b7f2dd0dbde0b541d654cbad7f473661699639a8db7f1f8150566180d8c7ba78e3583604051610b3091906118d9565b60405180910390a16001915050919050565b60007f01ffc9a7000000000000000000000000000000000000000000000000000000007bffffffffffffffffffffffffffffffffffffffffffffffffffffffff1916827bffffffffffffffffffffffffffffffffffffffffffffffffffffffff1916149050919050565b610bbd81610bb8610cae565b610d97565b50565b610bca82826109b9565b610c9c57600160008084815260200190815260200160002060000160008373ffffffffffffffffffffffffffffffffffffffff1673ffffffffffffffffffffffffffffffffffffffff16815260200190815260200160002060006101000a81548160ff021916908315150217905550610c41610cae565b73ffffffffffffffffffffffffffffffffffffffff168173ffffffffffffffffffffffffffffffffffffffff16837f2f8788117e7eff1d82e926ec794901d17c78024a50270940304540a733656f0d60405160405180910390a45b5050565b610caa8282610bc0565b5050565b600033905090565b610cc082826109b9565b15610d9357600080600084815260200190815260200160002060000160008373ffffffffffffffffffffffffffffffffffffffff1673ffffffffffffffffffffffffffffffffffffffff16815260200190815260200160002060006101000a81548160ff021916908315150217905550610d38610cae565b73ffffffffffffffffffffffffffffffffffffffff168173ffffffffffffffffffffffffffffffffffffffff16837ff6391f5c32d9c69d2a47ea670b442974b53935d1edc7fd64eb21e047a839171b60405160405180910390a45b5050565b610da182826109b9565b610e1857610dae81610e1c565b610dbc8360001c6020610e49565b604051602001610dcd9291906119db565b6040516020818303038152906040526040517f08c379a0000000000000000000000000000000000000000000000000000000008152600401610e0f91906115a7565b60405180910390fd5b5050565b6060610e428273ffffffffffffffffffffffffffffffffffffffff16601460ff16610e49565b9050919050565b606060006002836002610e5c9190611a15565b610e669190611a6f565b67ffffffffffffffff811115610e7f57610e7e611369565b5b6040519080825280601f01601f191660200182016040528015610eb15781602001600182028036833780820191505090505b5090507f300000000000000000000000000000000000000000000000000000000000000081600081518110610ee957610ee8611ac5565b5b60200101907effffffffffffffffffffffffffffffffffffffffffffffffffffffffffffff1916908160001a9053507f780000000000000000000000000000000000000000000000000000000000000081600181518110610f4d57610f4c611ac5565b5b60200101907effffffffffffffffffffffffffffffffffffffffffffffffffffffffffffff1916908160001a90535060006001846002610f8d9190611a15565b610f979190611a6f565b90505b6001811115611037577f3031323334353637383961626364656600000000000000000000000000000000600f861660108110610fd957610fd8611ac5565b5b1a60f81b828281518110610ff057610fef611ac5565b5b60200101907effffffffffffffffffffffffffffffffffffffffffffffffffffffffffffff1916908160001a905350600485901c94508061103090611af4565b9050610f9a565b506000841461107b576040517f08c379a000000000000000000000000000000000000000000000000000000000815260040161107290611b69565b60405180910390fd5b8091505092915050565b60405180606001604052806060815260200160608152602001600073ffffffffffffffffffffffffffffffffffffffff1681525090565b60405180606001604052806060815260200160608152602001600073ffffffffffffffffffffffffffffffffffffffff1681525090565b6000604051905090565b600080fd5b600080fd5b60007fffffffff0000000000000000000000000000000000000000000000000000000082169050919050565b61113c81611107565b811461114757600080fd5b50565b60008135905061115981611133565b92915050565b600060208284031215611175576111746110fd565b5b60006111838482850161114a565b91505092915050565b60008115159050919050565b6111a18161118c565b82525050565b60006020820190506111bc6000830184611198565b92915050565b6000819050919050565b6111d5816111c2565b82525050565b60006020820190506111f060008301846111cc565b92915050565b6000819050919050565b611209816111f6565b82525050565b60006020820190506112246000830184611200565b92915050565b611233816111f6565b811461123e57600080fd5b50565b6000813590506112508161122a565b92915050565b60006020828403121561126c5761126b6110fd565b5b600061127a84828501611241565b91505092915050565b600073ffffffffffffffffffffffffffffffffffffffff82169050919050565b60006112ae82611283565b9050919050565b6112be816112a3565b81146112c957600080fd5b50565b6000813590506112db816112b5565b92915050565b6000602082840312156112f7576112f66110fd565b5b6000611305848285016112cc565b91505092915050565b60008060408385031215611325576113246110fd565b5b600061133385828601611241565b9250506020611344858286016112cc565b9150509250929050565b600080fd5b600080fd5b6000601f19601f8301169050919050565b7f4e487b7100000000000000000000000000000000000000000000000000000000600052604160045260246000fd5b6113a182611358565b810181811067ffffffffffffffff821117156113c0576113bf611369565b5b80604052505050565b60006113d36110f3565b90506113df8282611398565b919050565b600067ffffffffffffffff8211156113ff576113fe611369565b5b61140882611358565b9050602081019050919050565b82818337600083830152505050565b6000611437611432846113e4565b6113c9565b90508281526020810184848401111561145357611452611353565b5b61145e848285611415565b509392505050565b600082601f83011261147b5761147a61134e565b5b813561148b848260208601611424565b91505092915050565b6000806000606084860312156114ad576114ac6110fd565b5b60006114bb868287016112cc565b935050602084013567ffffffffffffffff8111156114dc576114db611102565b5b6114e886828701611466565b925050604084013567ffffffffffffffff81111561150957611508611102565b5b61151586828701611466565b9150509250925092565b600081519050919050565b600082825260208201905092915050565b60005b8381101561155957808201518184015260208101905061153e565b83811115611568576000848401525b50505050565b60006115798261151f565b611583818561152a565b935061159381856020860161153b565b61159c81611358565b840191505092915050565b600060208201905081810360008301526115c1818461156e565b905092915050565b7f4572726f723a206d75737420686176652053747564656e7420526f6c65000000600082015250565b60006115ff601d8361152a565b915061160a826115c9565b602082019050919050565b6000602082019050818103600083015261162e816115f2565b9050919050565b7f416363657373436f6e74726f6c3a2063616e206f6e6c792072656e6f756e636560008201527f20726f6c657320666f722073656c660000000000000000000000000000000000602082015250565b6000611691602f8361152a565b915061169c82611635565b604082019050919050565b600060208201905081810360008301526116c081611684565b9050919050565b7f4e487b7100000000000000000000000000000000000000000000000000000000600052601160045260246000fd5b6000611701826111c2565b91507fffffffffffffffffffffffffffffffffffffffffffffffffffffffffffffffff8203611733576117326116c7565b5b600182019050919050565b611747816112a3565b82525050565b7f53747564656e7420686173206265656e2061646465642073756363657373667560008201527f6c6c790000000000000000000000000000000000000000000000000000000000602082015250565b60006117a960238361152a565b91506117b48261174d565b604082019050919050565b60006040820190506117d4600083018461173e565b81810360208301526117e58161179c565b905092915050565b7f496e7374727563746f7220686173206265656e2061646465642073756363657360008201527f7366756c6c790000000000000000000000000000000000000000000000000000602082015250565b600061184960268361152a565b9150611854826117ed565b604082019050919050565b6000604082019050611874600083018461173e565b81810360208301526118858161183c565b905092915050565b7f526f6c652061737369676e656420746f207468652073747564656e7400000000600082015250565b60006118c3601c8361152a565b91506118ce8261188d565b602082019050919050565b60006040820190506118ee600083018461173e565b81810360208301526118ff816118b6565b905092915050565b600081905092915050565b7f416363657373436f6e74726f6c3a206163636f756e7420000000000000000000600082015250565b6000611948601783611907565b915061195382611912565b601782019050919050565b60006119698261151f565b6119738185611907565b935061198381856020860161153b565b80840191505092915050565b7f206973206d697373696e6720726f6c6520000000000000000000000000000000600082015250565b60006119c5601183611907565b91506119d08261198f565b601182019050919050565b60006119e68261193b565b91506119f2828561195e565b91506119fd826119b8565b9150611a09828461195e565b91508190509392505050565b6000611a20826111c2565b9150611a2b836111c2565b9250817fffffffffffffffffffffffffffffffffffffffffffffffffffffffffffffffff0483118215151615611a6457611a636116c7565b5b828202905092915050565b6000611a7a826111c2565b9150611a85836111c2565b9250827fffffffffffffffffffffffffffffffffffffffffffffffffffffffffffffffff03821115611aba57611ab96116c7565b5b828201905092915050565b7f4e487b7100000000000000000000000000000000000000000000000000000000600052603260045260246000fd5b6000611aff826111c2565b915060008203611b1257611b116116c7565b5b600182039050919050565b7f537472696e67733a20686578206c656e67746820696e73756666696369656e74600082015250565b6000611b5360208361152a565b9150611b5e82611b1d565b602082019050919050565b60006020820190508181036000830152611b8281611b46565b905091905056fea2646970667358221220a49633efdc60a93c23bbf21614d8452f1a01004125f36ee321c02275790d7cf064736f6c634300080f0033",
  "immutableReferences": {},
  "source": "// SPDX-License-Identifier: MIT\npragma solidity ^0.8.0;\nimport \"../dapp_frontend/node_modules/openzeppelin-contracts/contracts/access/AccessControl.sol\";\n\ncontract RoleAssign is AccessControl {\n    uint256 public studentscount;\n    uint256 public teacherscount;\n    bytes32 public constant INSTRUCTOR_ROLE = keccak256(\"INSTRUCTOR_ROLE\");\n    bytes32 public constant STUDENT_ROLE = keccak256(\"STUDENT_ROLE\");\n    bytes32 public constant UNIVERSITY_ROLE = keccak256(\"UNIVERSITY_ROLE\");\n    bytes32 public constant COMPANY_ROLE = keccak256(\"COMPANY_ROLE\");\n\n    struct student_reg {\n        string name;\n        string email;\n        address stud_addr;\n    }\n\n    struct teacher_reg {\n        string name;\n        string email;\n        address teacher_addr;\n    }\n\n     event detailsAdded(address _addr, string message);\n\n    constructor() {\n        // Grant the contract deployer the default admin role: it will be able\n        // to grant and revoke any roles\n        _setupRole(DEFAULT_ADMIN_ROLE, msg.sender);\n    }\n\n    function assignStudentRole(address student) public onlyRole(DEFAULT_ADMIN_ROLE) returns (bool success){\n            _setupRole(STUDENT_ROLE, student);\n            emit detailsAdded(student, \"Role assigned to the student\");\n            return true;\n    }\n\n    function assignTeacherRole(address teacher) public onlyRole(DEFAULT_ADMIN_ROLE) returns (bool success){\n            _setupRole(INSTRUCTOR_ROLE, teacher);\n            return true;\n    }\n\n    function assignUniversityRole(address university) public onlyRole(DEFAULT_ADMIN_ROLE) returns (bool success){\n            _setupRole(UNIVERSITY_ROLE, university);\n            return true;\n    }\n\n    function assignCompanyRole(address company) public onlyRole(DEFAULT_ADMIN_ROLE) returns (bool success){\n            _setupRole(COMPANY_ROLE, company);\n            return true;\n    }\n\n    function studRegistration(address studentaddr,string memory _name,string memory _email) public returns (string memory)\n    {\n        require(hasRole(STUDENT_ROLE, studentaddr), \"Error: must have Student Role\");\n        student_reg memory s;\n        s.name = _name;\n        s.email = _email;\n        s.stud_addr = studentaddr;\n        studentscount++;\n\n        emit detailsAdded(studentaddr, \"Student has been added successfully\");\n        return \"Student Registration complete\";\n    }\n\n    function teacherRegistration(address teacher_addr,string memory _name,string memory _email) public returns (string memory)\n    {\n        require(hasRole(INSTRUCTOR_ROLE, teacher_addr), \"Error: must have Student Role\");\n        teacher_reg memory t;\n        t.name = _name;\n        t.email = _email;\n        t.teacher_addr = teacher_addr;\n        teacherscount++;\n\n        emit detailsAdded(teacher_addr, \"Instructor has been added successfully\");\n        return \"Student Registration complete\";\n    }\n\n    function check_admin(address pub_key) public view returns (bool) {\n        return hasRole(DEFAULT_ADMIN_ROLE, pub_key);\n    }\n\n    function check_student(address pub_key) public view returns (bool) {\n        require(hasRole(STUDENT_ROLE, pub_key), \"Error: must have Student Role\");\n        return true;\n    }\n\n}",
  "sourcePath": "/home/jarvis/projects/smartEduDapp/contracts/RoleAssign.sol",
  "compiler": {
    "name": "solc",
    "version": "0.8.15+commit.e14f2714.Emscripten.clang"
  },
  "schemaVersion": "3.4.8",
  "updatedAt": "2022-11-04T04:14:44.137Z",
  "networkType": "ethereum",
  "devdoc": {
    "kind": "dev",
    "methods": {
      "getRoleAdmin(bytes32)": {
        "details": "Returns the admin role that controls `role`. See {grantRole} and {revokeRole}. To change a role's admin, use {_setRoleAdmin}."
      },
      "grantRole(bytes32,address)": {
        "details": "Grants `role` to `account`. If `account` had not been already granted `role`, emits a {RoleGranted} event. Requirements: - the caller must have ``role``'s admin role. May emit a {RoleGranted} event."
      },
      "hasRole(bytes32,address)": {
        "details": "Returns `true` if `account` has been granted `role`."
      },
      "renounceRole(bytes32,address)": {
        "details": "Revokes `role` from the calling account. Roles are often managed via {grantRole} and {revokeRole}: this function's purpose is to provide a mechanism for accounts to lose their privileges if they are compromised (such as when a trusted device is misplaced). If the calling account had been revoked `role`, emits a {RoleRevoked} event. Requirements: - the caller must be `account`. May emit a {RoleRevoked} event."
      },
      "revokeRole(bytes32,address)": {
        "details": "Revokes `role` from `account`. If `account` had been granted `role`, emits a {RoleRevoked} event. Requirements: - the caller must have ``role``'s admin role. May emit a {RoleRevoked} event."
      },
      "supportsInterface(bytes4)": {
        "details": "See {IERC165-supportsInterface}."
      }
    },
    "version": 1
  },
  "userdoc": {
    "kind": "user",
    "methods": {},
    "version": 1
  }
}