{
  "contractName": "Student",
  "abi": [
    {
      "inputs": [],
      "stateMutability": "nonpayable",
      "type": "constructor"
    },
    {
      "anonymous": false,
      "inputs": [
        {
          "indexed": false,
          "internalType": "address",
          "name": "_teacher",
          "type": "address"
        },
        {
          "indexed": false,
          "internalType": "string",
          "name": "message",
          "type": "string"
        }
      ],
      "name": "accessGiven",
      "type": "event"
    },
    {
      "anonymous": false,
      "inputs": [
        {
          "indexed": false,
          "internalType": "address",
          "name": "_teacher",
          "type": "address"
        },
        {
          "indexed": false,
          "internalType": "string",
          "name": "message",
          "type": "string"
        }
      ],
      "name": "accessRevoked",
      "type": "event"
    },
    {
      "anonymous": false,
      "inputs": [
        {
          "indexed": false,
          "internalType": "address",
          "name": "_student",
          "type": "address"
        },
        {
          "indexed": false,
          "internalType": "string",
          "name": "message",
          "type": "string"
        }
      ],
      "name": "detailsAdded",
      "type": "event"
    },
    {
      "anonymous": false,
      "inputs": [
        {
          "indexed": false,
          "internalType": "address",
          "name": "_teacher",
          "type": "address"
        },
        {
          "indexed": false,
          "internalType": "string",
          "name": "message",
          "type": "string"
        }
      ],
      "name": "prescrAdded",
      "type": "event"
    },
    {
      "inputs": [
        {
          "internalType": "uint256",
          "name": "",
          "type": "uint256"
        }
      ],
      "name": "p_List",
      "outputs": [
        {
          "internalType": "address",
          "name": "",
          "type": "address"
        }
      ],
      "stateMutability": "view",
      "type": "function",
      "constant": true
    },
    {
      "inputs": [
        {
          "internalType": "address",
          "name": "",
          "type": "address"
        }
      ],
      "name": "studentInfo",
      "outputs": [
        {
          "internalType": "string",
          "name": "name",
          "type": "string"
        },
        {
          "internalType": "uint256",
          "name": "age",
          "type": "uint256"
        },
        {
          "internalType": "string",
          "name": "city",
          "type": "string"
        },
        {
          "internalType": "string",
          "name": "email",
          "type": "string"
        },
        {
          "internalType": "string",
          "name": "record_hash",
          "type": "string"
        }
      ],
      "stateMutability": "view",
      "type": "function",
      "constant": true
    },
    {
      "inputs": [
        {
          "internalType": "address",
          "name": "",
          "type": "address"
        }
      ],
      "name": "students",
      "outputs": [
        {
          "internalType": "bool",
          "name": "",
          "type": "bool"
        }
      ],
      "stateMutability": "view",
      "type": "function",
      "constant": true
    },
    {
      "inputs": [],
      "name": "studentsCount",
      "outputs": [
        {
          "internalType": "uint256",
          "name": "",
          "type": "uint256"
        }
      ],
      "stateMutability": "view",
      "type": "function",
      "constant": true
    },
    {
      "inputs": [
        {
          "internalType": "address",
          "name": "",
          "type": "address"
        }
      ],
      "name": "teachers",
      "outputs": [
        {
          "internalType": "bool",
          "name": "",
          "type": "bool"
        }
      ],
      "stateMutability": "view",
      "type": "function",
      "constant": true
    },
    {
      "inputs": [
        {
          "internalType": "address",
          "name": "",
          "type": "address"
        }
      ],
      "name": "university",
      "outputs": [
        {
          "internalType": "bool",
          "name": "",
          "type": "bool"
        }
      ],
      "stateMutability": "view",
      "type": "function",
      "constant": true
    },
    {
      "inputs": [
        {
          "internalType": "string",
          "name": "_name",
          "type": "string"
        },
        {
          "internalType": "uint256",
          "name": "_age",
          "type": "uint256"
        },
        {
          "internalType": "string",
          "name": "_city",
          "type": "string"
        }
      ],
      "name": "addDetails",
      "outputs": [
        {
          "internalType": "string",
          "name": "",
          "type": "string"
        }
      ],
      "stateMutability": "nonpayable",
      "type": "function"
    },
    {
      "inputs": [
        {
          "internalType": "address",
          "name": "paddr",
          "type": "address"
        }
      ],
      "name": "getstudentDet",
      "outputs": [
        {
          "internalType": "string",
          "name": "",
          "type": "string"
        },
        {
          "internalType": "uint256",
          "name": "",
          "type": "uint256"
        },
        {
          "internalType": "string",
          "name": "",
          "type": "string"
        },
        {
          "internalType": "string",
          "name": "",
          "type": "string"
        }
      ],
      "stateMutability": "view",
      "type": "function",
      "constant": true
    },
    {
      "inputs": [
        {
          "internalType": "address",
          "name": "_teacher_address",
          "type": "address"
        }
      ],
      "name": "giveAccess",
      "outputs": [
        {
          "internalType": "string",
          "name": "",
          "type": "string"
        }
      ],
      "stateMutability": "nonpayable",
      "type": "function"
    },
    {
      "inputs": [
        {
          "internalType": "address",
          "name": "_teacher_address",
          "type": "address"
        }
      ],
      "name": "revokeAccess",
      "outputs": [
        {
          "internalType": "string",
          "name": "",
          "type": "string"
        }
      ],
      "stateMutability": "nonpayable",
      "type": "function"
    },
    {
      "inputs": [
        {
          "internalType": "address",
          "name": "paddr",
          "type": "address"
        }
      ],
      "name": "getAccessList",
      "outputs": [
        {
          "internalType": "address[]",
          "name": "",
          "type": "address[]"
        }
      ],
      "stateMutability": "view",
      "type": "function",
      "constant": true
    },
    {
      "inputs": [
        {
          "internalType": "address",
          "name": "paddr",
          "type": "address"
        },
        {
          "internalType": "address",
          "name": "_teacher_address",
          "type": "address"
        }
      ],
      "name": "getHash",
      "outputs": [
        {
          "internalType": "string",
          "name": "",
          "type": "string"
        }
      ],
      "stateMutability": "view",
      "type": "function",
      "constant": true
    },
    {
      "inputs": [
        {
          "internalType": "string",
          "name": "_hash",
          "type": "string"
        }
      ],
      "name": "setIPFShash",
      "outputs": [
        {
          "internalType": "string",
          "name": "",
          "type": "string"
        }
      ],
      "stateMutability": "nonpayable",
      "type": "function"
    }
  ],
  "bytecode": "0x608060405234801561001057600080fd5b50336000806101000a81548173ffffffffffffffffffffffffffffffffffffffff021916908373ffffffffffffffffffffffffffffffffffffffff160217905550611ece806100606000396000f3fe608060405234801561001057600080fd5b50600436106100cf5760003560e01c80638680d8b01161008c578063cf12e87011610066578063cf12e87014610279578063e5c5097e146102a9578063f0a47f78146102d9578063f8cc185014610309576100cf565b80638680d8b0146101e6578063a6c807a914610216578063b31b84f514610246576100cf565b80631cacf492146100d4578063242505b5146101045780633d847dda1461013457806368433a3a1461016857806380efcb3c1461018657806385e68531146101b6575b600080fd5b6100ee60048036038101906100e99190611249565b610339565b6040516100fb9190611291565b60405180910390f35b61011e600480360381019061011991906112e2565b610359565b60405161012b919061131e565b60405180910390f35b61014e60048036038101906101499190611249565b610398565b60405161015f9594939291906113e1565b60405180910390f35b6101706105ee565b60405161017d9190611450565b60405180910390f35b6101a0600480360381019061019b9190611249565b6105f4565b6040516101ad9190611529565b60405180910390f35b6101d060048036038101906101cb9190611249565b6106c4565b6040516101dd919061154b565b60405180910390f35b61020060048036038101906101fb91906116a2565b6108ac565b60405161020d919061154b565b60405180910390f35b610230600480360381019061022b9190611249565b610a98565b60405161023d9190611291565b60405180910390f35b610260600480360381019061025b9190611249565b610ab8565b604051610270949392919061172d565b60405180910390f35b610293600480360381019061028e9190611249565b610d7b565b6040516102a0919061154b565b60405180910390f35b6102c360048036038101906102be9190611787565b610edc565b6040516102d0919061154b565b60405180910390f35b6102f360048036038101906102ee9190611249565b610f6b565b6040516103009190611291565b60405180910390f35b610323600480360381019061031e91906117d0565b610f8b565b604051610330919061154b565b60405180910390f35b60066020528060005260406000206000915054906101000a900460ff1681565b6001818154811061036957600080fd5b906000526020600020016000915054906101000a900473ffffffffffffffffffffffffffffffffffffffff1681565b60036020528060005260406000206000915090508060000180546103bb9061183f565b80601f01602080910402602001604051908101604052809291908181526020018280546103e79061183f565b80156104345780601f1061040957610100808354040283529160200191610434565b820191906000526020600020905b81548152906001019060200180831161041757829003601f168201915b50505050509080600101549080600201805461044f9061183f565b80601f016020809104026020016040519081016040528092919081815260200182805461047b9061183f565b80156104c85780601f1061049d576101008083540402835291602001916104c8565b820191906000526020600020905b8154815290600101906020018083116104ab57829003601f168201915b5050505050908060030180546104dd9061183f565b80601f01602080910402602001604051908101604052809291908181526020018280546105099061183f565b80156105565780601f1061052b57610100808354040283529160200191610556565b820191906000526020600020905b81548152906001019060200180831161053957829003601f168201915b50505050509080600601805461056b9061183f565b80601f01602080910402602001604051908101604052809291908181526020018280546105979061183f565b80156105e45780601f106105b9576101008083540402835291602001916105e4565b820191906000526020600020905b8154815290600101906020018083116105c757829003601f168201915b5050505050905085565b60025481565b6060600360008373ffffffffffffffffffffffffffffffffffffffff1673ffffffffffffffffffffffffffffffffffffffff1681526020019081526020016000206004018054806020026020016040519081016040528092919081815260200182805480156106b857602002820191906000526020600020905b8160009054906101000a900473ffffffffffffffffffffffffffffffffffffffff1673ffffffffffffffffffffffffffffffffffffffff168152602001906001019080831161066e575b50505050509050919050565b606060011515600560008473ffffffffffffffffffffffffffffffffffffffff1673ffffffffffffffffffffffffffffffffffffffff16815260200190815260200160002060009054906101000a900460ff16151514610759576040517f08c379a0000000000000000000000000000000000000000000000000000000008152600401610750906118e2565b60405180910390fd5b6000600560008473ffffffffffffffffffffffffffffffffffffffff1673ffffffffffffffffffffffffffffffffffffffff16815260200190815260200160002060006101000a81548160ff021916908315150217905550600360003373ffffffffffffffffffffffffffffffffffffffff1673ffffffffffffffffffffffffffffffffffffffff16815260200190815260200160002060040180548061080357610802611902565b5b6001900381819060005260206000200160006101000a81549073ffffffffffffffffffffffffffffffffffffffff021916905590557f26a779b544786104fb4a364d37b0091d141939fa90570056c0a1bc6a07bb95728260405161086791906119a3565b60405180910390a16040518060400160405280601181526020017f416363657373206973207265766f6b65640000000000000000000000000000008152509050919050565b60606108b66110f3565b8481600001819052508381602001818152505082816040018190525080600360003373ffffffffffffffffffffffffffffffffffffffff1673ffffffffffffffffffffffffffffffffffffffff16815260200190815260200160002060008201518160000190816109279190611b7d565b506020820151816001015560408201518160020190816109479190611b7d565b50606082015181600301908161095d9190611b7d565b50608082015181600401908051906020019061097a929190611130565b5060a0820151816005019080519060200190610997929190611130565b5060c08201518160060190816109ad9190611b7d565b50905050600260008154809291906109c490611c7e565b91905055506001600460003373ffffffffffffffffffffffffffffffffffffffff1673ffffffffffffffffffffffffffffffffffffffff16815260200190815260200160002060006101000a81548160ff0219169083151502179055507f2dd0dbde0b541d654cbad7f473661699639a8db7f1f8150566180d8c7ba78e3533604051610a509190611d38565b60405180910390a16040518060400160405280601d81526020017f53747564656e7420526567697374726174696f6e20636f6d706c6574650000008152509150509392505050565b60046020528060005260406000206000915054906101000a900460ff1681565b60606000606080600360008673ffffffffffffffffffffffffffffffffffffffff1673ffffffffffffffffffffffffffffffffffffffff168152602001908152602001600020600001600360008773ffffffffffffffffffffffffffffffffffffffff1673ffffffffffffffffffffffffffffffffffffffff16815260200190815260200160002060010154600360008873ffffffffffffffffffffffffffffffffffffffff1673ffffffffffffffffffffffffffffffffffffffff168152602001908152602001600020600201600360008973ffffffffffffffffffffffffffffffffffffffff1673ffffffffffffffffffffffffffffffffffffffff168152602001908152602001600020600601838054610bd49061183f565b80601f0160208091040260200160405190810160405280929190818152602001828054610c009061183f565b8015610c4d5780601f10610c2257610100808354040283529160200191610c4d565b820191906000526020600020905b815481529060010190602001808311610c3057829003601f168201915b50505050509350818054610c609061183f565b80601f0160208091040260200160405190810160405280929190818152602001828054610c8c9061183f565b8015610cd95780601f10610cae57610100808354040283529160200191610cd9565b820191906000526020600020905b815481529060010190602001808311610cbc57829003601f168201915b50505050509150808054610cec9061183f565b80601f0160208091040260200160405190810160405280929190818152602001828054610d189061183f565b8015610d655780601f10610d3a57610100808354040283529160200191610d65565b820191906000526020600020905b815481529060010190602001808311610d4857829003601f168201915b5050505050905093509350935093509193509193565b606060001515600560008473ffffffffffffffffffffffffffffffffffffffff1673ffffffffffffffffffffffffffffffffffffffff16815260200190815260200160002060009054906101000a900460ff16151514610e10576040517f08c379a0000000000000000000000000000000000000000000000000000000008152600401610e0790611dd8565b60405180910390fd5b6001600560008473ffffffffffffffffffffffffffffffffffffffff1673ffffffffffffffffffffffffffffffffffffffff16815260200190815260200160002060006101000a81548160ff0219169083151502179055507f5a2a28d0708bd1dc5a38513de612a87bee6f714881097828fd8c036e68e4386a82604051610e979190611e6a565b60405180910390a16040518060400160405280600e81526020017f416363657373206772616e7465640000000000000000000000000000000000008152509050919050565b606081600360003373ffffffffffffffffffffffffffffffffffffffff1673ffffffffffffffffffffffffffffffffffffffff1681526020019081526020016000206006019081610f2d9190611b7d565b506040518060400160405280601c81526020017f495046532068617368206164646564207375636365737366756c6c79000000008152509050919050565b60056020528060005260406000206000915054906101000a900460ff1681565b606060011515600560008473ffffffffffffffffffffffffffffffffffffffff1673ffffffffffffffffffffffffffffffffffffffff16815260200190815260200160002060009054906101000a900460ff16151514611020576040517f08c379a0000000000000000000000000000000000000000000000000000000008152600401611017906118e2565b60405180910390fd5b600360008473ffffffffffffffffffffffffffffffffffffffff1673ffffffffffffffffffffffffffffffffffffffff168152602001908152602001600020600601805461106d9061183f565b80601f01602080910402602001604051908101604052809291908181526020018280546110999061183f565b80156110e65780601f106110bb576101008083540402835291602001916110e6565b820191906000526020600020905b8154815290600101906020018083116110c957829003601f168201915b5050505050905092915050565b6040518060e00160405280606081526020016000815260200160608152602001606081526020016060815260200160608152602001606081525090565b8280548282559060005260206000209081019282156111a9579160200282015b828111156111a85782518260006101000a81548173ffffffffffffffffffffffffffffffffffffffff021916908373ffffffffffffffffffffffffffffffffffffffff16021790555091602001919060010190611150565b5b5090506111b691906111ba565b5090565b5b808211156111d35760008160009055506001016111bb565b5090565b6000604051905090565b600080fd5b600080fd5b600073ffffffffffffffffffffffffffffffffffffffff82169050919050565b6000611216826111eb565b9050919050565b6112268161120b565b811461123157600080fd5b50565b6000813590506112438161121d565b92915050565b60006020828403121561125f5761125e6111e1565b5b600061126d84828501611234565b91505092915050565b60008115159050919050565b61128b81611276565b82525050565b60006020820190506112a66000830184611282565b92915050565b6000819050919050565b6112bf816112ac565b81146112ca57600080fd5b50565b6000813590506112dc816112b6565b92915050565b6000602082840312156112f8576112f76111e1565b5b6000611306848285016112cd565b91505092915050565b6113188161120b565b82525050565b6000602082019050611333600083018461130f565b92915050565b600081519050919050565b600082825260208201905092915050565b60005b83811015611373578082015181840152602081019050611358565b83811115611382576000848401525b50505050565b6000601f19601f8301169050919050565b60006113a482611339565b6113ae8185611344565b93506113be818560208601611355565b6113c781611388565b840191505092915050565b6113db816112ac565b82525050565b600060a08201905081810360008301526113fb8188611399565b905061140a60208301876113d2565b818103604083015261141c8186611399565b905081810360608301526114308185611399565b905081810360808301526114448184611399565b90509695505050505050565b600060208201905061146560008301846113d2565b92915050565b600081519050919050565b600082825260208201905092915050565b6000819050602082019050919050565b6114a08161120b565b82525050565b60006114b28383611497565b60208301905092915050565b6000602082019050919050565b60006114d68261146b565b6114e08185611476565b93506114eb83611487565b8060005b8381101561151c57815161150388826114a6565b975061150e836114be565b9250506001810190506114ef565b5085935050505092915050565b6000602082019050818103600083015261154381846114cb565b905092915050565b600060208201905081810360008301526115658184611399565b905092915050565b600080fd5b600080fd5b7f4e487b7100000000000000000000000000000000000000000000000000000000600052604160045260246000fd5b6115af82611388565b810181811067ffffffffffffffff821117156115ce576115cd611577565b5b80604052505050565b60006115e16111d7565b90506115ed82826115a6565b919050565b600067ffffffffffffffff82111561160d5761160c611577565b5b61161682611388565b9050602081019050919050565b82818337600083830152505050565b6000611645611640846115f2565b6115d7565b90508281526020810184848401111561166157611660611572565b5b61166c848285611623565b509392505050565b600082601f8301126116895761168861156d565b5b8135611699848260208601611632565b91505092915050565b6000806000606084860312156116bb576116ba6111e1565b5b600084013567ffffffffffffffff8111156116d9576116d86111e6565b5b6116e586828701611674565b93505060206116f6868287016112cd565b925050604084013567ffffffffffffffff811115611717576117166111e6565b5b61172386828701611674565b9150509250925092565b600060808201905081810360008301526117478187611399565b905061175660208301866113d2565b81810360408301526117688185611399565b9050818103606083015261177c8184611399565b905095945050505050565b60006020828403121561179d5761179c6111e1565b5b600082013567ffffffffffffffff8111156117bb576117ba6111e6565b5b6117c784828501611674565b91505092915050565b600080604083850312156117e7576117e66111e1565b5b60006117f585828601611234565b925050602061180685828601611234565b9150509250929050565b7f4e487b7100000000000000000000000000000000000000000000000000000000600052602260045260246000fd5b6000600282049050600182168061185757607f821691505b60208210810361186a57611869611810565b5b50919050565b7f546865207465616368657220646f65736e2774206861766520616e792061636360008201527f6573730000000000000000000000000000000000000000000000000000000000602082015250565b60006118cc602383611344565b91506118d782611870565b604082019050919050565b600060208201905081810360008301526118fb816118bf565b9050919050565b7f4e487b7100000000000000000000000000000000000000000000000000000000600052603160045260246000fd5b7f41636365737320686173206265656e207265766f6b65642066726f6d2074686560008201527f2074656163686572000000000000000000000000000000000000000000000000602082015250565b600061198d602883611344565b915061199882611931565b604082019050919050565b60006040820190506119b8600083018461130f565b81810360208301526119c981611980565b905092915050565b60008190508160005260206000209050919050565b60006020601f8301049050919050565b600082821b905092915050565b600060088302611a337fffffffffffffffffffffffffffffffffffffffffffffffffffffffffffffffff826119f6565b611a3d86836119f6565b95508019841693508086168417925050509392505050565b6000819050919050565b6000611a7a611a75611a70846112ac565b611a55565b6112ac565b9050919050565b6000819050919050565b611a9483611a5f565b611aa8611aa082611a81565b848454611a03565b825550505050565b600090565b611abd611ab0565b611ac8818484611a8b565b505050565b5b81811015611aec57611ae1600082611ab5565b600181019050611ace565b5050565b601f821115611b3157611b02816119d1565b611b0b846119e6565b81016020851015611b1a578190505b611b2e611b26856119e6565b830182611acd565b50505b505050565b600082821c905092915050565b6000611b5460001984600802611b36565b1980831691505092915050565b6000611b6d8383611b43565b9150826002028217905092915050565b611b8682611339565b67ffffffffffffffff811115611b9f57611b9e611577565b5b611ba9825461183f565b611bb4828285611af0565b600060209050601f831160018114611be75760008415611bd5578287015190505b611bdf8582611b61565b865550611c47565b601f198416611bf5866119d1565b60005b82811015611c1d57848901518255600182019150602085019450602081019050611bf8565b86831015611c3a5784890151611c36601f891682611b43565b8355505b6001600288020188555050505b505050505050565b7f4e487b7100000000000000000000000000000000000000000000000000000000600052601160045260246000fd5b6000611c89826112ac565b91507fffffffffffffffffffffffffffffffffffffffffffffffffffffffffffffffff8203611cbb57611cba611c4f565b5b600182019050919050565b7f53747564656e7420686173206265656e2061646465642073756363657373667560008201527f6c6c790000000000000000000000000000000000000000000000000000000000602082015250565b6000611d22602383611344565b9150611d2d82611cc6565b604082019050919050565b6000604082019050611d4d600083018461130f565b8181036020830152611d5e81611d15565b905092915050565b7f41636365737320616c726561647920676976656e20746f20746865207465616360008201527f6865720000000000000000000000000000000000000000000000000000000000602082015250565b6000611dc2602383611344565b9150611dcd82611d66565b604082019050919050565b60006020820190508181036000830152611df181611db5565b9050919050565b7f41636365737320676976656e20746f207468652061626f76652061646472657360008201527f7365642074656163686572000000000000000000000000000000000000000000602082015250565b6000611e54602b83611344565b9150611e5f82611df8565b604082019050919050565b6000604082019050611e7f600083018461130f565b8181036020830152611e9081611e47565b90509291505056fea2646970667358221220e8f423de35b1244d278240a65477f3378e7c04e3a1cd1c2a70f69c448e48d1ce64736f6c634300080f0033",
  "immutableReferences": {},
  "source": "//SPDX-License-Identifier: MIT\n\npragma solidity ^0.8.0;\n\n//import \"../dapp_frontend/node_modules/openzeppelin-contracts/contracts/access/AccessControl.sol\";\n//import \"@openzeppelin/contracts/access/AccessControl.sol\";\n//import \"./RoleAssign.sol\";\nimport \"./RBAC.sol\";\n\ncontract Student{\n\n    struct student {\n        string name;\n        uint age;\n        string city;\n        string email;\n        address[] teacherAccessList;\n        address[] certAccessList;\n        string record_hash;\n        \n    }\n\n    address owner_p;\n    address[] public p_List;\n    uint public studentsCount;\n\n    mapping (address => student) public studentInfo;\n\n    mapping (address => bool) public students;\n     \n    mapping (address => bool) public teachers;\n\n    mapping (address => bool) public university;\n\n  //  mapping(address => mapping(string => string)) prescriptions;\n\n    event detailsAdded(address _student, string message);\n    event accessGiven(address _teacher, string message);\n    event accessRevoked(address _teacher, string message);\n    event prescrAdded(address _teacher, string message);\n\n     modifier only_owner(){\n        require(owner_p == msg.sender);\n        _;\n    }\n\n    constructor() {\n        owner_p = msg.sender;\n        //studentsCount = 0;\n    }\n    \n    function addDetails(string memory _name, uint _age, string memory _city) public returns (string memory)\n    {\n        student memory p;\n        p.name = _name;\n        p.age = _age;\n        p.city = _city;\n        studentInfo[msg.sender] = p;\n        //p_List.push(msg.sender)-1;\n        //p_List[studentsCount] = msg.sender;\n        studentsCount++;\n        students[msg.sender] = true;\n\n        emit detailsAdded(msg.sender, \"Student has been added successfully\");\n        return \"Student Registration complete\";\n    }\n\n    function getstudentDet(address paddr) view public returns (string memory, uint, string memory, string memory) {\n        return (studentInfo[paddr].name,studentInfo[paddr].age,studentInfo[paddr].city,studentInfo[paddr].record_hash);\n    }\n    \n    function giveAccess(address _teacher_address) public returns (string memory) {\n       \n        require(teachers[_teacher_address] == false, \"Access already given to the teacher\");\n        teachers[_teacher_address] = true;\n        //studentInfo[msg.sender].teacherAccessList.push(_teacher_address)-1;\n        //an event can be added\n        emit accessGiven(_teacher_address, \"Access given to the above addressed teacher\");\n        return \"Access granted\";\n    }\n    \n    //only owner is removed temporarily\n    function revokeAccess(address _teacher_address) public returns (string memory) {\n       \n        //if(teachers[_teacher_address]){\n        //    teachers[_teacher_address] = false;\n        //}\n        require(teachers[_teacher_address] == true, \"The teacher doesn't have any access\");\n        teachers[_teacher_address] = false;\n        studentInfo[msg.sender].teacherAccessList.pop();\n        //can add an event\n        emit accessRevoked(_teacher_address, \"Access has been revoked from the teacher\");\n        return \"Access is revoked\";\n    }\n\n    function getAccessList(address paddr) view public returns (address[] memory){\n        return studentInfo[paddr].teacherAccessList;\n    }\n\n    /*function getPhAccessList(address paddr) view public returns (address[] memory){\n        return studentInfo[paddr].prescAccessList;\n    }*/\n\n    function getHash(address paddr, address _teacher_address) public view returns (string memory) {\n        require(teachers[_teacher_address] == true, \"The teacher doesn't have any access\");\n        return studentInfo[paddr].record_hash;\n    }\n\n   /* function addPrescriptions(address daddr, string memory disease_name, string memory medications) public returns(string memory){\n        require(teachers[daddr] == true, \"The teacher doesn't have the permission to give out prescriptions\");\n        prescriptions[daddr][disease_name] = medications;\n        emit prescrAdded(daddr, 'Prescriptions added');\n        return 'Prescriptions added';\n\n    }*/\n\n    /*function giveAccessPrescr(address _pharma_address) public returns (string memory) {\n        require(pharmacy[_pharma_address] == false, \"Access to the prescriptions already given to the pharmacy\");\n        pharmacy[_pharma_address] = true;\n        studentInfo[msg.sender].prescAccessList.push(_pharma_address)-1;\n        //an event can be added\n        emit accessGiven(_pharma_address, \"Access to the prescriptions given to the above addressed pharmacy\");\n        return \"Access granted\";\n    }\n\n    function revokeAccessPrescr(address _pharma_address) public returns (string memory) {\n        require(pharmacy[_pharma_address] == true, \"This particular pharmacy doesn't have any access\");\n        pharmacy[_pharma_address] = false;\n        studentInfo[msg.sender].prescAccessList.pop();\n        //can add an event\n        emit accessRevoked(_pharma_address, \"Access has been revoked from the pharmacy\");\n        return \"Access is revoked\";\n    }\n\n    function getPrescriptions(address _doc_addr, address _ph_addr, string memory _disease_name) public view returns (string memory){\n         require(pharmacy[_ph_addr] == true, \"The pharmacy doesn't have the permission to access the prescriptions\");\n         return prescriptions[_doc_addr][_disease_name];   \n    }*/\n\n    function setIPFShash(string memory _hash)public returns(string memory){\n        studentInfo[msg.sender].record_hash = _hash;\n        return \"IPFS hash added successfully\";\n\n    }\n\n\n\n\n}",
  "sourcePath": "/home/jarvis/projects/mtech_proj-main/contracts/Student.sol",
  "compiler": {
    "name": "solc",
    "version": "0.8.15+commit.e14f2714.Emscripten.clang"
  },
  "schemaVersion": "3.4.8",
  "updatedAt": "2023-02-07T05:06:06.145Z",
  "networkType": "ethereum",
  "devdoc": {
    "kind": "dev",
    "methods": {},
    "version": 1
  },
  "userdoc": {
    "kind": "user",
    "methods": {},
    "version": 1
  }
}