{
  "contractName": "Student",
  "abi": [
    {
      "inputs": [],
      "stateMutability": "nonpayable",
      "type": "constructor"
    },
    {
      "anonymous": false,
      "inputs": [
        {
          "indexed": false,
          "internalType": "address",
          "name": "_teacher",
          "type": "address"
        },
        {
          "indexed": false,
          "internalType": "string",
          "name": "message",
          "type": "string"
        }
      ],
      "name": "accessGiven",
      "type": "event"
    },
    {
      "anonymous": false,
      "inputs": [
        {
          "indexed": false,
          "internalType": "address",
          "name": "_teacher",
          "type": "address"
        },
        {
          "indexed": false,
          "internalType": "string",
          "name": "message",
          "type": "string"
        }
      ],
      "name": "accessRevoked",
      "type": "event"
    },
    {
      "anonymous": false,
      "inputs": [
        {
          "indexed": false,
          "internalType": "address",
          "name": "_student",
          "type": "address"
        },
        {
          "indexed": false,
          "internalType": "string",
          "name": "message",
          "type": "string"
        }
      ],
      "name": "detailsAdded",
      "type": "event"
    },
    {
      "anonymous": false,
      "inputs": [
        {
          "indexed": false,
          "internalType": "address",
          "name": "_teacher",
          "type": "address"
        },
        {
          "indexed": false,
          "internalType": "string",
          "name": "message",
          "type": "string"
        }
      ],
      "name": "prescrAdded",
      "type": "event"
    },
    {
      "inputs": [
        {
          "internalType": "uint256",
          "name": "",
          "type": "uint256"
        }
      ],
      "name": "p_List",
      "outputs": [
        {
          "internalType": "address",
          "name": "",
          "type": "address"
        }
      ],
      "stateMutability": "view",
      "type": "function",
      "constant": true
    },
    {
      "inputs": [
        {
          "internalType": "address",
          "name": "",
          "type": "address"
        }
      ],
      "name": "studentInfo",
      "outputs": [
        {
          "internalType": "string",
          "name": "name",
          "type": "string"
        },
        {
          "internalType": "string",
          "name": "city",
          "type": "string"
        },
        {
          "internalType": "string",
          "name": "email",
          "type": "string"
        },
        {
          "internalType": "string",
          "name": "record_hash",
          "type": "string"
        },
        {
          "internalType": "string",
          "name": "about_hash",
          "type": "string"
        },
        {
          "internalType": "string",
          "name": "prof_pic_hash",
          "type": "string"
        }
      ],
      "stateMutability": "view",
      "type": "function",
      "constant": true
    },
    {
      "inputs": [
        {
          "internalType": "address",
          "name": "",
          "type": "address"
        }
      ],
      "name": "students",
      "outputs": [
        {
          "internalType": "bool",
          "name": "",
          "type": "bool"
        }
      ],
      "stateMutability": "view",
      "type": "function",
      "constant": true
    },
    {
      "inputs": [],
      "name": "studentsCount",
      "outputs": [
        {
          "internalType": "uint256",
          "name": "",
          "type": "uint256"
        }
      ],
      "stateMutability": "view",
      "type": "function",
      "constant": true
    },
    {
      "inputs": [
        {
          "internalType": "address",
          "name": "",
          "type": "address"
        }
      ],
      "name": "teachers",
      "outputs": [
        {
          "internalType": "bool",
          "name": "",
          "type": "bool"
        }
      ],
      "stateMutability": "view",
      "type": "function",
      "constant": true
    },
    {
      "inputs": [
        {
          "internalType": "address",
          "name": "",
          "type": "address"
        }
      ],
      "name": "university",
      "outputs": [
        {
          "internalType": "bool",
          "name": "",
          "type": "bool"
        }
      ],
      "stateMutability": "view",
      "type": "function",
      "constant": true
    },
    {
      "inputs": [
        {
          "internalType": "string",
          "name": "_name",
          "type": "string"
        },
        {
          "internalType": "string",
          "name": "_city",
          "type": "string"
        }
      ],
      "name": "addDetails",
      "outputs": [
        {
          "internalType": "string",
          "name": "",
          "type": "string"
        }
      ],
      "stateMutability": "nonpayable",
      "type": "function"
    },
    {
      "inputs": [
        {
          "internalType": "address",
          "name": "s_id",
          "type": "address"
        },
        {
          "internalType": "int256",
          "name": "_c_id",
          "type": "int256"
        }
      ],
      "name": "addCourseID",
      "outputs": [
        {
          "internalType": "string",
          "name": "",
          "type": "string"
        }
      ],
      "stateMutability": "nonpayable",
      "type": "function"
    },
    {
      "inputs": [
        {
          "internalType": "address",
          "name": "s_id",
          "type": "address"
        },
        {
          "internalType": "int256",
          "name": "_deadline",
          "type": "int256"
        }
      ],
      "name": "addDeadline",
      "outputs": [
        {
          "internalType": "string",
          "name": "",
          "type": "string"
        }
      ],
      "stateMutability": "nonpayable",
      "type": "function"
    },
    {
      "inputs": [
        {
          "internalType": "address",
          "name": "s_id",
          "type": "address"
        },
        {
          "internalType": "int256",
          "name": "_marks",
          "type": "int256"
        }
      ],
      "name": "addMarks",
      "outputs": [
        {
          "internalType": "string",
          "name": "",
          "type": "string"
        }
      ],
      "stateMutability": "nonpayable",
      "type": "function"
    },
    {
      "inputs": [
        {
          "internalType": "address",
          "name": "s_id",
          "type": "address"
        },
        {
          "internalType": "int256",
          "name": "_marks",
          "type": "int256"
        },
        {
          "internalType": "uint256",
          "name": "idx",
          "type": "uint256"
        }
      ],
      "name": "addMarksWI",
      "outputs": [
        {
          "internalType": "string",
          "name": "",
          "type": "string"
        }
      ],
      "stateMutability": "nonpayable",
      "type": "function"
    },
    {
      "inputs": [
        {
          "internalType": "address",
          "name": "s_id",
          "type": "address"
        }
      ],
      "name": "getTotalCourses",
      "outputs": [
        {
          "internalType": "uint256",
          "name": "",
          "type": "uint256"
        }
      ],
      "stateMutability": "view",
      "type": "function",
      "constant": true
    },
    {
      "inputs": [
        {
          "internalType": "address",
          "name": "s_id",
          "type": "address"
        },
        {
          "internalType": "uint256",
          "name": "_c_id",
          "type": "uint256"
        }
      ],
      "name": "getCourseID",
      "outputs": [
        {
          "internalType": "int256",
          "name": "",
          "type": "int256"
        }
      ],
      "stateMutability": "view",
      "type": "function",
      "constant": true
    },
    {
      "inputs": [
        {
          "internalType": "address",
          "name": "s_id",
          "type": "address"
        },
        {
          "internalType": "uint256",
          "name": "_c_id",
          "type": "uint256"
        }
      ],
      "name": "getDeadline",
      "outputs": [
        {
          "internalType": "int256",
          "name": "",
          "type": "int256"
        }
      ],
      "stateMutability": "view",
      "type": "function",
      "constant": true
    },
    {
      "inputs": [
        {
          "internalType": "address",
          "name": "s_id",
          "type": "address"
        },
        {
          "internalType": "uint256",
          "name": "_c_id",
          "type": "uint256"
        }
      ],
      "name": "getMarks",
      "outputs": [
        {
          "internalType": "int256",
          "name": "",
          "type": "int256"
        }
      ],
      "stateMutability": "view",
      "type": "function",
      "constant": true
    },
    {
      "inputs": [
        {
          "internalType": "address",
          "name": "paddr",
          "type": "address"
        }
      ],
      "name": "getstudentDet",
      "outputs": [
        {
          "internalType": "string",
          "name": "",
          "type": "string"
        },
        {
          "internalType": "string",
          "name": "",
          "type": "string"
        },
        {
          "internalType": "string",
          "name": "",
          "type": "string"
        }
      ],
      "stateMutability": "view",
      "type": "function",
      "constant": true
    },
    {
      "inputs": [
        {
          "internalType": "address",
          "name": "_teacher_address",
          "type": "address"
        }
      ],
      "name": "giveAccess",
      "outputs": [
        {
          "internalType": "string",
          "name": "",
          "type": "string"
        }
      ],
      "stateMutability": "nonpayable",
      "type": "function"
    },
    {
      "inputs": [
        {
          "internalType": "address",
          "name": "_teacher_address",
          "type": "address"
        }
      ],
      "name": "revokeAccess",
      "outputs": [
        {
          "internalType": "string",
          "name": "",
          "type": "string"
        }
      ],
      "stateMutability": "nonpayable",
      "type": "function"
    },
    {
      "inputs": [
        {
          "internalType": "address",
          "name": "paddr",
          "type": "address"
        }
      ],
      "name": "getAccessList",
      "outputs": [
        {
          "internalType": "address[]",
          "name": "",
          "type": "address[]"
        }
      ],
      "stateMutability": "view",
      "type": "function",
      "constant": true
    },
    {
      "inputs": [
        {
          "internalType": "address",
          "name": "paddr",
          "type": "address"
        },
        {
          "internalType": "address",
          "name": "_teacher_address",
          "type": "address"
        }
      ],
      "name": "getHash",
      "outputs": [
        {
          "internalType": "string",
          "name": "",
          "type": "string"
        }
      ],
      "stateMutability": "view",
      "type": "function",
      "constant": true
    },
    {
      "inputs": [],
      "name": "getIPFSHash",
      "outputs": [
        {
          "internalType": "string",
          "name": "",
          "type": "string"
        }
      ],
      "stateMutability": "view",
      "type": "function",
      "constant": true
    },
    {
      "inputs": [
        {
          "internalType": "string",
          "name": "_hash",
          "type": "string"
        }
      ],
      "name": "setIPFShash",
      "outputs": [
        {
          "internalType": "string",
          "name": "",
          "type": "string"
        }
      ],
      "stateMutability": "nonpayable",
      "type": "function"
    },
    {
      "inputs": [
        {
          "internalType": "string",
          "name": "_hash",
          "type": "string"
        }
      ],
      "name": "setabouthash",
      "outputs": [
        {
          "internalType": "string",
          "name": "",
          "type": "string"
        }
      ],
      "stateMutability": "nonpayable",
      "type": "function"
    },
    {
      "inputs": [],
      "name": "getaboutHash",
      "outputs": [
        {
          "internalType": "string",
          "name": "",
          "type": "string"
        }
      ],
      "stateMutability": "view",
      "type": "function",
      "constant": true
    },
    {
      "inputs": [
        {
          "internalType": "string",
          "name": "_hash",
          "type": "string"
        }
      ],
      "name": "setprofpichash",
      "outputs": [
        {
          "internalType": "string",
          "name": "",
          "type": "string"
        }
      ],
      "stateMutability": "nonpayable",
      "type": "function"
    },
    {
      "inputs": [],
      "name": "getprofpictHash",
      "outputs": [
        {
          "internalType": "string",
          "name": "",
          "type": "string"
        }
      ],
      "stateMutability": "view",
      "type": "function",
      "constant": true
    }
  ],
  "bytecode": "0x608060405234801561001057600080fd5b50336000806101000a81548173ffffffffffffffffffffffffffffffffffffffff021916908373ffffffffffffffffffffffffffffffffffffffff160217905550612ca8806100606000396000f3fe608060405234801561001057600080fd5b506004361061018e5760003560e01c80637fdc639d116100de578063a6c807a911610097578063e5c5097e11610071578063e5c5097e14610572578063ecd8daf6146105a2578063f0a47f78146105d2578063f8cc1850146106025761018e565b8063a6c807a9146104e0578063b31b84f514610510578063cf12e870146105425761018e565b80637fdc639d146103d257806380efcb3c1461040257806385e68531146104325780638b1e8c0d146104625780638e7c593f146104925780639ffc8b5f146104b05761018e565b806342d038d41161014b5780637793fcc8116101255780637793fcc814610324578063783f84d4146103545780637c196053146103845780637f5f8599146103a25761018e565b806342d038d4146102a65780634c6d06fa146102d657806368433a3a146103065761018e565b8063106b7c78146101935780631cacf492146101c35780631dbbeb89146101f357806320b28ade14610223578063242505b5146102415780633d847dda14610271575b600080fd5b6101ad60048036038101906101a89190611efc565b610632565b6040516101ba9190611f55565b60405180910390f35b6101dd60048036038101906101d89190611f70565b61069b565b6040516101ea9190611fb8565b60405180910390f35b61020d60048036038101906102089190611fff565b6106bb565b60405161021a91906120d8565b60405180910390f35b61022b610764565b60405161023891906120d8565b60405180910390f35b61025b600480360381019061025691906120fa565b610836565b6040516102689190612136565b60405180910390f35b61028b60048036038101906102869190611f70565b610875565b60405161029d96959493929190612151565b60405180910390f35b6102c060048036038101906102bb9190611f70565b610be1565b6040516102cd91906121eb565b60405180910390f35b6102f060048036038101906102eb9190611efc565b610c30565b6040516102fd9190611f55565b60405180910390f35b61030e610c99565b60405161031b91906121eb565b60405180910390f35b61033e60048036038101906103399190611efc565b610c9f565b60405161034b9190611f55565b60405180910390f35b61036e6004803603810190610369919061233b565b610d08565b60405161037b91906120d8565b60405180910390f35b61038c610d97565b60405161039991906120d8565b60405180910390f35b6103bc60048036038101906103b79190612384565b610e69565b6040516103c991906120d8565b60405180910390f35b6103ec60048036038101906103e79190611fff565b6110c6565b6040516103f991906120d8565b60405180910390f35b61041c60048036038101906104179190611f70565b61116f565b60405161042991906124ba565b60405180910390f35b61044c60048036038101906104479190611f70565b61123f565b60405161045991906120d8565b60405180910390f35b61047c6004803603810190610477919061233b565b611427565b60405161048991906120d8565b60405180910390f35b61049a6114b6565b6040516104a791906120d8565b60405180910390f35b6104ca60048036038101906104c59190611fff565b611588565b6040516104d791906120d8565b60405180910390f35b6104fa60048036038101906104f59190611f70565b611631565b6040516105079190611fb8565b60405180910390f35b61052a60048036038101906105259190611f70565b611651565b604051610539939291906124dc565b60405180910390f35b61055c60048036038101906105579190611f70565b6118cd565b60405161056991906120d8565b60405180910390f35b61058c6004803603810190610587919061233b565b611a2e565b60405161059991906120d8565b60405180910390f35b6105bc60048036038101906105b79190612528565b611abd565b6040516105c991906120d8565b60405180910390f35b6105ec60048036038101906105e79190611f70565b611b61565b6040516105f99190611fb8565b60405180910390f35b61061c6004803603810190610617919061257b565b611b81565b60405161062991906120d8565b60405180910390f35b6000600360008473ffffffffffffffffffffffffffffffffffffffff1673ffffffffffffffffffffffffffffffffffffffff1681526020019081526020016000206009018281548110610688576106876125bb565b5b9060005260206000200154905092915050565b60066020528060005260406000206000915054906101000a900460ff1681565b6060600360008473ffffffffffffffffffffffffffffffffffffffff1673ffffffffffffffffffffffffffffffffffffffff1681526020019081526020016000206009018290806001815401808255809150506001900390600052602060002001600090919091909150556040518060400160405280600e81526020017f416464656420646561646c696e65000000000000000000000000000000000000815250905092915050565b6060600360003373ffffffffffffffffffffffffffffffffffffffff1673ffffffffffffffffffffffffffffffffffffffff16815260200190815260200160002060050180546107b390612619565b80601f01602080910402602001604051908101604052809291908181526020018280546107df90612619565b801561082c5780601f106108015761010080835404028352916020019161082c565b820191906000526020600020905b81548152906001019060200180831161080f57829003601f168201915b5050505050905090565b6001818154811061084657600080fd5b906000526020600020016000915054906101000a900473ffffffffffffffffffffffffffffffffffffffff1681565b600360205280600052604060002060009150905080600001805461089890612619565b80601f01602080910402602001604051908101604052809291908181526020018280546108c490612619565b80156109115780601f106108e657610100808354040283529160200191610911565b820191906000526020600020905b8154815290600101906020018083116108f457829003601f168201915b50505050509080600101805461092690612619565b80601f016020809104026020016040519081016040528092919081815260200182805461095290612619565b801561099f5780601f106109745761010080835404028352916020019161099f565b820191906000526020600020905b81548152906001019060200180831161098257829003601f168201915b5050505050908060020180546109b490612619565b80601f01602080910402602001604051908101604052809291908181526020018280546109e090612619565b8015610a2d5780601f10610a0257610100808354040283529160200191610a2d565b820191906000526020600020905b815481529060010190602001808311610a1057829003601f168201915b505050505090806005018054610a4290612619565b80601f0160208091040260200160405190810160405280929190818152602001828054610a6e90612619565b8015610abb5780601f10610a9057610100808354040283529160200191610abb565b820191906000526020600020905b815481529060010190602001808311610a9e57829003601f168201915b505050505090806006018054610ad090612619565b80601f0160208091040260200160405190810160405280929190818152602001828054610afc90612619565b8015610b495780601f10610b1e57610100808354040283529160200191610b49565b820191906000526020600020905b815481529060010190602001808311610b2c57829003601f168201915b505050505090806007018054610b5e90612619565b80601f0160208091040260200160405190810160405280929190818152602001828054610b8a90612619565b8015610bd75780601f10610bac57610100808354040283529160200191610bd7565b820191906000526020600020905b815481529060010190602001808311610bba57829003601f168201915b5050505050905086565b6000600360008373ffffffffffffffffffffffffffffffffffffffff1673ffffffffffffffffffffffffffffffffffffffff168152602001908152602001600020600801805490509050919050565b6000600360008473ffffffffffffffffffffffffffffffffffffffff1673ffffffffffffffffffffffffffffffffffffffff168152602001908152602001600020600a018281548110610c8657610c856125bb565b5b9060005260206000200154905092915050565b60025481565b6000600360008473ffffffffffffffffffffffffffffffffffffffff1673ffffffffffffffffffffffffffffffffffffffff1681526020019081526020016000206008018281548110610cf557610cf46125bb565b5b9060005260206000200154905092915050565b606081600360003373ffffffffffffffffffffffffffffffffffffffff1673ffffffffffffffffffffffffffffffffffffffff1681526020019081526020016000206006019081610d5991906127f6565b506040518060400160405280601c81526020017f495046532068617368206164646564207375636365737366756c6c79000000008152509050919050565b6060600360003373ffffffffffffffffffffffffffffffffffffffff1673ffffffffffffffffffffffffffffffffffffffff1681526020019081526020016000206006018054610de690612619565b80601f0160208091040260200160405190810160405280929190818152602001828054610e1290612619565b8015610e5f5780601f10610e3457610100808354040283529160200191610e5f565b820191906000526020600020905b815481529060010190602001808311610e4257829003601f168201915b5050505050905090565b6060610e73611ce9565b83816000018190525082816020018190525080600360003373ffffffffffffffffffffffffffffffffffffffff1673ffffffffffffffffffffffffffffffffffffffff1681526020019081526020016000206000820151816000019081610eda91906127f6565b506020820151816001019081610ef091906127f6565b506040820151816002019081610f0691906127f6565b506060820151816003019080519060200190610f23929190611d43565b506080820151816004019080519060200190610f40929190611d43565b5060a0820151816005019081610f5691906127f6565b5060c0820151816006019081610f6c91906127f6565b5060e0820151816007019081610f8291906127f6565b50610100820151816008019080519060200190610fa0929190611dcd565b50610120820151816009019080519060200190610fbe929190611dcd565b5061014082015181600a019080519060200190610fdc929190611dcd565b5090505060026000815480929190610ff3906128f7565b91905055506001600460003373ffffffffffffffffffffffffffffffffffffffff1673ffffffffffffffffffffffffffffffffffffffff16815260200190815260200160002060006101000a81548160ff0219169083151502179055507f2dd0dbde0b541d654cbad7f473661699639a8db7f1f8150566180d8c7ba78e353360405161107f91906129b1565b60405180910390a16040518060400160405280601d81526020017f53747564656e7420526567697374726174696f6e20636f6d706c65746500000081525091505092915050565b6060600360008473ffffffffffffffffffffffffffffffffffffffff1673ffffffffffffffffffffffffffffffffffffffff168152602001908152602001600020600a018290806001815401808255809150506001900390600052602060002001600090919091909150556040518060400160405280600e81526020017f416464656420646561646c696e65000000000000000000000000000000000000815250905092915050565b6060600360008373ffffffffffffffffffffffffffffffffffffffff1673ffffffffffffffffffffffffffffffffffffffff16815260200190815260200160002060030180548060200260200160405190810160405280929190818152602001828054801561123357602002820191906000526020600020905b8160009054906101000a900473ffffffffffffffffffffffffffffffffffffffff1673ffffffffffffffffffffffffffffffffffffffff16815260200190600101908083116111e9575b50505050509050919050565b606060011515600560008473ffffffffffffffffffffffffffffffffffffffff1673ffffffffffffffffffffffffffffffffffffffff16815260200190815260200160002060009054906101000a900460ff161515146112d4576040517f08c379a00000000000000000000000000000000000000000000000000000000081526004016112cb90612a51565b60405180910390fd5b6000600560008473ffffffffffffffffffffffffffffffffffffffff1673ffffffffffffffffffffffffffffffffffffffff16815260200190815260200160002060006101000a81548160ff021916908315150217905550600360003373ffffffffffffffffffffffffffffffffffffffff1673ffffffffffffffffffffffffffffffffffffffff16815260200190815260200160002060030180548061137e5761137d612a71565b5b6001900381819060005260206000200160006101000a81549073ffffffffffffffffffffffffffffffffffffffff021916905590557f26a779b544786104fb4a364d37b0091d141939fa90570056c0a1bc6a07bb9572826040516113e29190612b12565b60405180910390a16040518060400160405280601181526020017f416363657373206973207265766f6b65640000000000000000000000000000008152509050919050565b606081600360003373ffffffffffffffffffffffffffffffffffffffff1673ffffffffffffffffffffffffffffffffffffffff168152602001908152602001600020600701908161147891906127f6565b506040518060400160405280601c81526020017f495046532068617368206164646564207375636365737366756c6c79000000008152509050919050565b6060600360003373ffffffffffffffffffffffffffffffffffffffff1673ffffffffffffffffffffffffffffffffffffffff168152602001908152602001600020600701805461150590612619565b80601f016020809104026020016040519081016040528092919081815260200182805461153190612619565b801561157e5780601f106115535761010080835404028352916020019161157e565b820191906000526020600020905b81548152906001019060200180831161156157829003601f168201915b5050505050905090565b6060600360008473ffffffffffffffffffffffffffffffffffffffff1673ffffffffffffffffffffffffffffffffffffffff1681526020019081526020016000206008018290806001815401808255809150506001900390600052602060002001600090919091909150556040518060400160405280600f81526020017f416464656420636f757273652069640000000000000000000000000000000000815250905092915050565b60046020528060005260406000206000915054906101000a900460ff1681565b6060806060600360008573ffffffffffffffffffffffffffffffffffffffff1673ffffffffffffffffffffffffffffffffffffffff168152602001908152602001600020600001600360008673ffffffffffffffffffffffffffffffffffffffff1673ffffffffffffffffffffffffffffffffffffffff168152602001908152602001600020600101600360008773ffffffffffffffffffffffffffffffffffffffff1673ffffffffffffffffffffffffffffffffffffffff16815260200190815260200160002060050182805461172890612619565b80601f016020809104026020016040519081016040528092919081815260200182805461175490612619565b80156117a15780601f10611776576101008083540402835291602001916117a1565b820191906000526020600020905b81548152906001019060200180831161178457829003601f168201915b505050505092508180546117b490612619565b80601f01602080910402602001604051908101604052809291908181526020018280546117e090612619565b801561182d5780601f106118025761010080835404028352916020019161182d565b820191906000526020600020905b81548152906001019060200180831161181057829003601f168201915b5050505050915080805461184090612619565b80601f016020809104026020016040519081016040528092919081815260200182805461186c90612619565b80156118b95780601f1061188e576101008083540402835291602001916118b9565b820191906000526020600020905b81548152906001019060200180831161189c57829003601f168201915b505050505090509250925092509193909250565b606060001515600560008473ffffffffffffffffffffffffffffffffffffffff1673ffffffffffffffffffffffffffffffffffffffff16815260200190815260200160002060009054906101000a900460ff16151514611962576040517f08c379a000000000000000000000000000000000000000000000000000000000815260040161195990612bb2565b60405180910390fd5b6001600560008473ffffffffffffffffffffffffffffffffffffffff1673ffffffffffffffffffffffffffffffffffffffff16815260200190815260200160002060006101000a81548160ff0219169083151502179055507f5a2a28d0708bd1dc5a38513de612a87bee6f714881097828fd8c036e68e4386a826040516119e99190612c44565b60405180910390a16040518060400160405280600e81526020017f416363657373206772616e7465640000000000000000000000000000000000008152509050919050565b606081600360003373ffffffffffffffffffffffffffffffffffffffff1673ffffffffffffffffffffffffffffffffffffffff1681526020019081526020016000206005019081611a7f91906127f6565b506040518060400160405280601c81526020017f495046532068617368206164646564207375636365737366756c6c79000000008152509050919050565b606082600360008673ffffffffffffffffffffffffffffffffffffffff1673ffffffffffffffffffffffffffffffffffffffff168152602001908152602001600020600a018381548110611b1457611b136125bb565b5b90600052602060002001819055506040518060400160405280600e81526020017f416464656420646561646c696e6500000000000000000000000000000000000081525090509392505050565b60056020528060005260406000206000915054906101000a900460ff1681565b606060011515600560008473ffffffffffffffffffffffffffffffffffffffff1673ffffffffffffffffffffffffffffffffffffffff16815260200190815260200160002060009054906101000a900460ff16151514611c16576040517f08c379a0000000000000000000000000000000000000000000000000000000008152600401611c0d90612a51565b60405180910390fd5b600360008473ffffffffffffffffffffffffffffffffffffffff1673ffffffffffffffffffffffffffffffffffffffff1681526020019081526020016000206005018054611c6390612619565b80601f0160208091040260200160405190810160405280929190818152602001828054611c8f90612619565b8015611cdc5780601f10611cb157610100808354040283529160200191611cdc565b820191906000526020600020905b815481529060010190602001808311611cbf57829003601f168201915b5050505050905092915050565b60405180610160016040528060608152602001606081526020016060815260200160608152602001606081526020016060815260200160608152602001606081526020016060815260200160608152602001606081525090565b828054828255906000526020600020908101928215611dbc579160200282015b82811115611dbb5782518260006101000a81548173ffffffffffffffffffffffffffffffffffffffff021916908373ffffffffffffffffffffffffffffffffffffffff16021790555091602001919060010190611d63565b5b509050611dc99190611e1a565b5090565b828054828255906000526020600020908101928215611e09579160200282015b82811115611e08578251825591602001919060010190611ded565b5b509050611e169190611e37565b5090565b5b80821115611e33576000816000905550600101611e1b565b5090565b5b80821115611e50576000816000905550600101611e38565b5090565b6000604051905090565b600080fd5b600080fd5b600073ffffffffffffffffffffffffffffffffffffffff82169050919050565b6000611e9382611e68565b9050919050565b611ea381611e88565b8114611eae57600080fd5b50565b600081359050611ec081611e9a565b92915050565b6000819050919050565b611ed981611ec6565b8114611ee457600080fd5b50565b600081359050611ef681611ed0565b92915050565b60008060408385031215611f1357611f12611e5e565b5b6000611f2185828601611eb1565b9250506020611f3285828601611ee7565b9150509250929050565b6000819050919050565b611f4f81611f3c565b82525050565b6000602082019050611f6a6000830184611f46565b92915050565b600060208284031215611f8657611f85611e5e565b5b6000611f9484828501611eb1565b91505092915050565b60008115159050919050565b611fb281611f9d565b82525050565b6000602082019050611fcd6000830184611fa9565b92915050565b611fdc81611f3c565b8114611fe757600080fd5b50565b600081359050611ff981611fd3565b92915050565b6000806040838503121561201657612015611e5e565b5b600061202485828601611eb1565b925050602061203585828601611fea565b9150509250929050565b600081519050919050565b600082825260208201905092915050565b60005b8381101561207957808201518184015260208101905061205e565b83811115612088576000848401525b50505050565b6000601f19601f8301169050919050565b60006120aa8261203f565b6120b4818561204a565b93506120c481856020860161205b565b6120cd8161208e565b840191505092915050565b600060208201905081810360008301526120f2818461209f565b905092915050565b6000602082840312156121105761210f611e5e565b5b600061211e84828501611ee7565b91505092915050565b61213081611e88565b82525050565b600060208201905061214b6000830184612127565b92915050565b600060c082019050818103600083015261216b818961209f565b9050818103602083015261217f818861209f565b90508181036040830152612193818761209f565b905081810360608301526121a7818661209f565b905081810360808301526121bb818561209f565b905081810360a08301526121cf818461209f565b9050979650505050505050565b6121e581611ec6565b82525050565b600060208201905061220060008301846121dc565b92915050565b600080fd5b600080fd5b7f4e487b7100000000000000000000000000000000000000000000000000000000600052604160045260246000fd5b6122488261208e565b810181811067ffffffffffffffff8211171561226757612266612210565b5b80604052505050565b600061227a611e54565b9050612286828261223f565b919050565b600067ffffffffffffffff8211156122a6576122a5612210565b5b6122af8261208e565b9050602081019050919050565b82818337600083830152505050565b60006122de6122d98461228b565b612270565b9050828152602081018484840111156122fa576122f961220b565b5b6123058482856122bc565b509392505050565b600082601f83011261232257612321612206565b5b81356123328482602086016122cb565b91505092915050565b60006020828403121561235157612350611e5e565b5b600082013567ffffffffffffffff81111561236f5761236e611e63565b5b61237b8482850161230d565b91505092915050565b6000806040838503121561239b5761239a611e5e565b5b600083013567ffffffffffffffff8111156123b9576123b8611e63565b5b6123c58582860161230d565b925050602083013567ffffffffffffffff8111156123e6576123e5611e63565b5b6123f28582860161230d565b9150509250929050565b600081519050919050565b600082825260208201905092915050565b6000819050602082019050919050565b61243181611e88565b82525050565b60006124438383612428565b60208301905092915050565b6000602082019050919050565b6000612467826123fc565b6124718185612407565b935061247c83612418565b8060005b838110156124ad5781516124948882612437565b975061249f8361244f565b925050600181019050612480565b5085935050505092915050565b600060208201905081810360008301526124d4818461245c565b905092915050565b600060608201905081810360008301526124f6818661209f565b9050818103602083015261250a818561209f565b9050818103604083015261251e818461209f565b9050949350505050565b60008060006060848603121561254157612540611e5e565b5b600061254f86828701611eb1565b935050602061256086828701611fea565b925050604061257186828701611ee7565b9150509250925092565b6000806040838503121561259257612591611e5e565b5b60006125a085828601611eb1565b92505060206125b185828601611eb1565b9150509250929050565b7f4e487b7100000000000000000000000000000000000000000000000000000000600052603260045260246000fd5b7f4e487b7100000000000000000000000000000000000000000000000000000000600052602260045260246000fd5b6000600282049050600182168061263157607f821691505b602082108103612644576126436125ea565b5b50919050565b60008190508160005260206000209050919050565b60006020601f8301049050919050565b600082821b905092915050565b6000600883026126ac7fffffffffffffffffffffffffffffffffffffffffffffffffffffffffffffffff8261266f565b6126b6868361266f565b95508019841693508086168417925050509392505050565b6000819050919050565b60006126f36126ee6126e984611ec6565b6126ce565b611ec6565b9050919050565b6000819050919050565b61270d836126d8565b612721612719826126fa565b84845461267c565b825550505050565b600090565b612736612729565b612741818484612704565b505050565b5b818110156127655761275a60008261272e565b600181019050612747565b5050565b601f8211156127aa5761277b8161264a565b6127848461265f565b81016020851015612793578190505b6127a761279f8561265f565b830182612746565b50505b505050565b600082821c905092915050565b60006127cd600019846008026127af565b1980831691505092915050565b60006127e683836127bc565b9150826002028217905092915050565b6127ff8261203f565b67ffffffffffffffff81111561281857612817612210565b5b6128228254612619565b61282d828285612769565b600060209050601f831160018114612860576000841561284e578287015190505b61285885826127da565b8655506128c0565b601f19841661286e8661264a565b60005b8281101561289657848901518255600182019150602085019450602081019050612871565b868310156128b357848901516128af601f8916826127bc565b8355505b6001600288020188555050505b505050505050565b7f4e487b7100000000000000000000000000000000000000000000000000000000600052601160045260246000fd5b600061290282611ec6565b91507fffffffffffffffffffffffffffffffffffffffffffffffffffffffffffffffff8203612934576129336128c8565b5b600182019050919050565b7f53747564656e7420686173206265656e2061646465642073756363657373667560008201527f6c6c790000000000000000000000000000000000000000000000000000000000602082015250565b600061299b60238361204a565b91506129a68261293f565b604082019050919050565b60006040820190506129c66000830184612127565b81810360208301526129d78161298e565b905092915050565b7f546865207465616368657220646f65736e2774206861766520616e792061636360008201527f6573730000000000000000000000000000000000000000000000000000000000602082015250565b6000612a3b60238361204a565b9150612a46826129df565b604082019050919050565b60006020820190508181036000830152612a6a81612a2e565b9050919050565b7f4e487b7100000000000000000000000000000000000000000000000000000000600052603160045260246000fd5b7f41636365737320686173206265656e207265766f6b65642066726f6d2074686560008201527f2074656163686572000000000000000000000000000000000000000000000000602082015250565b6000612afc60288361204a565b9150612b0782612aa0565b604082019050919050565b6000604082019050612b276000830184612127565b8181036020830152612b3881612aef565b905092915050565b7f41636365737320616c726561647920676976656e20746f20746865207465616360008201527f6865720000000000000000000000000000000000000000000000000000000000602082015250565b6000612b9c60238361204a565b9150612ba782612b40565b604082019050919050565b60006020820190508181036000830152612bcb81612b8f565b9050919050565b7f41636365737320676976656e20746f207468652061626f76652061646472657360008201527f7365642074656163686572000000000000000000000000000000000000000000602082015250565b6000612c2e602b8361204a565b9150612c3982612bd2565b604082019050919050565b6000604082019050612c596000830184612127565b8181036020830152612c6a81612c21565b90509291505056fea264697066735822122096fd63d7ba9c85544326c96df5216de5a7987adbd04ebf846bbaa154fa4fa91464736f6c634300080f0033",
  "immutableReferences": {},
  "source": "//SPDX-License-Identifier: MIT\n\npragma solidity ^0.8.0;\n\n//import \"../dapp_frontend/node_modules/openzeppelin-contracts/contracts/access/AccessControl.sol\";\n//import \"@openzeppelin/contracts/access/AccessControl.sol\";\n//import \"./RoleAssign.sol\";\nimport \"./RBAC.sol\";\n\ncontract Student{\n\n    struct student {\n        string name;\n        string city;\n        string email;\n        address[] teacherAccessList;\n        address[] certAccessList;\n        string record_hash;\n        string about_hash;\n        string prof_pic_hash;\n        int256[] courses_id;\n        int256[] courses_deadline;\n        int256[] marks;\n        \n    }\n\n    address owner_p;\n    address[] public p_List;\n    uint public studentsCount;\n\n    mapping (address => student) public studentInfo;\n\n    mapping (address => bool) public students;\n     \n    mapping (address => bool) public teachers;\n\n    mapping (address => bool) public university;\n\n  //  mapping(address => mapping(string => string)) prescriptions;\n\n    event detailsAdded(address _student, string message);\n    event accessGiven(address _teacher, string message);\n    event accessRevoked(address _teacher, string message);\n    event prescrAdded(address _teacher, string message);\n\n     modifier only_owner(){\n        require(owner_p == msg.sender);\n        _;\n    }\n\n    constructor() {\n        owner_p = msg.sender;\n        //studentsCount = 0;\n    }\n    \n    function addDetails(string memory _name, string memory _city) public returns (string memory)\n    {\n        student memory p;\n        p.name = _name;\n        p.city = _city;\n        studentInfo[msg.sender] = p;\n        //p_List.push(msg.sender)-1;\n        //p_List[studentsCount] = msg.sender;\n        studentsCount++;\n        students[msg.sender] = true;\n\n        emit detailsAdded(msg.sender, \"Student has been added successfully\");\n        return \"Student Registration complete\";\n    }\n\n    function addCourseID(address s_id,int256 _c_id) public returns (string memory){\n        studentInfo[s_id].courses_id.push(_c_id);\n        return \"Added course id\";\n    }\n\n     function addDeadline(address s_id,int256 _deadline) public returns (string memory){\n        studentInfo[s_id].courses_deadline.push(_deadline);\n        return \"Added deadline\";\n    }\n\n    function addMarks(address s_id,int256 _marks) public returns (string memory){\n        studentInfo[s_id].marks.push(_marks);\n        return \"Added deadline\";\n    }\n\n    function addMarksWI(address s_id,int256 _marks, uint256 idx) public returns (string memory){\n        studentInfo[s_id].marks[idx] = _marks;\n        return \"Added deadline\";\n    }\n\n    function getTotalCourses(address s_id) public view returns(uint256) {\n        return studentInfo[s_id].courses_id.length;\n    }\n\n    function getCourseID(address s_id,uint256 _c_id) public view returns (int256){\n        return studentInfo[s_id].courses_id[_c_id];\n    }\n\n    function getDeadline(address s_id,uint256 _c_id) public view returns (int256){\n        return studentInfo[s_id].courses_deadline[_c_id];\n    }\n\n    function getMarks(address s_id,uint256 _c_id) public view returns (int256){\n        return studentInfo[s_id].marks[_c_id];\n    }\n\n\n\n    function getstudentDet(address paddr) view public returns (string memory, string memory, string memory) {\n        return (studentInfo[paddr].name,studentInfo[paddr].city,studentInfo[paddr].record_hash);\n    }\n    \n    function giveAccess(address _teacher_address) public returns (string memory) {\n       \n        require(teachers[_teacher_address] == false, \"Access already given to the teacher\");\n        teachers[_teacher_address] = true;\n        //studentInfo[msg.sender].teacherAccessList.push(_teacher_address)-1;\n        //an event can be added\n        emit accessGiven(_teacher_address, \"Access given to the above addressed teacher\");\n        return \"Access granted\";\n    }\n    \n    //only owner is removed temporarily\n    function revokeAccess(address _teacher_address) public returns (string memory) {\n       \n        //if(teachers[_teacher_address]){\n        //    teachers[_teacher_address] = false;\n        //}\n        require(teachers[_teacher_address] == true, \"The teacher doesn't have any access\");\n        teachers[_teacher_address] = false;\n        studentInfo[msg.sender].teacherAccessList.pop();\n        //can add an event\n        emit accessRevoked(_teacher_address, \"Access has been revoked from the teacher\");\n        return \"Access is revoked\";\n    }\n\n    function getAccessList(address paddr) view public returns (address[] memory){\n        return studentInfo[paddr].teacherAccessList;\n    }\n\n    /*function getPhAccessList(address paddr) view public returns (address[] memory){\n        return studentInfo[paddr].prescAccessList;\n    }*/\n\n    function getHash(address paddr, address _teacher_address) public view returns (string memory) {\n        require(teachers[_teacher_address] == true, \"The teacher doesn't have any access\");\n        return studentInfo[paddr].record_hash;\n    }\n\n     function getIPFSHash() public view returns (string memory) {\n        return studentInfo[msg.sender].record_hash;\n    }\n\n   /* function addPrescriptions(address daddr, string memory disease_name, string memory medications) public returns(string memory){\n        require(teachers[daddr] == true, \"The teacher doesn't have the permission to give out prescriptions\");\n        prescriptions[daddr][disease_name] = medications;\n        emit prescrAdded(daddr, 'Prescriptions added');\n        return 'Prescriptions added';\n\n    }*/\n\n    /*function giveAccessPrescr(address _pharma_address) public returns (string memory) {\n        require(pharmacy[_pharma_address] == false, \"Access to the prescriptions already given to the pharmacy\");\n        pharmacy[_pharma_address] = true;\n        studentInfo[msg.sender].prescAccessList.push(_pharma_address)-1;\n        //an event can be added\n        emit accessGiven(_pharma_address, \"Access to the prescriptions given to the above addressed pharmacy\");\n        return \"Access granted\";\n    }\n\n    function revokeAccessPrescr(address _pharma_address) public returns (string memory) {\n        require(pharmacy[_pharma_address] == true, \"This particular pharmacy doesn't have any access\");\n        pharmacy[_pharma_address] = false;\n        studentInfo[msg.sender].prescAccessList.pop();\n        //can add an event\n        emit accessRevoked(_pharma_address, \"Access has been revoked from the pharmacy\");\n        return \"Access is revoked\";\n    }\n\n    function getPrescriptions(address _doc_addr, address _ph_addr, string memory _disease_name) public view returns (string memory){\n         require(pharmacy[_ph_addr] == true, \"The pharmacy doesn't have the permission to access the prescriptions\");\n         return prescriptions[_doc_addr][_disease_name];   \n    }*/\n\n    function setIPFShash(string memory _hash)public returns(string memory){\n        studentInfo[msg.sender].record_hash = _hash;\n        return \"IPFS hash added successfully\";\n\n    }\n\n    function setabouthash(string memory _hash)public returns(string memory){\n        studentInfo[msg.sender].about_hash = _hash;\n        return \"IPFS hash added successfully\";\n\n    }\n\n     function getaboutHash() public view returns (string memory) {\n        return studentInfo[msg.sender].about_hash;\n    }\n\n     function setprofpichash(string memory _hash)public returns(string memory){\n        studentInfo[msg.sender].prof_pic_hash = _hash;\n        return \"IPFS hash added successfully\";\n\n    }\n\n     function getprofpictHash() public view returns (string memory) {\n        return studentInfo[msg.sender].prof_pic_hash;\n    }\n\n\n}",
  "sourcePath": "/home/jarvis/projects/mtech_proj-main/contracts/Student.sol",
  "compiler": {
    "name": "solc",
    "version": "0.8.15+commit.e14f2714.Emscripten.clang"
  },
  "schemaVersion": "3.4.8",
  "updatedAt": "2023-03-23T09:51:27.851Z",
  "networkType": "ethereum",
  "devdoc": {
    "kind": "dev",
    "methods": {},
    "version": 1
  },
  "userdoc": {
    "kind": "user",
    "methods": {},
    "version": 1
  }
}